:105B4800400C125EACAA82AB83125EAC800A125F74
:105B5800C4AA82AB83125FC4C0018F018E00125D9C
:105B6800F1D001EC240FED3400FCEE3400FDEF34ED
:105B780000FE8583F0E5822CFCE5833DFDE430F7EB
:105B880001F43E30F7054003E48004600474FFFD2F
:085B9800FC09EDF719ECF722FE
:10221000C0D0C0E0C0F0C082C083C000C00230990E
:1022200005C299122263309805C29812223DD0024D
:10223000D000D083D082D0F0D0E0D0D032A849E511
:1022400099B43E03754900B42913121FBF7583006A
:10225000758200E0B43E09C29CD2078003121FBF02
:10226000054922C2B4E549B52D11C2B07830D8FE77
:10227000D2B0D2B475490075985022121FC7F59993
:10228000054922020073900005E0B4521DA3E0B49A
:102290007318900008121EB6EE23F582758305E0D0
:1022A000FFA3E0F8121EA5021477900005E0B458D1
:1022B00008A3E0B458030214EB900006E0B44F0A00
:1022C000A3E0B44C05A3E0B44400900005E0B4578B
:1022D00008A3E0B44503021609900007E0B4430ADE
:1022E000A3E0B442030216A5804A900005E0B45270
:1022F00008A3E0B44503021544900005E0B44D0383
:10230000021463900005E0B44A0302141C90000715
:10231000E0B45303022665900005E0B441030225B2
:1023200080900007E0B4480302261B02008F0223BE
:10233000D10223E6900009121EB6EF600302007975
:10234000EEF550900008E0B458E71224F2B4010E04
:0C2350007513017512B97511A975100BF9
:10235C0080591224F275F0B07515BC7514ED751119
:10236C000D751058B4030F75F0B27515B17514F1E5
:10237C0075110C751092125FD1858313858312121F
:10238C005FD185831785831612250F1224F2504ACC
:10239C0075F0CAB4030375F0CC125EAC858313855B
:1023AC008212125EAC858311858210E550232324A2
:1023BC0044F5F0851383851282125FA885118385FD
:1023CC001082125FA8E550B41D0D78A67600087631
:1023DC0000087600087600020079E55078A6125FB6
:1023EC007840E21224F25034900008E0B4512DE50C
:1023FC00F075F0B0B4030375F0B290000CC0F0129D
:10240C001F1BD0F08D838C82125A8D900018C0F057
:10241C00121F1BD0F08D838C82125A8D1224F25015
:10242C0026900008E0B4201FE5F075F0B0B403036B
:10243C0075F0B2125FD1858313858212125FD1853C
:10244C008317858216801490000C121F1B8D138C21
:10245C0012900018121F1B8D178C16900011121F52
:10246C002E85831185821090001D121F2E858315D9
:10247C00858214C010C0111256A050028061E55024
:10248C0023232444F5F0850183850082125FA885FF
:10249C001183851082125FA8D011D0101224F25033
:1024AC0038900011C010C011C012C013121D4BD0B7
:1024BC0013D012D011D01085831185821090001D7D
:0B24CC00C010C011C012C013121D4B45
:1024D700D013D012D011D010858315858214122500
:1024E7000F0223D1D0E0D0E00223D1E5502400F53C
:1024F700F0125FC4E583543FF5F0B402028007B4DD
:1025070003028002C322D322E55023232460F5F07F
:10251700851583851482125A8D8517838516821235
:102527005A8D851183851082125A8D8513838512E2
:1025370082125A8D22900009121EB6EE23232444DC
:10254700F5F0125EAC858313858212125EAC85832B
:1025570011858210900007E075F0CAB44B0375F03F
:10256700CC851383851282125FA88511838510821B
:10257700125FA802007902008F900007121EB6EEC4
:10258700F550700D78A67600087600087600087674
:102597000012204C401378A6E550B408004005947B
:1025A700080880F612600D46F690000A121EB6EE75
:1025B700F54E90000C121EB6EEF54F90000E121E4F
:1025C700B6EE0303424E854E83854F82E5502400C5
:1025D700F5F0125F99900010121EB68E108F1190B1
:1025E7000017121EB6E55023232446F5F085108206
:1025F700851183125FA88E828F83125FA8754E00A4
:10260700754F00D23B121D9EE5502444F5F0125F32
:1026170099020079900009121EB6EEB41D28C0E099
:0C26270075F0E875832775820F125F992B
:1026330075F030758380758200125F9975F031757E
:102643008380758200125F99D0E0F55090000C12E0
:102653001EB68E828F83E5502400F5F0125A8D0248
:102663000079900009121E8F500302008FB42903D2
:10267300022917B428030229D3B42A030227D8B4A2
:102683002B02800AB4220050E1F550022A41900047
:102693000C121CE375F0F9125F99900011121CE300
:1026A30075F0FA125F99900016121CE375F0FB1295
:1026B3005F9990001B121CE375F0FC125F99900068
:1026C30020121CE375F0FD125F99900025121CE3A4
:1026D30075F0FE125F9990002A121CE375F0FF1249
:1026E3005F9975F0FA125FC485831385821275F0C2
:1026F300FB125FC485831785821675110075100060
:1027030075150F7514FF1256A08983888275F0F72B
:10271300125F9985118385108275F0F8125F991203
:1027230020B2600F90002F121CE375F0E8125F993E
:1027330002007975500090002F121D4B75F0F112B5
:102743005F99858234858335783475F046125BF65C
:102753008F838E8275F0ED125F99900036121D4BB8
:1027630075F0F2125F99858234858335783475F07C
:1027730046125BF68F838E8275F0EE125F9990009E
:102783003D121CE375F0F3125F99900042121CE3B3
:1027930075F0F4125F99900047121CE375F0F5127F
:1027A3005F9990004C121CE375F0F6125F9990004C
:1027B30051121CE375F0E8125F99900056121CE366
:1027C30075F0E9125F9990005B121CE375F0EA1251
:0E27D3005F9902007990000C121E8F75830032
:1027E100F58275F0D1125FA890000F121E8F7583CC
:1027F10000F582F55075F0D2125FA8900012121DFB
:102801004B75F0D3125FA8900019121D4B75F0D4CF
:10281100125FA8900020121E8F758300F582F5507B
:1028210075F0D5125FA8741EB55022900024121EB7
:10283100B68F838E8275F0D6125FA890002B121E80
:10284100B68F838E8275F0D7125FA880189000230F
:10285100121D4B75F0D6125FA890002A121D4B7500
:10286100F0D7125FA8900031121CFE8582159000EE
:1028710035121CFE85828385158275F0C6125FA80C
:10288100900039121CFE85821590003D121CFE85B8
:10289100828385158275F0C7125FA8900041121CD2
:1028A100FE858215900045121CFE85828385158266
:1028B10075F0BD125FA8900049121CFE858215902B
:1028C100004D121CFE85828385158275F0BE125F54
:1028D100A8900051121CFE75F0DC125FA890005503
:1028E100121CFE858215900059121CFE858283857B
:1028F100158275F062125F9990005D121CFE85824F
:1029010015900061121CFE85828385158275F06326
:10291100125F9902007990000D121AFC758300F57F
:1029210082F55075F0BF125FA890000F121CFE7562
:10293100F0C0125FA890001A121CFE75F0C2125F5F
:10294100A890001A121CFE75F033125F99900013C3
:10295100121D4B75F0C1125FA890001E121D4B7520
:10296100F0C3125FA8900025121CE375F0C4125F3A
:10297100A8900025121CE375F032125F9990002A8D
:10298100121CE375F0DE125FA8900039121CE3758A
:05299100F0C5125FA873
:1029960090003E121CE375F0D8125FA89000431217
:1029A6001CE375F042125FA8900048121CE375F014
:1029B60043125FA81220B2701190004DE0540FF53B
:1029C6008275830075F0D9125FA802007990000F16
:1029D600121CFE75F0C9125FA8900036121CFE90FC
:1029E6000034E0B43103434F80854F33854F8385F0
:1029F6004E8275F0D0125FA8125E5990000C121E1E
:102A06008F758300F58275F0CF125FA890001B12B8
:102A16001CE375F0C8125FA8900020121CE375F045
:102A2600DB125FA875F0DA125EACE5824403F5822C
:102A3600F52C75F0DA125FA8020079C206B41E0002
:102A4600B3920690003C121CFEC082900040121CFD
:102A5600FE854E83D082E5502430F5F0125A8D90D3
:102A66000034121CFEC082900038121CFE854E8374
:102A7600D082E55024DFF5F0125FA890000E121CFC
:102A8600FE90000CE0C394410303454FF583854E49
:102A960082E550232464F5F0125F99900022121CFF
:102AA600FE900020E0C394410303454FF583854E15
:102AB60082E550232465F5F0125F993006089000F0
:102AC60013121CE38008900012121D4B400AE550B9
:102AD600232400F5F0125FA8300608900027121C88
:102AE600E38008900026121D4B400AE5502324017E
:102AF600F5F0125FA830062290001A121CE3E5508A
:052B06002324A6F5F0F8
:102B0B00125F9990002E121CE3E5502324A7F5F0D9
:102B1B00125F998024900019121D4B400AE5502337
:102B2B0024A6F5F0125F9990002D121D4B400AE57B
:0E2B3B00502324A7F5F0125F99C2060200791C
:10002600900000E0B43E46A3E0B42841900002E010
:10003600B45807A3E0B458028023900002121EB6FB
:10004600EEB442030207CDB44D0302084990000402
:10005600E0B45603021FD71220B2B5061090000472
:10006600E0A3B420028069B45409022286754900CF
:10007600D29C22754900D29C2243524321291890D2
:10008600007F80084E414B212990008AE493A3F219
:1000960008B429F8121EA5121EB0882DD29922C2C4
:1000A6001A75770075780008E2B4221C201A04D26B
:1000B6001A80F4087420F208AE78AF77745712539A
:1000C600307429F2C21A80CC301ADC1246B780D7B7
:1000D600900005E0B44608A3E0B4430302253C9033
:1000E6000005121BA5E904608A1475F003A49000AC
:1000F600F87302017002045C02045C02045C0204F0
:100106005C0202C40202C40206770206770206D91E
:100116000206D90206D90206D902074902062D02AD
:1001260007CD02094A0209A7020A0C021227021089
:1001360041020DCA0214630215440214C3021609D1
:100146000216A50216C302170702174802177602FF
:100156001A7B021AE80217A60217B80217CA021774
:10016600DC02181402187002007975F0F9125FC4E7
:1001760085822BC25590000AE0B44302D255900006
:0C01860009E0C243B44102D243900008DB
:10019200E0C241B42A02D241900007E0C24CB454FA
:1001A20002D24CC2AF78CD90010275A70190020035
:1001B20075A755E0F0D8FC75A700D2AF121EA59026
:1001C20001C8E52C20E0047446800578A2E62442AA
:1001D200F0A3789EE62442F0A3E52BB4020280133A
:1001E200E52C20E10EE52B75F046600375F030E555
:1001F200F0802AE52BB40214E52C75F04D30E103B2
:1002020075F0417430F0A3E5F0F08019600A7431A2
:10021200F0A3789DE6F0800D78A3E62442F0A3785F
:100222009FE62442F0A3C083C08290053FE075F0B0
:100232002020E70375F052A3A3E020E70375F053F3
:10024200E5F0D082D083F0A3C083C08275F0DB12C8
:100252005EACE5834582600EC3E5409582E53F953D
:100262008375F020400375F043D082D083E5F0F02F
:10027200A37429F0754900752DCF900360E0B4088E
:10028200005039FFA3E0FE9001CED23D1250A07F74
:1002920000900362E0FE9001D3D23D1250A07F0095
:1002A200900363E0FE9001D8D23D1250A09001DD90
:0C02B2007429F0752DDE90036074FFF0DD
:1002BE00D2992202016D90000AE0B429F69000074F
:1002CE00E0B42004C2398005B443E8D239A3121E2B
:1002DE008F40E014F54EB41E00406BB41E2630392C
:1002EE001175F0E2900006E0B4480205F0125FC40A
:1002FE00803875F03C900006E0B4480375F03D126E
:10030E005EAC8026B41F1175F0E4900006E0B44890
:10031E000205F0125FC48012B4202D75F0E6900035
:10032E0006E0B4480205F0125FC4AE82AF839001BE
:10033E0002C009854E091250A0D009901B5A121BFB
:10034E000D7583048067400302016DE54E2320394D
:10035E001E2400F5F0900006E0B4480205F085F08A
:10036E0050901B5A121B0D8550F0125EAC801C244F
:10037E00A6F5F0900006E0B4480205F085F0509026
:10038E001B5A121B0D8550F0125FC4E54E75F0041A
:10039E00A42446F5F085835085824F784F125BF684
:1003AE00900102C009854E091250A0D009121EA557
:1003BE0010030302044A75F0E8125FC4E583B42704
:1003CE0007E582B40F02800EE5564557C36001D390
:1003DE00E50892E4F50875F0DC125EACE58230E0DB
:1003EE00115308DF78ACE60846084608466003431A
:1003FE000820E58230E608E508A24192E6F5087588
:10040E0052007F00AE08D23D9001081250A0752D0B
:01041E0013CA
:10041F007420900108F0742090010DF01220C9C2D1
:10042F00037844125C06EE850706FF90010D7450A9
:10043F001253F27429900112F08009752D09742955
:10044F00900108F0754900D2992202016D900004C5
:10045F00E0B420F690000AE0B429EF900007C2390B
:10046F00E0B44302D239D202900008121E8F40DA54
:10047F0015E0F550B41E005003020577B41E22207C
:10048F00391075F03CB90300400375F03D125EACB6
:10049F00803375F0E2B90300400205F0125FC480AB
:1004AF0024B41F1075F0E4B90300400375F0E51292
:1004BF005FC48011B4209375F0E6B9030040037553
:1004CF00F0E7125FC415F0E920E046C3E582301271
:1004DF0006C212940A80029401F582E5839400F516
:1004EF0083E550B42021A983A882C0F075F0421291
:1004FF005EACD0F0E920E761C3E89582E9958340CF
:10050F0058898388828052E58330E74D90000080C0
:10051F004830120EC21274092582F582E583340029
:10052F00F583A3E550B41E02802FE550B4201DA91A
:10053F0083A882C0F075F043125EACD0F0C3E8958B
:10054F0082E99583501389838882800DE583700635
:10055F00E58294644003900064203906125FA8027C
:02056F00061F65
:10057100125F9902061F400302016DE55075F004F8
:10058100A42447F5F0125EAC85831585821415F01D
:1005910015F0125EACC3E5149582F8E5159583C09C
:1005A10001F97A007547007546007545FF7544FFEE
:1005B100125D2B301211C212A945A8447B007A0AA0
:1005C100125DF18D458C44D001E55023B90300B390
:1005D10020390B3400F535F5F0125EAC800934A6F4
:1005E100F535F5F0125FC4E920E014C3E5829544C6
:1005F100F582E5839545F58350039000008011E570
:10060100442582F582E5453583F583500390FFFF4C
:100611008535F0203905125FA88003125F9990009B
:1006210005E0A3F0E5500202E202016D752D0D9087
:100631000007E0B429F3901B67121B0DA23C723A2C
:10064100502E90010AE54820E709744CF0A3744F3D
:10065100F080077448F0A37449F0900107E548C29F
:10066100E705E075F00A842430F0A3E5F02430F0CA
:1006710002045302016D900008121E8F40F514F51B
:1006810050B41E0B75F0A1B9071875F0A0801323A3
:100691002464F5F0B9080405F08007B90B004002A5
:1006A10005F0125FC4AE82E583543FFFE583232347
:0206B1005403F0
:1006B3002441900106F0900100D23D1250A0121E79
:1006C300A59001057420F09001077429F0752D0899
:1006D30002045302016D900008121E8F40F514F5B9
:1006E30050D202B41E0D75F0A0B90B00401175F085
:1006F300A1800C232464F5F0B90B00400205F0122D
:100703005FC415F0E58354C0F54E53833FE920E001
:1007130015C3E5829401F582E5839400F58330E700
:1007230013900000800EA3E583B40308E582B4E8C8
:10073300039003E7E54E4583F583125F9990000725
:100743007420F002067775F0E8125FC4E583B427DE
:1007530007E582B40F02800F7B007A3CA983A8824D
:10076300125DF18C568D571220B2701212429B12F9
:1007730042A312427912428A12422B124243C245C9
:1007830075F0DC125EACE58230E70353087FE58247
:1007930030E5035308FC78A4760078A57600D240B0
:1007A300755D00755E00755F0075600075610075AD
:1007B3006200756300756400C2857536007542007A
:1007C300754301C242C23C0200731220B223F5F00A
:1007D300900005E0C395F0F0900007E0B44133A327
:1007E300E0B4555FA3E0B4545A900005E0B430027E
:1007F3008003B4314E75F002B4300375F001E5F0B7
:10080300B40102C24FB40202C24EE52C45F0F52CEE
:100813008029900007E0B44D2AA3E0B44125A3E06A
:10082300B44E20900005E0B4300575F0FE8006B4A8
:10083300311175F0FDE52C55F0F52CF58275F0DAE4
:10084300125FA80200731220B223F5F0900007E0B4
:10085300C395F0FAB43002801CB431E7E52BB4023F
:1008630014C009EA750901AFFCAEFB900005E0B4C2
:100873004953020928900005E0B44460C009EA75B1
:100883000901AFFCAEFBB4302B75F0DC125EACE5B6
:100893008230E51775F0C4125EAC858338858237E4
:1008A300E50854FC4402F508125612750900AFFA24
:1008B300AEF98011E52B600D1241E1D009125F24DE
:1008C300125BA08075C3EE9440FEEF9400FF30E707
:1008D300047F007E001248CCD009805EC009EA750F
:1008E3000901AFFCAEFBB4302B75090075F0DC12C7
:1008F3005EACE58230E51775F0C4125EAC858338D3
:10090300858237E50854FC4401F508125612AFFA04
:10091300AEF98011E52B600D125E27D009125F241A
:10092300125BA08015EE2440FEEF3400FF54F0600C
:10093300047F0F7EFF1248CCD009900458E5FBF0EA
:10094300A3E5FCF0020073900009E0B4312575F0D3
:0E095300CE125EAC858338858237E50854FCF1
:100961004402F5081256121209F0405D7C007D0424
:10097100125F658023E575240AF575E5763400F587
:1009810076125EACC3E5759582E576958340068562
:100991008275858376125BA0C24F901B3C121B0DA2
:1009A100752D0B020453900009E0B4312575F0CE8A
:1009B100125EAC858338858237E50854FC4401F525
:1009C100081256121209F040A37C007D04125F3E0A
:1009D10080C6C3E575940AF575E5769400F576123F
:1009E1005EACC3E5759582E576958350A880A075C8
:1009F100F0C9125EACE58254066003B40302C3225F
:100A0100D322020BB5020B28020073900008E0B458
:100A110036F3A3E0B4302A75500090000A121D4B42
:100A210075F0F1125F99858234858335783475F0DC
:100A310046125BF68F838E8275F0ED125F99020B81
:100A4100B8B4312A75500090000A121D4B75F0F2AE
:100A5100125F99858234858335783475F046125B4F
:100A6100F68F838E8275F0EE125F99020BB8B43265
:100A71000F90000B121CE375F0F3125F99020BB893
:100A8100B4330F90000B121CE375F0F4125F99025E
:100A91000BB8B4341275500290000A121D4B75F058
:100AA100C3125FA8020BB8B4350F90000B121CE300
:100AB10075F0C0125FA8020BB8B4360F90000B128C
:100AC1001CE375F0C2125FA8020BB8B43712900094
:0D0AD1000A755002121D4B75F0C1125FA88E
:100ADE00020BB8B4381290000A755000121D4B75F7
:100AEE00F0D4125FA8020BB8B4392975F0D5E5829F
:100AFE00B4011290000A755001121D4B75F0D712F9
:100B0E005FA8020BB890000B121CE375F0D7125FB2
:100B1E00A8020BB8020073020A03900009E0B43178
:100B2E00F6901B74121B0D85254E85264F30090A33
:100B3E00E54EF4F54EE54FF4F54F784E125BF69018
:100B4E000100D23D1250A0121EA575F0BF125EAC70
:100B5E00E5824430900107F07430A21592E0A214A1
:100B6E0092E1900106F0900109E51AF0B4320040CE
:100B7E000AB434028005E54DB4FF06752D0D02044E
:100B8E005390010A75F033C5F0F0C5F0B40800506B
:100B9E0005082430800B75F034C5F0F0C5F0A324A1
:100BAE0028F080D7020D80B432FA121EA5741E9062
:100BBE005FF7B41E03906002C2AF780B75A7559015
:100BCE00010205A7E493F0D8FB75A700D2AF75F02C
:100BDE00F1125FC4740075F004A42446F5F0858309
:100BEE005085824F784F125BF6EF850607FE900117
:100BFE000E74471253F275F0F2125FC4740075F062
:100C0E0004A42446F5F085835085824F784F125BFD
:100C1E00F6EF850607FE90011374471253F275F036
:100C2E00F3125FC4AE83AF8274409001181253F278
:0A0C3E0075F0F4125FC4AE83AF82BC
:100C4800744090011D1253F2754E0275F0C3125E86
:100C5800ACE54E75F004A42446F5F08583508582F2
:100C68004F784F125BF6900122C009854E09125049
:100C7800A0D00975F0C0125EACAE83AF827440900C
:100C880001291253F275F0C2125EACAE83AF8274C2
:100C98004090012E1253F2754E0275F0C1125EACEF
:100CA800E54E75F004A42446F5F085835085824FFF
:100CB800784F125BF6900133C009854E091250A097
:100CC800D009754E0075F0D4125EACE54E75F0048F
:100CD800A42446F5F085835085824F784F125BF641
:100CE80090013AC009854E091250A0D00975F0D577
:100CF800125EACE582B4012CF54E75F0D7125EACED
:100D0800E54E75F004A42446F5F085835085824F9E
:100D1800784F125BF6900141C009854E091250A028
:100D2800D009801E75F0D7125EACAE83AF827440D6
:100D38009001421253F2742B900141F0742E9001ED
:100D480046F0742090010DF0900112F0900117F018
:100D580090011CF0900121F0900128F090012DF0F5
:100D6800900132F0900139F0900140F09001477401
:100D780029F0752D48020453B4334175F0DC125E36
:100D8800ACE58230E52320452075370075380075BD
:100D9800F0DE125EAC78A4A68208A683E50854FCAF
:0C0DA8004402F508125612D213754C00DC
:100DB400D24575F0DC125EACE58230E7034308806F
:100DC400020073021227C212900007E0B44302D259
:100DD40012900008121E8FF54EB4051B75F0D21246
:100DE40013D530120912203785458385448275F066
:100DF400D3120FE9020FE3B4193B75F0471213E263
:100E040030120912203785458385448275F0F1122A
:100E14005FC415F0120FEE125F9985823485833515
:100E2400783475F046125BF68F838E8275F0ED127E
:100E34005F99021227B41A3B75F0471213E230127D
:100E44000912203785458385448275F0F2125FC408
:100E540015F0120FEE125F9985823485833578344C
:100E640075F046125BF68F838E8275F0EE125F99F1
:100E7400021227B41B0575F0F38006B41C2775F025
:100E8400F4125FC47819301202787DC3E58298F5B4
:100E940082E5839400F58330E70390000015F01297
:100EA4005F99021227B4061A75F0D21213D575F0A1
:100EB400D4120FE975F0D212101975F0D4407B02E8
:100EC4000FE3B4071E75F0D5125EACE582B41E05BF
:100ED40075F0D6801F15F01213D575F0D6120FE9F0
:100EE400020FE3B4085975F0D5125EACE582B41E66
:100EF4003575F0D7125EACE5824583602615F0E5C2
:100F040082C320120494018002940AF582E583943A
:100F140000F58320E7074582600302122490000055
:100F2400021224020DC715F01213D575F0D7120F53
:0F0F3400E975F0D512101975F0D7402F020FE3B1
:100F4300B4020575F0C08039B41E0575F0C4803154
:100F5300B41F2075F032125FC415F0C3E58294010B
:100F6300F582E5839400F583458270028075125FF4
:100F7300998070B4200575F03380DBB4031B75F0E2
:100F8300C2125EAC15F0C3E5829401F582E5839449
:100F930000F58345827049804A1213D185F04E12C1
:100FA3005EACC3E5829544F582E5839545F583857B
:100FB300834585824475F0BF125EACE58275F0040B
:100FC300A42446F5F085444F854550784F125BF6CF
:100FD300EF20E70F4E600C854583854482854EF0F4
:100FE300125FA8021227125EAC15F07801301204CA
:100FF300C212780AC3E5829544F582E5839545F5E7
:10100300834009D8EF85834585824422900000857B
:10101300834585824422858345858244125EACE5FF
:101023008275F004A42446F5F085444F8545507835
:101033004F125BF6EF854583854482A2E722C212F5
:10104300900007E0B44302D212900008121E8FB43E
:10105300052B75F0D21213D575F0D3125EAC15F0D3
:10106300301203122037E5822544F582E5833545A6
:10107300F583500390FFFF125FA8021227B4194BA8
:1010830075F0471213E275F0F1125FC415F03012D8
:1010930003122037E5822544F582E5833545F58340
:0210A3005003F8
:1010A50090FFFF125F99858234858335783475F01A
:1010B50046125BF68F838E8275F0EDE54EB41A030A
:1010C50075F0EE125F99021227B41A0B75F04712EC
:1010D50013E275F0F280B0B41B0575F0F38006B429
:1010E5001C2E75F0F4125FC47819301202787DE574
:1010F5008228F582E5833400F583C374FF958274F5
:101105000F95835003900FFF15F0125F9902122778
:10111500B4060C75F0D21213D575F0D402105EB476
:10112500073375F0D5125EACE582B41E1D75F0D699
:10113500125EAC15F07801301202780AE82582F5C6
:1011450082E5833400F58302122415F01213D57558
:10115500F0D602105EB4083475F0D5125EACE582A7
:10116500B41E1E75F0D7125EAC7401301204C212A3
:10117500740A2582F582E5833400F58315F00212A1
:101185002415F01213D575F0D702105EB402107550
:10119500F0C0125EAC15F0E582B4FF62021227B40E
:1011A5001E0575F0C48046B41F3575F032125FC454
:1011B50015F0E583B40307E582B4E702806475455D
:1011C50000754401125FC415F0E5822544F582E5FA
:1011D500833545F583500390FFFF125F998043B433
:1011E500200575F03380C6B4031C75F0C2125EACE1
:1011F50015F0E583B40307E582B4E702802475455D
:101205000075440180031213D1125EAC15F0E5821E
:081215002544F582E58335450F
:10121D00F583500390FFFF125FA8121EA575F0BF56
:10122D00125EAC85824E900008121E8FF552B4638B
:10123D001B755DFF755EFF755FFF7560FF7561FF67
:10124D007562FF7563FF7564FF020073B40112755B
:10125D00F0BF125EAC85824E75F0C3125EAC020318
:10126D0099B4022175F0C0125EACAF83AE829001CD
:10127D0000D23D1250A0121EA59001057429F075E3
:10128D002D06020453B4030575F0C280DAB41E05B1
:10129D0075F0C480D2B41F0875F032125FC480CAD5
:1012AD00B4200875F033125FC480BFB404189001E8
:1012BD00087420F075F0BF125EAC85824E75F0C1DA
:1012CD00125EAC020399B40511D20375F0D2125E11
:1012DD00AC85824E75F0D30213C5B41912754E004C
:1012ED0075F0F19001087420F0125FC4020399B4F7
:1012FD001A12754E0075F0F29001087420F0125F0D
:10130D00C4020399B41B0575F0F38006B41C2E7549
:10131D00F0F4125FC4A983A882900458E9F0A3E801
:10132D00F01259B190045AE0FEA3E0FF900102744F
:10133D00521253F27429F0752D08020453B4060E9F
:10134D0075F0D2125EAC85824E75F0D4806AB4070A
:10135D004075F0D5125EAC85824E75F0D6E582B43F
:10136D001E2D125EACAE83AF82900102742BF07411
:10137D0040A31253F290010375F003E0B4200374FF
:0C138D0030F0A3D5F0F5900107742EF0AD
:101399000203BB8027B4081575F0D5125EAC75F051
:1013A900D785824EE582B41E0280BB800FB4090C3A
:1013B90075F0BF125EAC85824E75F0C1900108745C
:1013C90020F0125EAC020399F975F0BF125EACE52C
:1013D9008275F004A42447F5F0125EAC8583158567
:1013E900821415F015F0125EACC3E5149582F8E588
:1013F900159583C001F97A00754700754600754552
:10140900FF7544FF125D2BD00175F0C1B901037559
:10141900F0C322900008121EB6121EA58F838E8279
:10142900E0FFA3E0F87E007430900102C00012537F
:10143900F2D0007420F01214A9A37E00850007746D
:10144900301253F27420F01214A97429F07549006E
:10145900A385822DD29922020079900008121EB626
:10146900EF70F4121EA5850601E7FF09E7F87E0073
:101479007430900102C0001253F2D0007420F012AF
:1014890014A9A37E0085000774301253F27420F06A
:101499001214A97429F0754900A385822DD29922C5
:1014A900C082158215821582E0B4200B7430F0A336
:1014B900E0B420037430F0D082220808121EB6E28C
:0D14C900B4201CEF70198E4E08121EB6E202
:1014D600B429028003B4220AA94EA70609A7070267
:1014E600009A020079900008121EB678009001005A
:1014F6001220B204F0A37403F0A374C0F0A37DC05D
:10150600C083C0828EF0EF7005125EAC800BB40112
:1015160005125FC48003125FD18582F0E583D08215
:10152600D083F0E5F0A3F0A3EE2401FEEF3400FF34
:10153600DDCE754900752DC5D2992202007990003D
:1015460008121EB685070185060090000D121EB60C
:10155600121EA589027900C001C006E975F008A42B
:101566002406F5827583017430F00582F01582C079
:1015760082C083E8F5F0EA7005125EAC800BB40118
:1015860005125FC48003125FD108E870010A09855D
:1015960083F07E00AF827430D083D082C0F0C00268
:1015A6001253F2D002D0F07420F01215EFA37E0091
:1015B600AFF07430C0021253F2D0027420F012154C
:1015C600EFD006D00109EEB5018D7429F0754900FA
:1015D600A385822D9001027430F0A37430F0A374B9
:1015E60054F0A37420F0D29922C082158215821578
:0715F60082E0B4200B743009
:1015FD00F0A3E0B420037430F0D0822290000D12DD
:10160D001EB68E4E900011121EB68E4F900008120F
:10161D001EB68EF0EF854E83854F828F4E8E4F70A6
:10162D0005125FA88026B4011DE5F0B43009E583ED
:10163D0030E70EC24F800AB43107E58330E702C2AE
:10164D004E125F998006B4024C125A8DAF4EAE4FBA
:10165D00900101D23D1250A075F031125FC47F0090
:10166D00AE82900106D23D1250A075F031125FC4CA
:10167D007F00AE8390010BD23D1250A074209001DB
:10168D0006F090010BF09001107429F0752D1112D8
:10169D001EA502045302007908E2B4201608121E9A
:1016AD00B6E2B429028003B42209EF7006EEF51BF1
:1016BD0002009A020079900008121E8F14B41E00C9
:1016CD005035D202F5F0900007C205E0B44302D2C6
:1016DD0005E5F075F004A42445F5F0125EACC3E504
:1016ED0082200504940D80029482F582E583940096
:1016FD00F58315F0125FA8020073900008121E8F7B
:10170D0014B41E005032D202F5F0900007C205E06D
:10171D00B44302D205E5F075F004A42445F5F012AA
:10172D005EAC740D30050274822582F5827400352D
:10173D0083F58315F0125FA8020073900008121E46
:05174D008F14B41E0022
:10175200501FD20275F004A42444F5F0125EACC30B
:10176200E5829401F582E5839400F58315F0125F1A
:10177200A8020073900008121E8F14B41E00501E9F
:10178200D20275F004A42444F5F0125EAC74012573
:1017920082F58274003583F58315F0125FA802008A
:1017A2007302016D1217EE40F82400F5F0125FA8E3
:1017B20085504E02187A1217EE40E62401F5F01217
:1017C2005FA885504E02187A1217EE40D424A6F56F
:1017D200F0125F9985504E02187A1217EE40C22419
:1017E200A7F5F0125F9985504E02187A9000081200
:1017F2001E8F401CB41F0B14F55090000C121CE3FA
:10180200800914F55090000B121D4BE55023C322A2
:10181200D322900008121E8F404BF54E901B2C12C3
:101822001B0DE54E75F004A42446F5F0754F0075C6
:101832005000784F125BF6900102C009854E0912E2
:1018420050A0E54E75F004A42446F5F0754FFF75DF
:1018520050FF784F125BF69001091250A0752D10BF
:10186200D00902045302016D0219EA02016D9000CF
:1018720008121E8F40F5F54E901B2C121B0DE54EE3
:10188200B41EE575F03C125EACAF83AE82900102ED
:10189200D23D1250A075F03D125EACAF83AE829085
:1018A2000108D23D1250A075F0E2125FC4AF83AEC0
:0918B2008290010ED23D1250A0FB
:1018BB0075F0E3125FC4AF83AE82900114D23D1278
:1018CB0050A07F007E0090011AD23D1250A07F0BDA
:1018DB007EB8900120D23D1250A0900107742EF0DB
:1018EB0075820DF0758213F0758219F075821FF0F9
:1018FB00758225F075F0C2125EACAF83AE8290019B
:10190B002FD23D1250A075F0C0125EACAF83AE82E9
:10191B0090012BD23D1250A075F0C3125EAC75F046
:10192B004E85835085824F784F125BF6900126C00F
:10193B00097509021250A0D00975F0C1125EAC7581
:10194B00F04E85835085824F784F125BF6900134B1
:10195B00C0097509021250A0D00975F0D4125EAC03
:10196B0075F04685835085824F784F125BF6900158
:10197B003BC0097509001250A0D00975F0D5125E55
:10198B00ACE582B41E1A75F0D7125EACAF83AE8293
:10199B00900142D23D1250A0900147742EF080214D
:1019AB0075F0D7125EAC75F04685835085824F7803
:1019BB004F125BF6900142C0097509011250A0D07D
:1019CB0009742090012CF0900130F090013AF090C6
:1019DB000141F09001487429F0752D4902045379A7
:1019EB009C7700121A41799CE775F006A42402F546
:1019FB0082758301C009854E091250A0D009799CCC
:101A0B0007B705DF900000121A6590011AC009850F
:101A1B004E091250A0D00990FFFF121A65900120B9
:051A2B00C009854E0911
:101A30001250A0D0099001267429F0752D270204B8
:101A400053799CE720E10FF9E54EC333240029F5D3
:101A5000F0125EAC800F5401F9E54EC33324A62981
:101A6000F5F0125FC485824F858350E54E75F00412
:101A7000A42446F5F0784F125BF622900008121E5F
:101A80008F75F0D2600375F0D5125EACE582F5502B
:101A9000B41E1290000C121EB68F838E8275F0D683
:101AA000125FA880402400F5F0125FC4E582540361
:101AB000FA6015900010E0C5F01582E0C5F0F00561
:101AC00082E5F0F01582DAEE90000B121D4B9000CB
:101AD00008121E8F75F0D3600375F0D68545838597
:101AE0004482125FA8020073900008121E8F78AC27
:101AF0001246AC12600DF456F6020073E0F5F0C326
:101B000094304008F5F024F64002E5F022C2AF75AB
:101B1000A75590010005A7E493B42907F075A70025
:101B2000D2AF22B45803E08001F080EB3C282020A3
:101B30002020202020202020202020293C28303058
:101B4000204943203031293C283030204354203074
:101B500058293C283030205252293C28585858588F
:101B6000582E20202020293C2830302043487E7EDB
:101B700020434C293C2858585825303030302020FC
:101B8000294620202043202020505349474B5061B4
:101B90002052504D204867202042415220202020D2
:101BA000205053494179FFE0B4441AA3E0B4430301
:101BB000791122B45103791522B45A03791B22B446
:101BC0005302791D22B44108A3E0B44302792022D4
:0F1BD000B45A08A3E0B45802791F22B4491AA3EB
:101BDF00E0B44303791022B45103791422B45A03A9
:101BEF00791C22B45302791E22B4430EA3E0B454DD
:101BFF0003790F22B44202791A22B44808A3E0B441
:101C0F00440D790422B468257448F0D21280EEB4E2
:101C1F004903790322B45414A3E0B42003790822B2
:101C2F00B44903790B22B444FD790C2222B44C0839
:101C3F00A3E0B4440D790222B46C24744CF0D21298
:101C4F0080EEB44903790122B45413A3E0B4200207
:101C5F007907B44903790922B44403790A2222B4DB
:101C6F005232A3E0B44403790022B4480379052229
:101C7F00B44C03790622B45203790D22B45603797A
:101C8F001222B45103791322B44D03791622B445AD
:101C9F0002791722B44608A3E0B44102790E22B4A8
:101CAF00570CA3E0B44D027918B445027919B44C1E
:101CBF000A7921A3E0B44302792322B4480A792296
:101CCF00A3E0B443F5792422B45803792522B44A0A
:101CDF00E9792622121AFC405C7B037AE87900F836
:101CEF00125DF18C4E8D4FA3E0B42E09A3800675C3
:021CFF004F0094
:101D0100754E00121AFC403B75F064A4254EF54E49
:101D1100E5F0354FF54FA3E0B42E01A3121AFC40B4
:101D21002275F00AA4254EF54EE5F0354FF54FA387
:101D3100E0B42E01A3121AFC4009254EF54E5002C3
:101D4100054FC3854F83854E8222858352858251FB
:101D5100E0B42B04D23B800BB42D04C23B8004D3EE
:101D6100021E8EE5502400F5F0125FC48582F085D5
:101D71005283855182E5822405F582E5833400F59D
:101D810083E58295F0F58250021583E0B42ED0856B
:101D91005283855182A3121EB68E4E8F4FE5507528
:101DA100F004A42446F5F0125EACE58330E723206D
:101DB1003B2EE54E7006E54F700280A3E54E25826D
:101DC100FCE54F3583FDEC7005ED70028012401E7D
:101DD100800E303B19C3E54E9582E54F9583400E49
:101DE100E5822410F510E5833427F5118003021DE7
:101DF10060125EACE58330E70F203BF2E54E2582B1
:101E0100E54F358340E8800E303B0BC3E582954EAC
:101E1100E583954F40D8E5822410F512E5833427F8
:101E2100F513E54E2410F551E54F3427F552C3E57E
:071E3100129510F582E51384
:101E38009511F583C3E5519510F546E5529511F5D1
:101E480047203B1AC3E546954EF546E547954FF5BD
:101E580047C3E546954EF546E547954FF547E58373
:101E6800B5470DE582B546087545FF7544FF800FF7
:101E78007A00A983A882754500754400125D2B85F8
:101E88004583854482C322121AFC401075F00AA4C7
:101E9800F54EA3121AFC4004254EF54E229001007F
:101EA800743CF0A37428F022E208B429FB227E00D7
:101EB8007F00C21BE0B42B03A38006B42D03D21B02
:101EC800A3E0B42E028020C39430401EFD940A5033
:101ED800198EF0740AA4FEACF08FF0740AA42CFFDB
:101EE800EE2DFEEF3400FFA380D7201B0122EEF475
:101EF8002401FEEFF43400FF22E208B42202800637
:101F0800B429F674FF2208121EB6C3EE9577CF9552
:101F1800784F22121EB67B007A10A907C000A806C7
:101F2800125DF1D00022C010C011C012C013121DE2
:101F38004BD013D012D011D010E5502400F5F01278
:041F48005FC4E5830A
:101F4C00543FC39402405D94025059E5837A007962
:101F5C0008781790572D75F07C30E00A7907789F38
:101F6C0090583175F07EC0F0754700854546854424
:101F7C0045754480125D2BE5442452F544E5453407
:101F8C0008F54578447944125D70D000C3E5449659
:101F9C00F54408E54596F545E5442410F544E5453A
:101FAC003427F54585458385448222758300854910
:101FBC0082E022758300854982F022758301854970
:101FCC0082E022758301854982F0221220B2F5F05D
:101FDC00900003E0C39430B5F048900005121EB693
:101FEC00900400122031900009121EB690040412C5
:101FFC00203190000D121EB6900408122031900072
:10200C0011121EB6900402122031900015121EB649
:10201C00900406122031900019121EB690040A1278
:10202C002031020073EFF0A3EEF022C2127809AA5D
:10203C0045A944E54429F544E5453AF545D8F4224B
:10204C0090000A121EB6EEF54E90000C121EB6EE63
:10205C00F54F90000E121EB6EE0303424EE55024CF
:10206C0000F5F0125FC4E54EB58339E54FB5823407
:10207C00900010121EB6E55023232446F5F0125E94
:09208C00ACEEB5821FEFB5831B19
:10209500900017121EB6E55023232447F5F0125E73
:1020A500ACEEB58206EFB58302C322D322A280929D
:1020B500E0A28192E1A28292E2A28392E3F4540F1C
:1020C5002202217A75F0F4125FC485834585824426
:1020D50075F0F3125FC4C3E5449582E545958350D9
:1020E500E075F0F3125FC4C3E5FB9582E5FC9583CB
:1020F50040087544FF7545FF804A75F0F4125FC4CA
:10210500C3E5FB9582E5FC9583500875440075454C
:1021150000803175F0F4125FC4AB83AA82C3E5FB7E
:102125009582F546E5FC9583F547754500754400B0
:1021350075F0F3125FC4C3E5829AF8E5839BF97ADB
:1021450000125D2B75F0E9125FC4AA82AB8375F0AE
:10215500EA125FC4C3E5829AE5839B4017E5828A4C
:1021650082FAE5838B83FBC374FF9544F54474FFC2
:102175009545F5452275F0F3125FC4C3E5FB9582DD
:10218500E5FC95835008754400754500804A75F057
:10219500F4125FC4C3E5FB9582E5FC9583400875A1
:1021A50044FF7545FF803175F0F3125FC4AB83AA18
:1021B50082C3E5FB9582F546E5FC9583F5477545B4
:0B21C5000075440075F0F4125FC4C305
:1021D000E5829AF8E5839BF97A00125D2B75F0E9A8
:1021E000125FC4AA82AB8375F0EA125FC4C3E582B2
:1021F0009AE5839B400CE5828A82FAE5838B83FB18
:10220000800DC374FF9544F54474FF9545F5452250
:10533000D21FC21DC21E30E720CE20E70BCE30E3C5
:1053400018CD742BF2CD800DF4CFF42401CF3400AE
:10535000CE742DF2CD08C39410F95470C4FC7407B8
:1053600059B40705D21CE4800360011CF97A107B54
:1053700027740512539B7AE87B03740412539B7ABB
:10538000647B00740312539B7A0A7B0074021253ED
:105390009B7A017B00740112539B228CF0B5F002C2
:1053A000D21D89F0B5F008CD742EF2CD08C21F30A1
:1053B0001E07301D327423803615E0B5F002C21F7F
:1053C00075F000C3EFFD9AFFEE9B4007FE05F0C2AB
:1053D0001F80F0EDFF301D0A301F0D201C0A7420C5
:1053E000800D201F02D21E22301DF7743025F0F2EE
:0253F000082291
:1053F200D21FC21DC21E30E720CE20E70BCE30E303
:1054020018CD742BF0CD800DF4CFF42401CF3400ED
:10541200CE742DF0CDA3C39410F95470C4FC74075C
:1054220059B40705D21CE4800360011CF97A107B91
:1054320027740512545D7AE87B03740412545D7A72
:10544200647B00740312545D7A0A7B007402125466
:105452005D7A017B00740112545D228CF0B5F0027A
:10546200D21D89F0B5F008CD742EF0CDA3C21F3045
:105472001E07301D327423803615E0B5F002C21FBC
:1054820075F000C3EFFD9AFFEE9B4007FE05F0C2E8
:105492001F80F0EDFF301D0A301F0D201C0A742002
:1054A200800D201F02D21E22301DF7743025F0F02D
:0254B200A32233
:1056A000C3E5169512FAE5179513FB4029C3E514D7
:1056B0009510F8E5159511F9401C7F007E007D10CE
:1056C000E9A2E712570EDDF87D08C312570EDDFA86
:1056D000C312570E8002D322E913F9E8133400F8FD
:1056E000E93400F9AB13AA12125DF1EC240FED348A
:1056F00000FCEE3400FDEF3400FEC3E5109CF51015
:10570000E5119DF51174009E340070CAC322EE337A
:10571000FEEF33FFB392D1C3EE9AF5F0EF9B82D147
:0D5720004003FFAEF0B3E833F8E933F9229F
:105BF60005F0125EACAA82AB8315F015F0125EAC0E
:105C0600C3EA9582FAEB9583FB0886011886001293
:105C16005DF1ED33E43EFEE43FFFE5822EFEE583D3
:105C26003FFFE58320E70650047EFF7F3FC374F005
:105C36009E74D89F400DC3740F9E74279F50047F97
:045C4600277E0F2284
:1039B700304C0122E5097045E52BB4024075F0F55E
:1039C700125FC4E582B40F35E583B42730A23C7299
:1039D70045723A502575F0C5125EACE582B40F0703
:1039E700E583B427028013125A25C24FC00975090F
:1039F70000124DF5125BA0D00922023AA4A23C7234
:103A070045723A504FE509701BE52BB40216125266
:103A17006775F0C5125EACE582B40F08E583B4277D
:103A270003803122E50975F0C5600375F0D8125E91
:103A3700ACE582B40F07E583B427028017E5097068
:103A470006125A25C24F22E52BB4020280051252F4
:103A570067C24E22E509706EE52BB4026975F0D98D
:103A6700125EACE582601CC3E543943CE5429400DA
:103A77004052E568A2E1B39254205321305447D213
:103A870053801A75F0F6125FC47B007A3CA983A8AD
:103A970082125DF1C3E5439CE5429D4029A23C7239
:103AA70045723A501075F0F5125FC4E582B40F16EF
:103AB700E583B42711C009750900124DF5125BA003
:103AC700D0098002C253304341E540453F70087931
:103AD700AA7401F709E4F775F0CF125EACE58275B9
:103AE700F03CA4F58285F083C24DC3E58279AA979D
:093AF70009E58397401475F0DB2A
:103B0000125EACC3E5829540E583953F5002D24DED
:103B100022E509701275F031125FC4E58320E707D2
:103B2000540FF51D85821CC24BE509702CE56830E9
:103B3000E71175F04F125FD1E582540FB40404D23F
:103B40004B8049E56D30E73D75F04F125FD1E5835D
:103B5000540FB40530D24B803BE56930E01175F06D
:103B600050125FD1E58254F0B44004D24B802DE571
:103B70006E30E01175F050125FD1E58354F0B4500F
:103B800004D24B801FE509701030230575F0C78003
:103B90001630222975F0C6800E30270575F0BE80DC
:103BA0000630261975F0BD125EAC858345858244CA
:103BB00090042AE545F0A3E544F0023D20E509B470
:103BC000024A75F0D6125EACC3E5829554F582E5E3
:103BD000839553F583AF83AE8230E70BEFF4FFEEAE
:103BE000F42401FE50010F75F0D7125EACC3E582DC
:103BF0009EE5839F501575090275F0D6125EACAF35
:103C000083AE82855313855412803E2275F0D2E52F
:103C100009600375F0D5125EAC8582F0781E7404DD
:103C2000A42446F5F0F547125BF68F138E1275F05B
:103C3000D3E509600375F0D6125EAC8583458582B5
:103C4000448547F07844125BF6EF4E70047F007EA7
:013C50000172
:103C51008F158E148F118E10E514240FF514E515B0
:103C61003427F515E512240FF512E5133427F51362
:103C7100C3E5149512F514E5159513F515920E503B
:103C810010E515F4F515E514F42401F514500205B9
:103C910015A814A9157A807B0C125DF18F478E4609
:103CA1008D458C447A00A911A810AD11AC10125D9C
:103CB1002BE54645477005E54530E70675457F75B7
:103CC10044FF300E10E545F4F545E544F42401F5D3
:103CD100445002054590042AE545F0A3E544F075FA
:103CE100F0D4E509600375F0D7E509B40202802F2D
:103CF100125EAC8582448583458509F07404A42451
:103D010046F5F07844125BF6C3E5149EE5159FC2B3
:103D110019500C751A34D219789D7633024BD67529
:103D2100F0DC125EACE582900428F0123D4E501A90
:103D3100125DC41233EAE52C30E704532C7F229044
:103D41000424E0FFA3E0FE1248CC22807C75F0F948
:103D5100125FC4E582B401F360F175F0FD125FC436
:103D6100AF83AE82C3E5759582E576958340527542
:103D7100F0DC125EACE58230E11520E20990042A04
:0D3D8100E020E745801C90042AE030E73C7C
:103D8E00801320E20990042AE030E7308007900487
:103D9E002AE020E727EFB5760AEEB57506789D7610
:103DAE00338019E52C30E10CC3E5759EE5769F4016
:0E3DBE00031241E1125F24125BA0C322D32244
:104AA80075F0C9125EACE582A2E2920DA2E1920C09
:104AB800C2094005300D078003200D02D2093022BB
:104AC800117545C0754400C20EC20CA209920D02B0
:104AD8004BCA30230F7545C0754400C20EC20C92F4
:104AE8000D024BBC781E8509F07404A42446F5F029
:104AF800F547125BF68F138E12E51320E704451273
:104B0800700675130075120175F0C3125EAC8583CB
:104B1800458582448547F07844125BF68F158E14DC
:104B28008F118E10C3E5149512F514E5159513F53C
:104B380015920E5010E515F4F515E514F42401F559
:104B4800145002051575F0C1125EAC858345858247
:104B5800448509F07404A42446F5F07844125BF601
:104B6800C3E5149EE5159F5005751A348060A81496
:104B7800A9157A647B00125DF18D478C4675450056
:104B8800754400125DD8A983A882AA10AB11125DE2
:104B9800F17A00A905A804125D2BE5464547600691
:104BA8007545FF7544FF300E05300C058011300C3B
:104BB8000E202117751A30430801124C26800C204C
:104BC8002009751A31430802124C1E12561222EEA1
:104BD8002575F575EF3576F576C3E5759582E57635
:0F4BE8009583400785827585837622D21422C378
:104BF700E5759EF575E5769FF57650067575007532
:104C07007600C3E5759582E57695835007858275AD
:104C170085837622D2152275F032125FC48006751D
:104C2700F0C4125EACAB45AA44A983A882125DF119
:104C37008E378F38E5387011E537B40200400A74B3
:0A4C4700012537F537500205382229
:0C5FEB008F018E007B067A4A125DF122C5
:105E85008F018E007B007A10125DF18D458C447870
:105E95004475F042125BF622125EACAB45AA44A9EA
:075EA50083A882125DF122C7
:105F6500EC2525F525ED3526F52650067525FF7515
:035F750026FF22E2
:105F3E00C3E5259CF525E5269DF52650067525001D
:045F4E007526002292
:105F2400791CAF76AE75D375F0F7125B48E51D5456
:0A5F3400F06006751CFF751D0F22BA
:105BA000125DB1500685831D85821C851DFC851CF8
:105BB000FBAF1DAE1C125E8575F0E6125FC4C3EE2E
:105BC0009582EF9583E56992E0F56975F0E7125FDC
:105BD000C4C3E5829EE5839FE56E92E0F56E900278
:105BE00000742075F006A42582F582C0097509208D
:065BF0001250A0D00922B2
:10561200A2B692E0A2B792E1A2A092E2C0E0125634
:1056220032D0E0A2E092B6A2E192B7A2E292A02228
:1056320075F0E8125FC4E583B42707E582B40F0270
:10564200800EE5564557C36001D3E50892E4F5089C
:1056520075F0DC125EACE58230E608E508A2419204
:10566200E6F508E58230E0115308DF78ACE608463B
:105672000846084660034308207800E8A2E092B694
:10568200A2E192B7A2E292A012600D5508C2A160F7
:0E56920002D2A1D2A2C2A2D2A208B808DE2281
:1048CC00E509700302495575F0F9125FC4E582B42D
:1048DC00020F8FFC8EFB8F1D8E1C1220C9125BAB3E
:1048EC002275F050125FD1E58254F0B44020C0071D
:1048FC00C00675F0E6124A66D006D007C3E5449EA2
:10490C00E5459F204B084006AF45AE44802B75F023
:10491C0050125FD1E58354F0B4501EC007C0067529
:10492C00F0E7124A66D006D007C3E5449EE5459FE2
:10493C00204B065004AF45AE44125DB15004AF831A
:10494C00AE828FFC8EFB0249FFC217C21675F0DCDB
:10495C00125EACE58220E212EF4E7002D217EFB479
:10496C000F18EEB4FF14D2168010EF4E7002D21650
:10497C00EFB40F06EEB4FF02D21775F04F125FD1F1
:10498C00E582540FB40429C007C00675F0E4125F29
:10499C00C4AB827A0078F37928125DF1D082D0838F
:1049AC00C3E5829EE5839F204B02403AAF83AE82E3
:1049BC0075F04F125FD1E583540FB40529C007C0C1
:1049CC000675F0E5125FC4AB827A0078F379281291
:1049DC005DF1D082D083C3E5829EE5839F204B029C
:1049EC005004AF83AE82125F525004AF83AE828FFD
:1049FC00FA8EF9E5097025125FEB75F0E4125FC4CD
:014A0C00EEBB
:104A0D00C39582E56892E7F56875F0E5125FC4E538
:104A1D0082C39EE56D92E7F56D8029125E8575F076
:104A2D00E6125FC4C3EE9582EF9583E56992E0F5DA
:104A3D006975F0E7125FC4C3E5829EE5839FE56E5D
:104A4D0092E0F56E900200741F2509F50975F006C8
:104A5D00A42582F5821250A022125FC4A983A882D8
:104A6D0075F042125EACC083C082C3E89582FAE94C
:104A7D009583FB790F78FF125DF18F478E468D453B
:104A8D008C4475F043125EACD006D007C3E5829E10
:0B4A9D00F8E5839FF97A00125D2B22E0
:104DF500E509600122124F1775F031125FC4E58392
:104E050020E708540FF9A882024EB4E52C20E101F1
:104E15002275F0F1125FC4C3E51E9582E51F9583E7
:104E2500500D75F0F3125FC4A983A882024EB475C4
:104E3500F0F2125FC4C3E51E9582E51F9583400C11
:104E450075F0F4125FC4A983A8828063781E75F09B
:104E550046125BF6900454EFF0A3EEF075F0ED12F8
:104E65005FC4AF83AE82900450EFF0A3EEF075F00F
:104E7500EE125FC4AF83AE82900452EFF0A3EEF062
:104E850075F0F3125FC4AF83AE8290045CEFF0A3BC
:104E9500EEF075F0F4125FC4AF83AE8290045EEF5E
:104EA500F0A3EEF0124C51900456E0F9A3E0F8E9B6
:104EB50054F06004790F78FF900458E0FCA3E0FDFE
:104EC500C3E89CFEE99DFF7A0030E70D7A01F4FF07
:104ED500EEF42401FEEF3400FF124F0EC3EC9EEDFD
:104EE5009F5019124F0EEA700AE51C2CF8E51D3D7E
:0A4EF500F98009C3E51C9CF8E51DD7
:104EFF009DF9900458E8F0F51CA3E9F0F51D2290F8
:104F0F00045AE0FCA3E0FD2275F0F4125FC4AB83FA
:104F1F00AA8275F0F3125FC4C3EA9582FAEB958308
:104F2F00FB30E70BF4FBEAF42401FAEB3400FB79D6
:104F3F00007809125DF18F478E468D458C4475F0D0
:104F4F00EA125FC4A983A88275F0E9125FC4C3E8AF
:104F5F009582F8E99583F930E70BF4F9E8F4240129
:104F6F00F8E93400F97A00125D2B90045AE544F009
:074F7F0090045BE545F02200
:105F520075F030125FC4E58320E706540FF583D352
:035F620022C32235
:105DB10075F031125FC4E58320E706540FF583D3F4
:105DC10022C322E50975F030600375F031125FC41A
:105DD100E583A2E7924922300E05300C05800A3096
:105DE1000C0775F0C2125EAC2275F033125FC4224B
:1046B7006577F5F09047CC936578F577E5F0904608
:1046C700CC93F5782200C0C101C30302C2C6060716
:1046D700C705C5C404CC0C0DCD0FCFCE0E0ACACB6F
:1046E7000BC90908C8D81819D91BDBDA1A1EDEDF6F
:1046F7001FDD1D1CDC14D4D515D71716D6D21213FF
:10470700D311D1D010F03031F133F3F23236F6F75E
:1047170037F53534F43CFCFD3DFF3F3EFEFA3A3BAE
:10472700FB39F9F83828E8E929EB2B2AEAEE2E2F8E
:10473700EF2DEDEC2CE42425E527E7E62622E2E33E
:1047470023E12120E0A06061A163A3A26266A6A77E
:1047570067A56564A46CACAD6DAF6F6EAEAA6A6BEE
:10476700AB69A9A86878B8B979BB7B7ABABE7E7FEE
:10477700BF7DBDBC7CB47475B577B7B67672B2B37E
:1047870073B17170B050909151935352929656579E
:1047970097559594549C5C5D9D5F9F9E5E5A9A9B2E
:1047A7005B99595898884849894B8B8A4A4E8E8F0E
:1047B7004F8D4D4C8C4484854587474686824243BE
:1047C700834181804000C1814001C0804101C08098
:1047D7004100C1814001C0804100C1814000C181C9
:1047E7004001C0804101C0804100C1814000C181BA
:1047F7004001C0804100C1814001C0804101C080AB
:104807004100C1814001C0804100C1814000C18198
:104817004001C0804100C1814001C0804101C0808A
:104827004100C1814000C1814001C0804101C08079
:104837004100C1814001C0804100C1814000C18168
:104847004001C0804101C0804100C1814000C18159
:104857004001C0804100C1814001C0804101C0804A
:104867004100C1814000C1814001C0804101C08039
:104877004100C1814001C0804100C1814000C18128
:104887004001C0804100C1814001C0804101C0801A
:104897004100C1814001C0804100C1814000C18108
:1048A7004001C0804101C0804100C1814000C181F9
:1048B7004001C0804100C1814001C0804101C080EA
:0548C7004100C1814029
:0B5FF70030332F31362F313720313589
:0B60020030332F31362F313720333080
:0D5FC400C0A8C2AF75C70075C680025EB6EA
:0D5FD100C0A8C2AF75C70175C600025EB65C
:105EAC00C0A8C2AF75C70075C600125ADD4009857F
:105EBC00BC8285BD83025AD885BE8285BF83025AB7
:015ECC00D8FD
:0E5FA800C0A8C2AF75C60075C700E4025A99C2
:0F5F9900C0A8C2AF75C68075C7007401025A99BF
:105A8D00C0A8C2AF75C60075C701740230021EC230
:105A9D0002C082C083C082C083900360F0A3E5F092
:105AAD00F0D0E0A3F0D0E0A3F0D083D082D2467541
:105ABD005803125ADD40088582BC8583BD8006855A
:105ACD0082BE8583BF75B90575B90205F0D0A822D0
:105ADD00E5F0C313C0D025C6F5C675B901D0D022E7
:105CE300783F125FB67853125F09C2D1E54730E7B8
:105CF30005D2D1125ECDE547700BE5467007E54549
:105D0300B43000400274302323F475F01AC5F0F464
:105D130004A4E5F0F4F81254B420D103125ECD7854
:085D23003F125EEE126018222F
:105AED00E0F5F0E7C395F0FE058209E0F5F0E795E6
:105AFD00F0FF5019158219E0C397FE058209E09752
:105B0D00FF125B25C39CF00582E09DF022125B2500
:105B1D002CF00582E03DF0227D008AF0EEA4ACF081
:105B2D0030E707EC2401FC70010D8AF0EFA42C5036
:0B5B3D00010DFCED25F0FD1582E022BB
:10518A00C2AF43AF017581BF75C00075C700758096
:10519A00DF75A0C075B03FC2A678FF7600D8FC9034
:1051AA000000E4F0A3E583B404F875EFEC740D1283
:1051BA00447375FD1F125A25125267758911758B32
:1051CA0005758D00D2B475740275985075CBFF754C
:1051DA00CAB875C834D201789D76337532FF75F036
:1051EA00DA125EAC85822CD28CD28ED2ACD2A9D203
:1051FA00B990036074FFF0D2A37400A2E292B6A23F
:10520A00E392B7A2E492A004D2A1C2A300D2A3B4AB
:10521A0080E9C24FC24E75F0F3125FC4A983E582DA
:10522A00900458F0A3E9F0125E59D23A124218409B
:10523A000A12422B124243D257D256D2AF308FFDB6
:10524A00758B00758D28C28F308FFD758B00758D1B
:0D525A0028C28FB2B5122B49308FE080DEE4
:105A2500125F52401575F0C5125EAC7400C39582C5
:105A35007410C395835003900000858326858225C5
:105A4500AF26AE258FFA8EF9125FEB75F0E4125F83
:105A5500C4EEC39582E56892E7F56875F0E5125FD7
:105A6500C4E582C39EE56D92E7F56D7F0090020067
:105A7500741F75F006A42582F582C00975091F12E9
:085A850050A0D00912561222B4
:10526700124F1775F0F9125FC4E582B4022D125D73
:10527700B15002801375F0F5125FC4E582B40F08D0
:10528700E583B4270390000085831D85821CAF1D2D
:10529700AE1C8FFC8EFB1220C98029125DB150060F
:1052A700AF83AE82801A75F0D8125EAC85831D85F8
:1052B700821CAF1DAE1C75F0F9125FC4E582700445
:1052C7008FFC8EFB125E8575F0E6125FC4C3EE9508
:1052D70082EF9583E56992E0F56975F0E7125FC49F
:1052E700C3E5829EE5839FE56E92E0F56E9002002E
:1052F700742075F006A42582F582C009750920126D
:1053070050A0D00975F0F9125FC4E582B401167593
:10531700F0FC125FC4858376AF83858275AE8212F7
:095327005F24125BA01256122251
:105E590075580375F0D0125EAC858333E58320E76E
:105E69000ED2A8D288D2B8C2AAC28AC2BA800CD22B
:0C5E7900AAD28AD2BAC2A8C288C2B8223B
:105C9700C0E0C0D07401253EF53EE43519F519E59D
:105CA70019B40400402F75530075540075550075DD
:105CB7003F00754000754100C208D201C246752EEB
:105CC70000752F00755803C204751900753E0075DD
:0C5CD7008C00758A25D28CD0D0D0E03231
:105C4A00C0E0C0D0E5586003D5582305307423B5A9
:105C5A003004D2118000C28C308D02053E8519189D
:105C6A00853E3B858C3C858A3D853031D200753036
:105C7A0000751900753E00758C00758A1D758A00BD
:0D5C8A00C28DD28CC289C28BD0D0D0E03246
:104F8600C200100104E558600302508C75F0D0127F
:104F96005EACE58353837F20E70890044C7404F0ED
:104FA600800690044C7480F0C28CC03DC03CC03B6F
:104FB600C018C031D28C900429D0E0F0900448D0BB
:104FC600E0F0A3D0E0F0A3D0E0F0A3D0E0F075F0DD
:104FD600D0125EAC53837FA983A882900446E9F081
:104FE600A3E8F012556B90043CE0F553A3E0F554AA
:104FF600125CE302508C900434E53FF0A3E540F0E8
:10500600A3E545F0A3E544F0125F8990043CE0F582
:105016003FA3E0F540806FC3E540940FE53F94273A
:105026004006753F2775400FE53F700AC3E540947B
:105036000F5003754000E52EC4FFAE2FEEC4540F8B
:105046004F252FFEE52E3400FFC3E5409EE53F9F2A
:10505600402C20462975F03D125EACE583C313F55E
:1050660083E58213F582C3E5409582E53F9583404B
:105076000D852F40852E3FD2467558038008C246BF
:10508600853F2E85402FAF3FAE40C00975091ED221
:0A509600389002B41250A0D0092295
:10572D0007710771077108920B2C0E5411F515F8BE
:10573D001A501EEC23C128C42DEB3331388E3DFC9D
:10574D00437848FC4E86541359A05F2E64B86A41C5
:10575D006FC8754C7AD0805485DB8B6690F9969620
:10576D009C3FA1F9A7C6ADA9B3A2B9B4BFE0C621AC
:10577D00CC78D2E0D955DFC9E635EC8FF2D4F903F8
:10578D00FF1BFFFFFFFFFFFFFFFFFFFFFFFFFFFF00
:10579D00FFFFFFFFFFFFFFFFFFFFFFFFFFFFFFFF0C
:0257AD00FFFFFC
:1057AF00026C027102BD0447057A0685077A085F0D
:1057BF00093A0A0D0AD90BA10C660D270DE60EA3A7
:1057CF000F5E101910D2118B124412FD13B5146D08
:1057DF00152615DF16981751180A18C4197D1A3790
:1057EF001AF11BAA1C631D1C1DD31E8A1F401FF517
:1057FF0020A8215A220A22B82365241024B8256034
:10580F00260526A9274C27ED288D292D29CB2A6A75
:10581F002B082BA82C482CE92D8C2E302ED62F7D23
:02582F00302621
:1058310000000E1A0EED1048121A145716F719EE41
:105841001D3220BA247928652C6E308C34B338D6B9
:105851003CED40F444F348F34CFB510E552B5951A8
:105861005D7D61AF65E56A1F6E5C729D76DF7B23AE
:105871007F6783A987EB8C2A9066949D98D19CFFC2
:10588100A127A54AA965AD7CB18BB594B996BD9206
:10589100C186C575C95CCD3DD116D4E8D8B2DC74DA
:1058A100E02DE3DDE784EB20EEB3F23BF5B9F92C13
:0258B100FC9762
:1058B300000000030007000B02D204DC065D07A50D
:1058C30008CD09E00AE70BE50CDE0DD50ECC0FC6BB
:1058D30010C311C312C413C214BE15B816AF17A553
:1058E3001899198D1A801B721C631D531E441F3493
:1058F30020242114220522F623E824DB25CE26C307
:1059030027B928B029A92AA32B9F2C9C2D9B2E9B1A
:105913002F9D30A131A732AE33B734C335D136E131
:1059230037F439093A223B3E3C5E3D813EA93FD4E0
:025933004042F0
:1050A000742BF0EF30E71175F02DC5F0F0C5F0F47A
:1050B000CEF42401CE3400FFA37AE87B03125173AF
:1050C0007A647B001251737A0A1251737A01125179
:1050D00073303D03C23D22742EF0E509B41E00403A
:1050E000047A008014C082C0832400F5F0125FC4EB
:1050F000E5825403FAD083D082303861C238C0834D
:10510000C082E50978AC125F7874624034E5092406
:10511000DFF5F0125EACE58230E509E5097865124D
:105120005F78401BE50924DFF5F0125EACE58330C3
:10513000E509E509786A125F7840047461800274B9
:1051400063D082D083F0E509785D125F78500EE578
:10515000097861125F785005E0C39420F0EA60128C
:10516000E0C5F01582E0C5F0F00582E5F0F01582AB
:10517000DAEE227C00C3EEFD9AFEEF9B4004FF0CAA
:0A51800080F3AE05EC2430F0A3220A
:10593500E9C0E0E6C908E6A2E7C975F00433C93352
:10594500A2E7C9D5F0F7F5F054F0F8740F55F02338
:10595500F5F090598FE5F093FD05F0E5F093FC0522
:10596500F0E5F00493FEC39CFAE5F093F5838E828F
:105975009DFB40048D838C82125DF1ED33D0E0F9FF
:10598500EE3582F709EF3583F72200001000202459
:105995002C2038244528507E5D3F6ADA790E8875BB
:0C59A50098EAAB22C0D2DFDBF000FFFF6D
:105D7000E9C0E0E6F908E6780023F5F0E5F093FDE8
:105D800005F0E5F093FC05F0E5F00493FEC39CFA02
:105D9000E5F093F5838E829DFB40048D838C821207
:105DA0005DF1ED33D0E0F9EE3582F709EF3583F799
:015DB00022D0
:102B490078B0E6600116A23C7245723A5020204CDA
:102B59001D75F0F9125FC4E582B4011275F0FC121B
:102B69005FC4858376858275125F24125BA0053266
:102B7900E532B46403753200300115C201AF3FAECE
:102B890040C00975091ED2389002B41250A0D0096C
:102B990030130AE5407023E53F701FC21375F0FD3D
:102BA900125FC4C3E5829540E583953F500C75F0EB
:102BB900F9E5827005754C03D20820402220181FC0
:102BC90020081C75F0FC125FC4C3E5829540E583BB
:102BD900953F500BD208754C01754A00754B00E5BD
:102BE9003845376022C3E5379401F537E538940055
:102BF900F5384537701175F0DC125EACE58230E5C9
:102C0900065308FC12561230070BD5740875740266
:102C1900120026C207E5326003022E5FA23C72450C
:102C2900723A5013E5564557600DC3E5569401F5C0
:102C390056E5579400F5571220B2703212442240DB
:102C49001412422BA23C7245723A500512429B80E3
:102C590004C312425B1244274014124243A23C723D
:102C690045723A50051242A38004D312425B304D9B
:102C79000B79AAE72401F709E73400F778A5E6F507
:0A2C8900F078A4E645F06021E6C3F0
:102C93009401F6F5F008E69400F645F0701175F02E
:102CA300DC125EACE58230E5065308FC125612E5F1
:102CB3004C602CB4012CE54A2401F54AE54B340061
:102CC300F54B75F0CF125EAC7B007A3CA983A882EA
:102CD300125DF1C3E54A9CE54B9D4003754C02022E
:102CE3002D64B40246E52C30E13FE52BB4013C757D
:102CF300F0FF125FC4E5822575F575E5833576F53A
:102D030076789D763275F0FD125FC4C3E5759582C2
:102D1300E5769583400D789D763385827585837638
:102D2300754C03125F24125BA08036E54CB403316B
:102D330078B0E6702C75F0DC125EACE58230E1050C
:102D430030161E8003301619204C16E52BB40111E2
:102D530020190EE52C30E109125E27125F24125B65
:102D6300A0752400789E76FF789F76FF78A276FF81
:102D730078A376FF7A0079007865EA125F7850428B
:102D8300EA24DFF5F0125EACE5824201EA2430F575
:102D9300F0125FD1E58230E212540312600DF5F0B8
:102DA3007824E645F0F6E582124660E58230E612C5
:102DB300C45403240412600D4224E582C454031254
:102DC30046870A7421B502B075F0DC125EACE58269
:102DD30020E70353087F30E5055308838003530836
:012DE300806F
:102DE400E942087A00A908786AEA125F78503CEA56
:102DF40024DFF5F0125EACE5834201EA2430F5F0FD
:102E0400125FD1E58330E20C540312600D4224E5D5
:102E140083124660E58330E612C45403240412602E
:102E24000D4224E583C454031246870A7421B50273
:102E3400B6E9420875F0C0125EAC0536E582B536D7
:102E44000280025005D20F753600E5432401F54394
:102E540050090542E54270037542FFE532B4630C44
:102E6400C218E51B6047151BD2188041B46000509E
:102E74003CE532540F75F003A4902E8173022ED7D3
:102E8400022ED7022ED7022ED7022ED7022ED70219
:102E94002ED7022ED7022ED7022ED7022ED7022EDD
:102EA400D7022ED7022ED7022ED70232E2300022CA
:102EB400124F8675F0D5125EACE582B41E1475F01F
:102EC400F9125FC4E582700AC0097509021239B7A4
:102ED400D00922751E00751F007810C2DFD2DC30C5
:102EE400DFFDE5D9251EF51EE5DA540F351FF51F64
:102EF400D8E9E509237583052400F582791E7AFD56
:102F04001220B27024E509B41A0FC083C08212449F
:102F140022D082D0834012802DB41B0DC083C08286
:102F2400124427D082D083501D303F1AE509C08354
:072F3400C0821224F4D082D8
:102F3B00D08350047A058007B4040050027A6412DF
:102F4B005AEDE509124473E509B41E061244FF025B
:102F5B0032BE232400F582758305E0FEA3E0FFE576
:102F6B0009B41E0040030232BE791EE50923232457
:102F7B0044F5F0C3125B48E5092400F5F0125FC479
:102F8B00E5836051C0E0543FB4011A781E791E12DC
:102F9B005935C3E51E94B9E51F94FF4006751EB85D
:102FAB00751FFF800EB402051245298006B403037A
:102FBB001245A3E50923F582758303E51EF0A3E50E
:102FCB001FF0D0E020180E30E70512465F80063068
:102FDB00E60312461D781EE50923232446F5F0125D
:102FEB005BF61220B27014E509B41A0712442240A2
:102FFB000A8018B41B051244275010E50975F0061A
:10300B00A4900200F582D2381250A030180302327D
:10301B00BE75F0BF125EACE582B50920300F1DC244
:10302B000FA23C7245723A4013E52C30E00E75F05E
:10303B00DC125EACE58230E503124AA875F0D212C1
:10304B005EACE509B5820AC0097509001239B7D023
:10305B0009E509700D75F0F9125FC4E582B402023F
:10306B00801C75F0D5125EACE509B58211E52BB469
:10307B000202800AC0097509011239B7D009E509A6
:05308B002324A6F5F06E
:10309000125FC4C3E51E9582E51F9583924778654C
:1030A000E5091246AC12600D304720C0E0C0007840
:1030B00065E509125F78400C78ACE5091246AC1260
:1030C000600D46F6D000D0E046802EC0E0C000E59E
:1030D00009786A125F78500EE50924DFF5F0125E78
:1030E000ACE58320E50D78ACE5091246AC12600D25
:1030F000F456F6D000D0E0F456F6E5092324A7F5FF
:10310000F0125FC4C3E51E9582E51F958392477850
:103110006AE5091246AC12600D20472EC0E0C000DF
:10312000786AE509125F78401AE50924DFF5F012A4
:103130005EACE58330E50C78ACE5091246AC126074
:103140000D46F6D000D0E046802EC0E0C000E50974
:103150007865125F78500EE50924DFF5F0125EAC59
:10316000E58220E50D78ACE5091246AC12600DF45D
:1031700056F6D000D0E0F456F6A23C7245723A50B2
:103180000D78AC7600087600087600087600E50930
:10319000785D1246AC12600D56603F1220B2700787
:1031A0001242B35002807E12443B40F9E5092324C9
:1031B00000F5F0125EACE5834582603EC3E51E95E6
:0131C000828C
:1031C100E51F95835033203A0E203C0BD23A8509F6
:1031D10048204C03754C00804BE509232464F5F02D
:1031E100125FC4E58320E72130E61053833FC3E536
:1031F100439582E542958350028029E509785D1265
:1032010046AC12600D46F68091E509232464123321
:10321100C550E8E509232400F5F0125EAC123370C5
:10322100400280D7E50978611246AC12600D566004
:10323100431220B2700B1242B35006E5F0702080A9
:103241007CE509232401F5F0125EACE5835582B4D7
:10325100FF02801EC3E51E9582E51F958340132062
:103261003A0E203C0B754C00E509D2E7F548D23AFD
:10327100804B8049E509232465F5F0125FC4E5839D
:1032810020E71F30E60E53833FC3E5439582E542B5
:1032910095834029E50978611246AC12600D46F626
:1032A100808FE5092324651233C550E8E5092324FD
:1032B10001F5F0125EAC123396500280D70509E594
:1032C10009B42105D23F75090030400CC23CC23A15
:1032D100C240754200754300A23C723A9285022EAB
:1032E100B175F0E2125FDE5368BF50034368407569
:1032F100F0E3125FDE536DBF4003436D4043644012
:0D33010075F03D125EACC3E5409582E53FDE
:10330E009583400D203A0A203C52D23C7548BC8031
:10331E00ABE56020E62475F03C125EACE582458399
:10332E006018E582240AF582E5833400F583125F86
:10333E00E2500774A01233C5402243604075F03C42
:10334E00125EACC3E5409582E53F9583500E203A60
:10335E000B203C08D23C75483C0232CA125612026F
:10336E002EB1C083C082E5092400F5F0125FD1AE04
:10337E0082AF83D082D083E5822EF582E5833FF53E
:10338E0083500390FFFF8025C083C082E50924008F
:10339E00F5F0125FD1AE82AF83D082D083E582C3C7
:1033AE009EF582E5839FF5835003900000C3E51ED2
:1033BE009582E51F958322F5F0125FC453833FE596
:1033CE008275F03CA4F582A8F0E58375F03CA42844
:0C33DE00F583C3E5439582E54295832208
:1044730004B421027400B41E0475D8072240021547
:10448300E0C0E07400A2E092B6A2E192B7A2E29289
:10449300A004D2A1C2A300D2A3B408E9D0E0A2E051
:1044A30092A6A2E192A7A2E292B6A2E392B7A2E4F5
:1044B30092A0C2A1C2A300D2A3B41E005021240023
:1044C300F5F0125FC4E58354076029B40202800348
:1044D300B4030975D800C2A5C2A4801FB40409752A
:1044E300D802D2A5C2A48013B4050975D803D2A5F6
:1044F300D2A4800775D801C2A5D2A42290053CE0BE
:10450300F502A3E0F50379007827125DF18D7A8E29
:104513007B787A797C90572D125D70787A797E90CA
:104523005831125D7022E51E257CF51EE51F357D91
:10453300F51FC3E51E9410F51EE51F9427F51F759F
:10454300F002C3E51F13F51FE51E13F51ED5F0F2A8
:104553009057AF781E791E125D70C3E51E9452F515
:104563001EE51F9408F51F5007751E00751F0022D6
:10457300C3E51E94A4E51F941F4007751EFF751F16
:10458300FF22A81EA91F7A177B08125DF1EF70EBBB
:0F459300C3EC13ED3400F51EEE3400F51F40DCD1
:1045A20022E51E257EF51EE51F357FF51FC3E51E9C
:1045B2009410F51EE51F9427F51F75F002C3E51F41
:1045C20013F51FE51E13F51ED5F0F29058B3781EB1
:1045D200791E125D70C3E51E9452F51EE51F940804
:1045E200F51F5007751E00751F0022C3E51E949823
:1045F200E51F94214007751EFF751FFF22A81EA903
:104602001F7A9F7B07125DF1EF70EBC3EC13ED3461
:1046120000F51EEE3400F51F40DC22E5091423F5F7
:1046220082758303E0C3951EF51EA3E0951FF51F57
:1046320092D5E5092444F5F0125FC4E582251EF502
:104642001EE583351FF51F500A20D510751EFF7514
:104652001FFF2230D506751E00751F00222254034B
:10466200B40200400920210520200280012278A204
:10467200F6789EEAB41E027496B41F02749BB420AC
:1046820002749CF622B4020040092025052024026F
:1046920080012278A3F6789FEAB41E027496B41FB2
:1046A20002749BB42002749CF622B4080040059464
:0546B200080880F6225B
:105F780075F0088428F8E5F012600D56C36001D367
:015F880022F6
:0B600D000483220102040810204080E0
:0D5FDE00125FC4C3E5409582E53F95832224
:105E270075F0FF125FC4789D7632E5822575F575AA
:105E3700E5833576F57675F0FE125FC4C3E5759593
:105E470082E5769583400A858275858376789D7687
:025E57003322F4
:1041E10078B0763275F0FD125FC4AF83AE82789DF0
:1041F100763175F0FF125FC4C3E5759582F575E5FB
:10420100769583F576C3E5759EE5769F5008789D92
:1042110076338E758F76221220B2700CE509B41AAE
:1042210002D322B41B02D322C322900382E0FEA355
:10423100E0FFD23890029CC00975091A1250A0D033
:104241000922900386E0FEA3E0FFD2389002A2C0CB
:104251000975091B1250A0D00922900380500390C8
:104261000384E0B4E808A3E01582B4030122E0244A
:1042710001F0A3E03400F022900380E0900382F08B
:10428100900381E0900383F022900384E090038601
:10429100F0900385E0900387F022900380E4F0A37F
:1042A100F022900384E4F0A3F022024399D2570252
:1042B1004333E509B41A3F75F0AF125EACE583B440
:1042C10003E8E582B4E8E3E51F20E7E1305763C284
:1042D10057900381E0700D1582E0B4020050051281
:1042E100429B804E12427975F00012439B12429B11
:1042F1008040D256803CB41BB175F0B3125EACE580
:0443010083B403A6D8
:10430500E582B4E8A1E51F20E7E4305621C25690C6
:104315000385E0700D1582E0B4020050051242A33A
:10432500800C12428A75F00112439B1242A3E509E3
:1043350075F035B41B0375F037125EACE50975F001
:1043450004A42446F5F085835085824F784F125B8F
:10435500F6EFB40309EEB4E80575F0008034E5091D
:10436500900380B41B03900384C3E09EA3E09F7574
:10437500F000401E75F0FFE509B41A0C124279C031
:10438500F012422BD0F0800A12428AC0F01242434A
:10439500D0F0D322C322E5F090039060039003B0E0
:1043A500E0B40A00500204F0F9A3E5F0900382603E
:1043B50003900386E0FEA3E0FFE5F0900391600320
:1043C5009003B1E0F804B40A004001E4F0E8A32347
:1043D5002582F582EEF0A3EFF0E5F09003906003FF
:1043E5009003B0E0F8A3A37F007E00E02EFEA3E0DB
:1043F5003FFFA3D8F67547007546008F458E448567
:10440500010079007A00C0F0125D2BD0E09003A680
:1044150060039003C6E544F0A3E545F02275F0AFCF
:08442500800375F0B3125EACD8
:10442D00E583B40307E582B4E802C322D3223055F5
:10443D0028E509F875F062B4100040069410F8757F
:10444D00F063125FC4E8A982B4080040049408A97F
:10445D0083124468596002D322C3220483220102CD
:06446D000408102040804D
:105DF100C0E0C0F088F0EAA4FCADF088F0EBA42D7F
:105E0100FDE5F03400FEE43400FF89F0EAA42DFD45
:105E1100E5F03EFEE43FFF89F0EBA42EFEE5F03F06
:065E2100FFD0F0D0E022EA
:0300000002518A20
:03000300025C4A52
:03000B00025C97FD
:03001300025C4A42
:03002300022210A6
:1033EA00204F21D24FAFFAEFFEADF97C00E42DFD5C
:1033FA00EC3EFCE41240DC9004101241A4E4900478
:10340A000CF0A3F0204E21D24EAFFCEFFEADFB7CB8
:10341A0000E42DFDEC3EFCE41240DC900414124161
:10342A00A4E490040EF0A3F0900400E07002A3E07C
:10343A0070030239B6E50960030234FF204B5E903F
:10344A000428E020E12BE52430E114D390042BE09A
:10345A00940090042AE0648094804003432C80E521
:10346A002430E039C390042AE064809480502E808E
:10347A0029E52430E10EC390042AE0648094805048
:10348A0003432C80E52430E014D390042BE094000D
:10349A0090042AE0648094804003432C80E5243021
:1034AA00E10630E303432C80E52430E00630E203F2
:1034BA00432C80E52C20E003432C80900428E03044
:1034CA00E11590042AE0FEA3E0FFC3E49FFFE49E17
:1034DA0090042AF0A3EFF0E524540C7003304B1546
:1034EA0090042AE0FEA3E0FFC3E49FFFE49E900459
:1034FA002AF0A3EFF0E50970030235BF204B5E9076
:10350A000428E020E32BE52430E514D390042BE0D3
:10351A00940090042AE0648094804003432C80E560
:10352A002430E439C390042AE064809480502E80C9
:10353A0029E52430E50EC390042AE0648094805083
:10354A0003432C80E52430E414D390042BE0940048
:10355A0090042AE0648094804003432C80E5243060
:10356A00E50630E703432C80E52430E40630E60321
:10357A00432C80E52C20E103432C80900428E03082
:10358A00E31590042AE0FEA3E0FFC3E49FFFE49E54
:10359A0090042AF0A3EFF0E52454C07003304B15D1
:1035AA0090042AE0FEA3E0FFC3E49FFFE49E900498
:1035BA002AF0A3EFF0E52C30E7030239B6E50960FB
:1035CA00076401600302370990042AE0FCA3E0FDC6
:1035DA00EC1240DCE4FBFA79FE7842123EC4C004E5
:1035EA00C005C006C007E50925E02400F582E434D9
:1035FA0004F583E0FCA3E0FDEC1240DCA804A90575
:10360A00AA06AB07D007D006D005D004123FCD904A
:10361A0004181241A4E50925E02404F582E43404DF
:10362A00F583E0FCA3E0FDEC1240DCC004C005C059
:10363A0006C0077FC37EF57DA87C3E900418E0F89B
:10364A00A3E0F9A3E0FAA3E0FB123EC4D003D00240
:10365A00D001D000123FCDE50925E025E02410F580
:10366A0082E43404F583E0F8A3E0F9A3E0FAA3E0E6
:10367A00FB123DD390041C1241A4E50925E024085D
:10368A00F582E43404F583E0FCA3E0FDEC1240DCAF
:10369A00C004C005C006C007E50925E02400F5827C
:1036AA00E43404F583E0FCA3E0FDEC1240DCD00333
:1036BA00D002D001D000123EC4C004C005C006C06A
:1036CA0007E50925E0240CF582E43404F583E0FEDD
:1036DA00A3E0FFC390042BE09FFD90042AE09EFC28
:1036EA001240DC7BD77AA379277842123EC4D003F2
:1036FA00D002D001D000123FCD9004201241A4E59F
:10370A00096402600302384C75090190042AE0FC3E
:10371A00A3E0FDEC1240DCE4FBFA79FE7842123EAB
:10372A00C4C004C005C006C007E50925E02400F5A9
:10373A0082E43404F583E0FCA3E0FDEC1240DCA84B
:10374A0004A905AA06AB07D007D006D005D00412F3
:10375A003FCD9004181241A4E50925E02404F5821E
:10376A00E43404F583E0FCA3E0FDEC1240DCC00481
:10377A00C005C006C0077F0A7ED77D237C3E900421
:10378A0018E0F8A3E0F9A3E0FAA3E0FB123EC4D0E4
:10379A0003D002D001D000123FCDE50925E025E093
:1037AA002410F582E43404F583E0F8A3E0F9A3E0F9
:1037BA00FAA3E0FB123DD390041C1241A4E50925AB
:1037CA00E02408F582E43404F583E0FCA3E0FDEC90
:1037DA001240DCC004C005C006C007E50925E02484
:1037EA0000F582E43404F583E0FCA3E0FDEC12402A
:1037FA00DCD003D002D001D000123EC4C004C00500
:10380A00C006C007E50925E0240CF582E43404F576
:10381A0083E0FEA3E0FFC390042BE09FFD90042AFF
:10382A00E09EFC1240DC7B5C7A8F79227841123E62
:10383A00C4D003D002D001D000123FCD9004201290
:10384A0041A4304B0A9004181241B000000000E471
:10385A00FFFEFD7C46900418E0F8A3E0F9A3E0FA25
:10386A00A3E0FB12406A600C400A9004181241B0AF
:10387A0046000000E4FFFEFD7CC6900418E0F8A3B1
:10388A00E0F9A3E0FAA3E0FB12406A500A90041898
:10389A001241B0C600000090042AE0FEA3E0FFE552
:1038AA000925E0240CF582E43404F583EEF0A3EF55
:1038BA00F090041CE0FCA3E0FDA3E0FEA3E0FF906F
:1038CA000418E0F8A3E0F9A3E0FAA3E0FB123DD361
:1038DA00900420E0F8A3E0F9A3E0FAA3E0FB123D8C
:1038EA00D3124115900424EEF0A3EFF090041CE0EB
:1038FA00FCA3E0FDA3E0FEA3E0FFE50925E025E047
:10390A002410F582E43404F5831241A4E50925E084
:10391A0025E02410F582E43404F583E0FCA3E0FDFD
:10392A00A3E0FEA3E0FF7B007AF0797F784512409E
:10393A006A5016E50925E025E02410F582E43404EE
:10394A00F5831241B0457FF000E50925E025E02422
:10395A0010F582E43404F583E0FCA3E0FDA3E0FE65
:10396A00A3E0FFE4FBFAF9F812406A60184016E592
:10397A000925E025E02410F582E43404F583124198
:10398A00B000000000D3900425E094FF900424E0E6
:10399A006480948F4007740FF0A374FFF0C39004FF
:0D39AA0024E0648094805004E4F0A3F02237
:105F8900900436E0FFA3E090043CCFF0A3EFF022A9
:10556B00900429E0FCE41240E17B007A34791E7848
:10557B004E123EC4C004C005C006C00790044CE0E8
:10558B00FCE41240E1D003D002D001D000123EC4A3
:10559B00C004C005C006C007900448E0FCA3E0FDB2
:1055AB00A3E0FEA3E0FFE41240D7C004C005C00691
:1055BB00C007900446E0FCA3E0FDE41240DCD003FE
:1055CB00D002D001D000123EC4A804A905AA06AB94
:1055DB0007D007D006D005D004123FCD900442125D
:1055EB0041A4900442E0FCA3E0FDA3E0FEA3E0FF96
:1055FB0012411590043CEEF0A3EFF0E004F07006BE
:07560B0090043CE004F022D2
:104C510090045CE0FEA3E0FFA3E0FCA3E0FD6F7025
:104C610002EC6E7003024DF4D3ED9FEC9E90045064
:104C7100E0FC5003024D32A3E0FDE41240DCC0042D
:104C8100C005C006C007900454E0FCA3E0FDE41297
:104C910040DCD003D002D001D000123DCFC004C00F
:104CA10005C006C00790045CE0FEA3E0FFC39004CA
:104CB1005FE09FFD90045EE09EFCE41240DCD003C7
:104CC100D002D001D000123EC4C004C005C006C04D
:104CD10007900450E0FCA3E0FDE41240DCC004C0F6
:104CE10005C006C007900452E0FCA3E0FDE41240B9
:104CF100DCD003D002D001D000123DCFA804A90519
:104D0100AA06AB07D007D006D005D004123FCDC00C
:104D110004C005C006C00790045CE0FCA3E0FDE40C
:104D21001240DCD003D002D001D000123DD3024D9D
:104D3100E9A3E0FDE41240DCC004C005C006C007E1
:104D4100900454E0FCA3E0FDE41240DCD003D00267
:104D5100D001D000123DCFC004C005C006C00790ED
:104D6100045EE0FEA3E0FFC390045DE09FFD9004BC
:104D71005CE09EFCE41240DCD003D002D001D00004
:104D8100123EC4C004C005C006C007900450E0FC38
:104D9100A3E0FDE41240DCC004C005C006C00790DA
:104DA1000452E0FCA3E0FDE41240DCD003D002D0C9
:104DB10001D000123DCFA804A905AA06AB07D00770
:104DC100D006D005D004123FCDC004C005C006C036
:104DD1000790045CE0FCA3E0FDE41240DCD003D0CA
