:1000000002003602301A0000000000029A4300008D
:1000100000000000000000000000000299B600008F
:10002000000000028DBD000000000002311400003D
:100030000000000286CB7581B3C2AFC292C2907538
:100040008F7E90E00074FFF0A3F0A3F0A3F078009F
:100050007900760008D9FBC2B3758E02E49000D017
:10006000F09000D1F09000D2F09000D3F09000D446
:10007000F075F0149000DCF0A3D5F0FB75830F75DC
:100080008200E4F0A3E582B43CF890190075F0001A
:10009000E4F0A3D5F0FB901A0075F000E4F0A3D5CE
:1000A000F0FB90250075F000E4F0A3D5F0FB90255F
:1000B0000075F0B87401F0A3D5F0FB9025FE740331
:1000C000F0900000D2907480F0A3E4F0A3E583B434
:1000D00040F4C290900200743EF012306B12A8B24D
:1000E00075F00A120903120399900DACE4F075C083
:1000F00000126C64D290906000E4F0A3E583B46DCC
:10010000F8C290E4900DC0F0A3F0A3F0A3F0A3F028
:10011000A3F0A3F0A3F0A3F0A3F07400B4012F9018
:100120009D44E0B40103020131757101C2191269E5
:1001300077909EB0E0B40F08A3E0B4200302014E14
:10014000909EB075710F757220D21912697712697D
:10015000D57547FF1260E8B2B3D2CBD288C2231262
:100160000334C2D1909EC0E0B4410DA3E0B457085F
:10017000A3E0B441030201D075A8A020D10E909E47
:10018000B07571FF757200126977D2D17880128ACA
:10019000B8B2B375DA0075DB0075DC0075DD00758B
:1001A000DE009083C7126DE4126D3C9083DB126D0C
:1001B000D2126D199083EF126DC0126CF690840309
:1001C000126DAE126CD330239B12091AC223809495
:1001D000C2AF760018B800FA7600D26375203312E9
:1001E000899E75A88178FFE58754F7F587D27475E5
:1001F00035FF7536FF7537FF7538FF7539FF753A6E
:10020000FF753BFF753CFF756B09D2B5D2BC759885
:100210005012035675C83CD2CA7800128AB8D2B8B8
:100220009000D9E06005B4F9004005D21B02023EFF
:10023000D21CF54BF543D21DA3E0A2E0927C9000C6
:10024000D9E0F9A3E0FA75A09D7849E2A2E0921402
:10025000900000E4301401F0B2B3A3E583B480F35E
:10026000D292900000E4B2B3301401F0A3E583B45D
:1002700080F3C2929000D9E9F0F54BA3EAF0A2E036
:10028000927C9000DB740FF078007420900000F0F6
:10029000A308B850FA900F0E7430F0C21412033451
:1002A00012954675D90075DC3175DE4975EE00751D
:1002B000FE24D2DE126CD2D2B475F001740412099D
:1002C00003C2B475F0017404120903D2B475F001CD
:1002D0007404120903C289122A141203A09022CABC
:1002E000742BF0A37430F0A37430F0A37430F0A337
:1002F0007430F0A3742EF0900D8F7414F0D2297521
:10030000A8F1900200743EF0E49000EDF0A3F0A399
:10031000F0788CE4F674FF9000C4F0A3F0A3F0A38F
:10032000F0D277788AE64408F6757080129964D224
:10033000760203B175A00F78009096CE75F008E4B0
:1003400093F208A3D5F0F890810C75F006E493F2CF
:1003500008A3D5F0F822909EB0E054F0B4F00975EF
:10036000CBFF75CADC020398909EB1E054F0B40054
:100370000975CBFF75CADC020398B4100975CBFF71
:1003800075CAEE020398B4200975CBFF75CAF7024F
:10039000039875CBFF75CAFA227558FF7559FF226D
:1003A000754900754A8074971229B04003754980D9
:1003B00022D2B3C2B3D2B3201B03301C0C9000FC7A
:1003C000E4F0A3F09000FEE4F07400B4000CE52B20
:1003D0006008152BE52B7002D254306C06201C03EC
:1003E0001288D012897920CE1720911420CE1120A6
:1003F000910E20CE0B20910820CE05209102D2CE66
:1004000020B21220B20F20B20CC2B475F0017404F5
:10041000120903D2B4E55A700C78867600E51EB452
:10042000FF03751E0030675575A028C2678526F04A
:10043000E5266049780012A51BBE0041BF003E9032
:1004400000F87404F078B1E6B4FF03020466902665
:100450000070039027007802E2F5F00879B1E7E236
:10046000F008A3D5F0F978B0E66009760078B174A9
:10047000FF02047C78B1E604B40201E4F6207405BE
:10048000C216020490201608D2167545030204AF66
:10049000207505C2150204A3201508D21575450262
:1004A0000204AF105109302509C225E51F7003125F
:1004B0000823909EB0E0540F603D7880E6540F60B2
:1004C000217881E6702475A00312296E75150075D8
:1004D00016008813751400120AEA7880E654F0F6C4
:1004E0008008302305C22312091A300F0AC20F7880
:1004F00084E670031296D6305602C25630540EC2AD
:1005000054752707752600740490F002F0306507D3
:10051000C265122ED1D25430290E1214B3C22975DD
:100520006000740490C00AF0301E0DC21E121DE857
:10053000306B05C26B122A54300D02C20D300C769E
:10054000C20CE55A6027C22FD53140D5323D202656
:100550003AE55AB41C00400F757200123D55125C0A
:10056000217547FF12720B755A0002058B301D1B57
:10057000201C18202F0BD22F7531317532760205D1
:100580008BD53107D53204C22FC21D056BE56BB484
:100590000A03756B0078ADE6600116E56B239005E4
:1005A000A273C129C1C0A1CFA1B6C1CAE123A1B61E
:1005B000E1B7A1B8A1B661B17881E6600214F6781E
:1005C00082E6600214F67884E660EB14F680E79029
:1005D0009EB0E0540F7050C20F7880E6540F601F39
:1005E0007881E6704275A003129B0175150075169F
:1005F000008813751400120AEA7880E654F0F63089
:100600002325A8517551007A027B03129A62C223F6
:1006100088137514007880E6540F700B75150075FB
:100620001600120AEA8000808D7401B50E12050BC7
:10063000741EB50B30750E02750B00750C00D20FD1
:100640007412B50E12050B7496B50B19750E07755D
:100650000B00750C00D20F7403B50E09050B740363
:10066000B50B02D20F056CE56C30E002D265B40A1E
:100670004D756C00D22E3026451558E558B4FF3E16
:10068000155974FFB559377535FF7536FF7537FF46
:100690007538FF7539FF753AFF753BFF753CFFC232
:1006A00026C27C755A00752000301C12122C6CD2A8
:1006B00076D211D21DD200D2010206BEC21DA1B651
:1006C000302EFB121021C22EA1B6E55430E752E5C0
:1006D00011704E53547F301C45202645909D46E0B6
:1006E000600E300A09751700751800020721D20A3A
:1006F0001290F220282BD228902E0015A07800A26C
:10070000219292E2C292F0A308B800F305A0A221C0
:100710009292E2C292F0A308B800F302072112906D
:10072000F2A1B6909EB0E054F0704B7880E654F0A1
:10073000601B7882E660030207B575A00B129B016F
:1007400088567555007880E6540FF68020E55430C1
:10075000E663A8527552007A057B0B129A625354D5
:10076000BF88567555007880E654F07048788376D7
:10077000011299D6803F7880E654F060187882E6BE
:10078000703375A00B12296E88567555007880E677
:10079000540FF680D8E55430E61B5354BF75A005BE
:1007A00075120B128E46E9600C75A00B755500751D
:1007B0005600129085A1B6E55AB418061258D30215
:1007C0000815E55AB41606125523020815B4210679
:1007D000126227020815B422061262EF020815B44D
:1007E0001906125913020815B41C06125C450208BA
:1007F00015B41D06123D76020815302608E55AB4D8
:100800000813020812E55A6009B411091249F202EC
:100810000815126E36740AB55A061284961270BC08
:100820000205B69000FAE4F0A3F09000FEE4F09028
:10083000331DE55A75F030A42582F582E5F0358345
:10084000F583E54575F003A473302612E55A70036D
:10085000755A08201D15E55AB40903020886E55AA1
:10086000B40903020886B4160040097531317532A7
:10087000760208957531717532180208957531E95F
:100880007532040208957531657532010208957557
:10089000312D753202227583027582097863120840
:1008A000F47582061208F475820E1208F475820C33
:1008B00075A008780074FFF208E0F2C3943075F078
:1008C0000AA4F5F008A3E0F2C3943025F008F2780A
:1008D00001128ADD0208F375830275820C786312B7
:1008E00008F47582091208F47582061208F478007B
:1008F000128ADD22E0C39430C4F9A3E0C3943049E6
:10090000F60822B2B3000000000000000000000062
:10091000D5E0F0D5F0ED220209A775A0027800E23B
:10092000B43EF408E2B428EF7802E2B4307C080860
:10093000E2B45476122FA97809E2B4341108E2B473
:10094000330C7807E2B453061203A0753014E53077
:100950006002D229753003D2537805E2B4520808F8
:10096000E2B445030209A77805E2B4410E7807E234
:10097000B4300808E2B430030209A77806E2B44FA5
:100980000D08E2B44C0808E2B444030209A7E56D7F
:1009900070137805E2B4200D08E2B4200808E2B430
:1009A00043030209A7D229020FC37805E2B4502FEE
:1009B000122FA97530027807E2B44F0C08E2B44C4C
:1009C0000708E2B4440280DF7802E21228A040D790
:1009D000081228A040D1081228A040CB020AF378C0
:1009E00005E2B44B2408E2B450BD7808E212297B3A
:1009F00030D11320D50211237880E64401F67881A6
:100A000076037884761E020FC37804E2B42062086D
:100A1000E2B4442808E2B44C7F08E2B4207A7802B9
:100A2000E21228A0407208E21228A0406B75A002D2
:100A3000751203128EC1E9605F020ADEB4411B0821
:100A4000E2B4555408E2B4544F08E2B44F4A909DC2
:100A500048E06044128A64020A98B4533B08E2B446
:100A6000543608E2B44F3108E2B4502CD274020A72
:100A7000987807E2B4202108E2B4521C08E2B45886
:100A80001708E2B420127530027802E2122893406F
:100A90000708B807F6020A9B020FC3780B120FFA79
:100AA000853F138540147803122863F58378051277
:100AB0002863F5827802E2C39430FA75A0037800C7
:100AC000A913EAA2E09292A2E19290E0C292C290AF
:100AD000F208A3D9ED751500751600020AEA75151E
:100AE00000751600751300751402740490C002F0AE
:100AF000020FC3751F027802120FDEE53FF541B405
:100B0000C0004008B4CB005003020B0F020BB975B4
:100B1000710775720C900800120B9B75A0089099D4
:100B200080E541C394C00375F008A42582F582C016
:100B300083C0827800E2F571C219126977D082D041
:100B40008305827801E2F57108E2F572D219126923
:100B500077757122757227900820120B9B75A0087B
:100B6000909980E541C394C00375F008A4258224C0
:100B700004F582C083C0827820E2F571C21912693F
:100B800077D082D08305827821E2F57108E2F57290
:100B9000D219126977756E37020FB875A002A87165
:100BA000E2F008120FC4A3E53FF0A3E540F0A872FD
:100BB000791408A3E2F0D9FA22B4D200405EB4DB83
:100BC00000505975A0027900758308758200E97597
:100BD000F004A42407F8120FDEE53FF0A3E540F08F
:100BE000A309B906E9781F7401F0A37821120FDE7A
:100BF000E53FF0A37825120FDEE53FF07831120FC4
:100C0000C4A3E53FF0A3E540F07836120FC4A3E596
:100C10003FF0A3E540F0756E17020FB8B4DE7575AE
:100C200083087582007809120FDEE53FF0A3E540E6
:100C3000F07807E2C39430758202F0758203780D74
:100C4000120FDEE53FF0A3E540F075820578111242
:100C50000FDEE53FF0A3E540F07582077815120F2F
:100C6000DEE53FF07582087819120FDEE53FF0757A
:100C70008209781D120FDEE53FF0A3E540F0A37571
:100C8000820B7821120FC4E53FF0A3E540F0756EAA
:100C90000E020FB8B4E0527901758308758200E93D
:100CA00075F007A4F8E2B44F04E4020CB7B44305AE
:100CB0007401020CB77402F0A3E975F007A4F808F8
:100CC000E2B44E04E4020CCA7401F0A3E975F00723
:100CD000A4F80808120FDEE53FF0A3E540F0A309F1
:100CE000B905BC756E10020FB8B4E20511D7020F3A
:100CF000BBB4E4081196756E04020FB8B4E809128B
:100D000014A0756E40020FB8B4EA2D7571007572AB
:100D100000909F18D2191269777571007572009052
:100D20009F12D219126977757100757200909F1425
:100D3000D219126977020D3B020DC375A002780625
:100D4000120FDE75A0087800E53FF208E540F27565
:100D5000A002780A120FDE75A0087802E53FF208BB
:100D6000E540F275A002780E120FDE75A008780437
:100D7000E53FF208E540F275A0027812E2C3943034
:100D800075A0087806F275A0027814E2B44000401D
:100D900006C39437020D9AC3943075A0087807F201
:100DA00075A0027816E2C3943075A0087808F27531
:100DB000A0027818E2540175A0087809F2756E0A4D
:100DC000020FB8B4EC03020DCCB4EE091214A075F6
:100DD0006E38020FB8B4F00580F2020F36B4F8FA9C
:100DE00075A0027807120FC475A0087800E53FF2DD
:100DF00008E540F275A002780C120FC475A00878BF
:100E000002E53FF208E540F275A0027811120FC426
:100E100075A0087804E53FF208E540F275A0027875
:100E200016120FC475A0087806E53FF208E540F2F7
:100E300075A002781B120FC475A0087808E53FF270
:100E400008E540F275A0027820120FC475A008785A
:100E50000AE53FF208E540F275A0027825120FC4BA
:100E600075A008780CE53FF208E540F275A002781D
:100E70002A120FC475A008780EE53FF208E540F28B
:100E800075A002782F120FC475A0087810E53FF204
:100E900008E540F275A0027834120FC475A00878F6
:100EA00012E53FF208E540F275A0027839120FC44E
:100EB00075A0087814E53FF208E540F275A00278C5
:100EC0003E120FC475A0087816E53FF208E540F21F
:100ED00075A0027843120FC475A0087818E53FF298
:100EE00008E540F274FF08F208F208F208F208F28E
:100EF00075A0027851E2B4293775A0027848E2C3A0
:100F0000943075A008781AF275A002784A120FDEA4
:100F100075A008781BE53FF208E540F275A002785D
:100F20004E120FDE75A008781DE53FF208E540F28D
:100F3000756E1F020FB8B4F42A4069757101909F55
:100F40001AC2191269771214A0756E2175A0027861
:100F500025120FDE75A008781EE53FF208E540F285
:100F6000020FB8B4F63E403C757101757200909C5A
:100F700017D219126977909EC0E0B4411BA3E0B468
:100F80005716A3E0B441117806E2B4410B08E2B46D
:100F9000570608E2B44101221214A0756E0575309F
:100FA00007020FB87807790075A002E275A008F370
:100FB0000809B920F3756E20126911E541B4F603F2
:100FC00002003622E2C39430C000F879007AE87B50
:100FD00003128D878C3F8D40D00008020FE4753FCF
:100FE00000754000E2C3943075F064A4253FF53FDE
:100FF000E5F03540F54008021000753F00754000EF
:10100000E2C3943075F00AA4253FF53FE5F0354082
:10101000F54008E2C39430253FF53FE43540F54004
:1010200022900DACE0600312AA6A900D8FE060027E
:1010300014F09000DBE0600214F09000F8E0600231
:1010400014F09000FAE0FFA3E0FE4F6017EFC394A6
:10105000019000FAF0FFEE9400A3F04F7006754F78
:1010600001122BC19000FCE0FFA3E0FE4F6045EFB2
:10107000C394019000FCF0FFEE9400A3F04F703495
:10108000D200D2017535FF7536FF7537FF7538FF11
:10109000432003754BA77543A7D276D211755A002A
:1010A000C0341288DFD034D21DD21C754BA77543D3
:1010B000A70210B7122A679025FEE0600514F0021F
:1010C00010E17403F0A3E023F8E004B45A004001F7
:1010D000E4F07400F975F02090100A12A46512A4CF
:1010E0009312720B201B10201C0D78A106B63C0732
:1010F000760012AACBD26D9000FEE0603A14F07038
:1011000036E54304B4A50040027400F5F0F543123F
:1011100029B0401F900E80E0B4410FA3E582B49E39
:10112000F6E5F0125DF0E0B453099000FE7407F0AC
:10113000021137E54380CCE53060081530E53070AA
:1011400002D229300738C3E53B9401F53BE53C94D6
:1011500000F53C453B7006C207C2038021E54F60A5
:101160001D9022CA12292650159022CA12A49390CB
:101170009BCBE0C39EA3E09F5004C207C203E54F90
:1011800070030212BCE54FB4014FD204D200D20565
:10119000D201D207D203909BC0E0F53BA3E0F53C1F
:1011A000453B700A753BFF753CFFC207C203909F29
:1011B00012E0B4D20EA3E0B40409753901753A0007
:1011C0000211CD909BC3E0F539A3E0F53A124682B7
:1011D000753604754F020212BCB40244122D4A4007
:1011E00006909F1D021201C3E5399401F539E53AD5
:1011F0009400F53A4539701CD26ED206D202909B0B
:10120000C5E0F539A3E0F53A754F03909BC8E0F5CA
:10121000370212BCD536061246827536050212BC5C
:10122000122D4A5006300654306E4DC3E5399401F4
:10123000F539E53A9400F53A45397040122D4A5097
:101240003B7535FF7536FF7537FF7538FFC0347550
:1012500034A5754BA54320031288DFD034754F06A3
:101260009000F9E0601214F0909F1BE09000FAF0FB
:10127000909F1CE09000FBF0C206C202E54FB40351
:1012800013D53738C205C201909BC7E0F535754FBD
:10129000040212BCE54FB40410D53520C204C200CC
:1012A000754F00754F060212BCE54FB40500E54FBF
:1012B000B40609200606200703754F00301F1220D0
:1012C0006F2D9099F0E0F54CA3E0F54DD26F02122E
:1012D000EF306F5EC071C072854C71854D72909910
:1012E000F0D219126977C26FD072D07102133274C2
:1012F00001254CF54CE4354DF54DB40E35E54CB4B7
:101300000230900DAC7403F0754C00754D0090994F
:1013100081E0125E397801909981E8124D1A400EF1
:10132000909981E823232582F582E0125E9C08B81B
:101330000CE5740AB50E1D050BE50B7002050CE5F6
:101340000CB40210E50BB4580B750E01750C00754A
:101350000B00D20F7408B50E0C050B7404B50B0509
:10136000750E10D20F7407B50E08D50B05750E0853
:10137000D20F7409B50E0C050B7404B50B05750E70
:1013800014D20FE5116002151130130C051A740206
:10139000B51A05C213751A00E51EB4FF030213AA9D
:1013A000E51D6006D51D03751E00E51F6002151FB3
:1013B00074012517F517E43518F518909E9EE0F88E
:1013C000A3E0F97A3C7B00128D87C3E5179CE518F2
:1013D0009D4009435480751700751800E519600990
:1013E0001519E4B51903435480C3E55E9425E55F00
:1013F00094EA5005785E12889F30260302149F30CD
:10140000040E200022C2047535FF7536FF02142732
:10141000300014783512889F7835753300909C021F
:101420001288A74002D20430050E200122C20575A1
:1014300037FF7538FF02144F300114783712889F38
:101440007835753301909C061288A74002D205308A
:10145000060E200222C2067539FF753AFF02147784
:10146000300214783912889F7835753302909C0ABF
:101470001288A74002D20630070E200322C2077549
:101480003BFF753CFF02149F300314783B12889F8A
:101490007835753303909C0E1288A74002D207223C
:1014A00075A0027583087582007806E2F008A3B47F
:1014B00029F922E5306003021602E54A54F0B4200F
:1014C0004B780075A0079082B475610CE493F20824
:1014D000A3B80DF8E54A30E30578037431F2E54A24
:1014E00054077B007A607900F8128D87AE05AF044F
:1014F000744078B0128CBB78B090070875F004E2A5
:10150000B420027430F008A3D5F0F422E54A30E7A5
:101510003D780075A00790836275610AE493F20834
:10152000A3B80BF8E54A547FB41F00400B941FF595
:10153000F078037431F2E5F0780875F00A8424300D
:10154000F2E5F0243008F275610A22021602E54A3B
:1015500030E6F8534ABFD262780075A0079082C186
:10156000756111E493F208A3B812F879AEE7543F1D
:1015700004B42000400B941FC0E078037431F2D013
:10158000E075F00A8478082430F208E5F02430F29F
:1015900079AEE730E70578077443F2E730E605787F
:1015A000067448F279ABE7FF79ACE7FEEE30E7105E
:1015B00090070B742DF0EFF42401FFEEF43400FEDD
:1015C000744078B0128CBB78B090070C75F004E2D0
:1015D000B420027430F008A3D5F0F479AEE7543F9C
:1015E000122D5A6019780F90071075A007E954035F
:1015F000F9E2F5F0E0F2E5F0F0158218D9F32202F5
:1016000016919000EDE0540F60F5780075A00790FA
:101610008357E493F208A3B80BF89000EDE030E6AE
:101620000578037431F278087436F2089000EDE022
:10163000540F242FF2087420F29000EEE0FE900088
:10164000EFE0FF744078F0128CBB78F090070B75D8
:10165000F004E2B420027430F008A3D5F0F490074F
:101660000F742EF090070A742BF090100EE0B42E39
:101670000D90070EE0F5F0742EF0A3E5F0F074295C
:10168000900710F07561109000EDE0448054C0F0B8
:1016900022305315C253900200780075A007E0F283
:1016A00008A3B429F918886122E530600122307658
:1016B0004AC276D279780075A00790835775610A7F
:1016C000E493F208A3B80BF8E544B4030050050511
:1016D000440216EB30110F78027458F208F2C2116E
:1016E00074337809F222E55AB40B0C74327809F29B
:1016F0007803E544242FF222021794900DD0E030B5
:10170000E7F67440F0D26275611475A00778009016
:10171000829FE493F208A3B815F8900DD1E0B403CA
:10172000004009C39403F078037431F2900DD1E0C6
:10173000FEA3E0FF744078B0128CBB78B09007082D
:1017400075F004E2B420027430F008A3D5F0F490F0
:101750000DD3E0FF7E00743078B0128CBB78B0906F
:10176000070D75F003E2B420027430F008A3D5F041
:10177000F4900DD4E0FF7E00743078B0128CBB780A
:10178000B090071175F003E2B420027430F008A3A2
:10179000D5F0F42230712B207028D27075610A7553
:1017A000A0077800908341E56230E00390834CE429
:1017B00093F208A3B80BF8E56230E10578097432BA
:1017C000F222307326207223D27275610A75A00747
:1017D000780090836DE493F208A3B80BF8E562B447
:1017E000FF030217EA78092431F222307A192078AF
:1017F00016D27875610775A0077800908380E4930E
:10180000F208A3B808F822107703021B7A788AE658
:1018100030E3030219B1D210E55AB412030219B130
:10182000B41803021D7EB40003021D45B416030262
:1018300019B1B420030218F9B4250302194EB417E4
:10184000060219B10218CFB404FA75610A75A0072F
:101850007800908336E493F208A3B80BF8E573752B
:10186000F01E84E5F00475F00A8424307808F2E56F
:10187000F0243008F2E57375F01E8424307803F20A
:10188000E5727028125DEEE0B4530CE572701DE550
:1018900062B403030218AC7805744CF2125DEEE0FA
:1018A000B44E07E57160270218BED2770572E57164
:1018B000601CC277E562B402057805744CF2E571EC
:1018C00075F044B4010375F0497807E5F0F222E5BC
:1018D0007120E403021B2575610A75A0077800904A
:1018E0008393E493F208A3B80BF878087439F208EC
:1018F000F278027458F208F222908393D210756144
:101900000A75A0077800E493F208A3B80BF87808EA
:101910007432F2E572600E75F04920E10375F0440F
:101920007805E5F0F2E57130E005743502194130D3
:10193000E105743702194130E20574360219417429
:10194000387809F21008012278077443F222908354
:1019500093D21075610A75A0077800E493F208A38A
:10196000B80BF8E570600578037431F278087433C9
:10197000F2E572600E75F04920E10375F0447805D8
:10198000E5F0F2E57130E00574300219A430E10AA7
:1019900078087430F274330219A430E2057431020D
:1019A00019A474327809F21008012278077443F2FE
:1019B0002230696FE57130E42E90830730E50390A3
:1019C0008312C21075610A75A0077800E493F208CB
:1019D000A3B80BF8E57023243025737805F2788AD4
:1019E000E654EEF6C26922C21075610D75A0077843
:1019F0000090831DE493F208A3B80EF8E57130E37C
:101A00000578057449F27807E570232430F5F0E590
:101A10007130E00205F0E5F0F2788AE64410F62233
:101A2000021AB4788AE630E3F754F7F675611D754B
:101A3000A00778009074AEE493F208A3B81DF8E50F
:101A400070547F24307803F2E570547F75F040A421
:101A50002440F582E5F0349AF5837900E0FFA3E0B5
:101A6000FEA375F004E9A42464F87430C001128C5C
:101A7000BBD00109B906E5790675A0077805900085
:101A80006475F003E0B420027430F2A308D5F0F4DA
:101A900008A3D9EDE57030E71A0570E570547FB4FE
:101AA0000500500F24961229B04008788AE64408B1
:101AB000F6D2772275610A75A0077800908393E4C7
:101AC00093F208A3B80BF8E55AB41603122A0530AE
:101AD0000807C20878077443F2E55AB4170AE5709C
:101AE00024307803F2021B09B4121E7803E5702437
:101AF00030F2E57154F070057431021B10E5715439
:101B0000F0B430057439021B10E571C4540F243150
:101B10007809F2E572600D7805B401057444021B82
:101B2000237449F22275610A75A0077800908388B2
:101B3000E493F208A3B80BF8E57130E30B30E02A28
:101B400078067448F2021B6A780530E00574480292
:101B50001B54744C300804C2082420F208E571308C
:101B6000E1057449021B697444F2E57130E20578BD
:101B7000077443F2E5731229D522307F1E75610781
:101B800075A0077800908378E493F208A3B808F86A
:101B90007885E624307803F2D27D22C218740AB523
:101BA0005A68E50FF46063E50F780030E00408033D
:101BB00080F9D21875610AE54EB40406909E0002C1
:101BC0001BCD909D80B402004003909DC0E8F55B62
:101BD000C31375F00EA42582F582E43583F583C026
:101BE000008583A0A882120FDED00075A0077900BF
:101BF000908388E493F309A3B908F8E830E0057905
:101C0000067448F3E53F1229D5229000C4E0FFA3F3
:101C1000E0FEB4FF30EFB4FF2CA3E0FFA3E0FEB47E
:101C2000FF28EFB4FF249000CCE0FFA3E0FEB4FF58
:101C30001EEFB4FF1AA3E0FFA3E0FEB4FF16EFB45B
:101C4000FF12021CA47900021C567901021C56796D
:101C500002021C56790374FFF01582F0756111754C
:101C6000A00778009082DFE493F208A3B813F87815
:101C7000647440C001128CBBD00175A007780C9031
:101C8000006475F004E0B420027430F2A308D5F0CB
:101C9000F4E930E00578097431F2E930E1057803C0
:101CA0007431F222798CE7604875610A75A0077873
:101CB00000908393E493F208A3B80BF81229F67806
:101CC0000975F035E7B4020575F037D26BE5F0F22F
:101CD000E7B4021C7803E2B4301675F030901AFEB7
:101CE000E07008A3E0B4010375F0317807E5F0F285
:101CF00022E5F0D2E7F583F5F075A0077800908231
:101D0000D3E493F208A3B80CF8301801227989E7DC
:101D10007808F2780975F020909D48E0600375F02E
:101D200041E5F0F29000FCE0F5F0A3E045F060053D
:101D3000780A7443F230260578077454F275610B03
:101D4000C31229F62275610A75A00778009082F106
:101D5000AA43E493F208A3B80BF8E543B41E00408D
:101D60000A78037431F2C3EA941EFAEA75F00A8421
:101D700024307808F2E5F0243008F2C210227561B0
:101D80000A75A00778009082FCE493F208A3B80BD0
:101D9000F8E57175F053B40200501575F05AE54539
:101DA000B4090878077443F2021DB0B40B0280F343
:101DB0007806E5F0F218E57175F04430E00375F04F
:101DC00049E5F0F2E57375F01E84E5F00475F00A5C
:101DD0008424307808F2E5F0243008F2E57375F0D9
:101DE0001E8424307803F222306203C26222900003
:101DF000EDE030E73330E625E4F075830675823A8E
:101E000012A493EF900DA4F0A3EEF07583067582F3
:101E10004112A493EF900DA6F0A3EEF022E4F0752A
:101E2000A006780AE20223BDE54A54F0B4204AE550
:101E30004A540F75F0C0A42400F582E5F03460F533
:101E40008375F0C075A0067803C290E2D290F0A32B
:101E500008D5F0F5C290054A74971229B0E54A40BA
:101E600006B43014021E6AB4280E900F0E7430F0BF
:101E7000754A00754400D27622E54A30E727E54AE4
:101E800054FF122D97106119054AE54920E709E52D
:101E90004AB49F03754A2022E54AB4BEFA754A2027
:101EA00022754A002275A0067804E2B4541A78001C
:101EB000900300E2F008A3B429F975150075160027
:101EC0008813751400020AEA10100602234E021F3E
:101ED000567417B55AF830610A754A9EE57060036A
:101EE000754ABD75F01E788AE630E50375F04653F5
:101EF00071FE7583067582071270E9A8F075A0005F
:101F000075F005E0F2A308D5F0F9909A4D792478A0
:101F10008AE630E505909A4E794CE090800575F0A0
:101F200020A42582F582E5F03583F58375F004E081
:101F3000F309A3D5F0F9788AE620E511788AE6441A
:101F400020F6757200757170D27702214D788AE69D
:101F500054DFF602214DE55AB4180122E55AB416B1
:101F6000537583067582071270E9781E75A0007597
:101F7000F006E0F2A308D5F0F9E573909A4D6003FE
:101F8000909A4EE57075F040A42582F582E5F03513
:101F900083F583E075F020A490800025822405F568
:101FA00082E5F03583F58375F0047824E0F2A30828
:101FB000D5F0F922B4255BE571C4540F700975F0B2
:101FC0000E5371FE021FE5B4010975F0245371FD33
:101FD000021FE5B4020975F0365371FB021FE57567
:101FE000F04C5371F7758306758202E0B4300B74C0
:101FF00020F0A3E0B430037420F0758202A8F075DD
:10200000A00075F003E0F2A308D5F0F902214D021B
:1020100020BDB420FAE571C4540F700975F00A535D
:1020200071FE02205EB4010975F01F5371FD02209C
:1020300043B4020975F0325371FB02205E75F0471C
:102040005371F7758306758202A8F075A00075F0CC
:1020500004E0F2A308D5F0F912209D02214D75830A
:10206000067582071270E9A8F075A00075F006E009
:10207000F2A308D5F0F9E8B42800781040027838C7
:10208000E475F020A42405F582E5F0D2E7F5837D20
:1020900004E0F2A308DDFA12209D02214DE545B4CB
:1020A00006030220B4B409030220B4B40B030220D7
:1020B000B4B40E05754400D276220221A5B412FAFA
:1020C000306103754A9EE571C4540F700975F00ABA
:1020D0005371FE0220DFB4034375F0465371F77568
:1020E00083067582071270E9A8F075A00075F00AE2
:1020F000E0F2A308D5F0F9E8B4280078104002789F
:102100004C740275F020A42405F582E5F0D2E7F5C1
:10211000837D04E0F2A308DDFA02214D90060275EA
:10212000A000B401085371FD7820022132783453A5
:1021300071FBE0F208A3E0F208A3E0F21818E2B4A1
:10214000300B7420F208E2B430037420F2E57130F1
:10215000E00853710FD27702218130E10B53710FE8
:10216000437110D27702218130E20B53710F43711A
:1021700020D27702218130E30853710F437130D2AE
:1021800077E55AB420061261BF02219EB4250612DB
:10219000663702219EB4170302219E124B4E127025
:1021A000BC220222BCE55AB404F8125DEE75A00010
:1021B000E0B44E75780675A006E2C3944175A000A0
:1021C000F975A00075F003A42420F8742AF2E970D0
:1021D00012757400907F5E126DC0907F72126DAEAA
:1021E0000222B814702C757404E562B40303022152
:1021F000F7907F86126DC0E562B40203022205905B
:102200007F9A126DAE7828E562B40103747EF20203
:102210002223757400907FAE126DC0907FC2126D44
:10222000AE783C75830602229A758306758206E5B0
:1022300062600C781FE562B4030E7833022248789E
:102240001FE572B402027833E0B44211E572B402C1
:102250000643740202226B43740102226BE572B4DE
:10226000020653740102226B537402E0F2B4431667
:1022700088F0E82406F8744DF2087449F208744EA8
:10228000F2A8F002229988F0E82406F87453F208C4
:102290007445F2087443F2A8F00875820175F003E2
:1022A000A308E0F2D5F0F91818E2B4300B7420F26C
:1022B00008E2B430037420F21270BC22E571B4104D
:1022C0000302234D7583067582071270E975A0001D
:1022D0007832E57120E00FC083C082124881D0823D
:1022E000D083402D781E75F00AE0F2A308D5F0F9EE
:1022F0007824E57130E0027838E57375F020A42485
:1023000005F582E5F0D2E7F5837D04E0F2A308DD70
:10231000FA1270BCE57130E30820E005757109D24E
:1023200077E55AB41003437104306121E573B49624
:1023300005741E022349E573B49705743D022349D1
:10234000500BB41E00400205E04480F54A2230786C
:1023500008C278C27A220225203079FAC279C27680
:10236000E544B4030040030224D9780AE2B42046CD
:10237000900F0EE54454032430F0E544900F10B460
:102380000203900F197802E2F008A3B80AF9780B5B
:10239000E2B43114E544900F0FB40203900F1874A7
:1023A00031F00223B602249DE544900F0FB40203DE
:1023B000900F187430F0D276E544B401E878021238
:1023C0000FFAE53F9000DFF07805120FFAE53F9035
:1023D00000E0F07808120FFAE53F9000E1F0780E87
:1023E000120FC4E5409000E5F0A3E53FF07813122A
:1023F0000FC4E5409000E7F0A3E53FF07818120F16
:10240000C4E5409000E9F0A3E53FF0781D120FC449
:10241000E5409000EBF0A3E53FF085A083758222B4
:1024200012A493EF900D90F0A3EEF07829120FC450
:10243000E540900D92F0A3E53FF0782E120FC4E531
:1024400040900D94F0A3E53FF085A0837582331290
:10245000A493EF900D96F0A3EEF085A08375823AD9
:1024600012A493EF900D98F0A3EEF085A0837582EF
:102470004112A493EF900D9AF0A3EEF09096CE1235
:1024800024C59000DCF09096D11224C59000DDF0B8
:102490009096D41224C59000DEF00224C47804E2A1
:1024A000B42F217802120FFAE53F9000E2F0780590
:1024B000120FFAE53F9000E3F07808120FFAE53FBB
:1024C0009000E4F022E493C3943075F00AA4F5F090
:1024D000740193C3943025F022E55A6042B4090395
:1024E00002251FB411399000247802E2B43003743D
:1024F00020F2E2F0A308B806F97807E2540FF53E9F
:102500007809E2540FC4423E780AE2F57208E2F517
:10251000717806E2C39430C4035308E742082222CC
:10252000307005C270C27122307213C272C273E57C
:1025300062B4FF097562007809E2C3943122307DEC
:1025400075C27DC27F7807E2B47E117885E604F615
:1025500024961229B0404BD27F0225A2C394307535
:10256000F00AA4F5F008E2C394301425F0B43C0856
:102570007885E62496022585C0E07885E675F01E0C
:10258000A4D0F025F0F543F54BB4960CE558455929
:102590006006755801755900780AE2C27CB4480299
:1025A000D27C9000DBE0700D9000D9E54BF0A3E009
:1025B000A27C92E0F022301850758309E55B128806
:1025C00094450FF50FE55B75F006A42480F582783D
:1025D00002E27906B44302780AE2F008A3D9FAE5E8
:1025E0005B128894451CF51CE55BC2E0128894558B
:1025F0001C6012E55BC2E012889423551C600685BE
:102600005B1B124F37220227E5798CE7606B7B005A
:1026100078037904E2B42E05E3F2742EF308090B73
:10262000BB04F17803120FC4798C9000C0B7020389
:102630009000C2E5096006E5822408F582E53FF0D6
:10264000A3E540F0E5097012B7010F780E9000D5B0
:1026500075F004E2F0A308D5F0F9B70110780A127A
:102660000FDE9000D0E5096001A3E53FF0798C070B
:10267000B70302E4F722022FB67450B5600050860B
:10268000788C060550E550909ABCE0B55003755023
:1026900000435080E5092480F58275830DE4F0E560
:1026A00060B4CFD29006CCE0B4521A909D48E0605E
:1026B000129022CA12292650129022CA12A493EF15
:1026C0004E7008D275B45303122F6A9006CCE509F8
:1026D000700BA3E0C21FB44304C26ED21F201309C3
:1026E00075A006795BE3B4410079FF09E975F02034
:1026F000A4240AF582E5F0F5832410F583E509604A
:102700000FF874C02582F58274033583F583D8F2FF
:10271000E9B41E08E5099022CA022733B41F0AE56E
:1027200009C32390236A022733B4201590238AE536
:1027300009C32375F020A42582F582E5F03583F5E1
:1027400083AB83E5822407FA75A006E975F006A439
:102750002402F875F006E2B44100403AFDEDB4629F
:1027600003022767B4420EC083C0829000FEE0706F
:1027700000D082D083E9B41E005019C0A0C00075FB
:10278000A00EE92480F8E5096004E8241EF8EDF2C3
:10279000D000D0A0742EF0A308D5F0BA9022EAE0C1
:1027A000B42B030227A7001228AEE55AB41102D2B7
:1027B00076B91E158B838A827452F0A37450F0A3ED
:1027C000744DF0A37420F0C1EBB920FBE50923237D
:1027D00075A00675830DF58278C875F004E2F008DF
:1027E000A3D5F0F92253507F75A006909ABCE0B4AF
:1027F0000A005025780FE550540F75F02CA424657D
:10280000500205F0902C002582F582E5F03583F525
:1028100083E2F0A308B81AF922780FE550541F7527
:10282000F011A4244B500205F0902C002582F58273
:10283000E5F03583F583E2F0A308B8150108B81A6E
:10284000F522741022C3332582F582E5833400F526
:1028500083E0C3943075F00AA4F5F0A3E0C394308C
:1028600025F022E2B440004006C39437022872C328
:10287000943075F010A4F5F008E2B440004006C3AF
:102880009437022888C3943025F022740DF208741E
:102890000AF222B441004008B44700400D0228ACBF
:1028A000B430004007B440005002C322D322B91F05
:1028B000005031EDB45B00501412290375F0088408
:1028C000248DF8E5F012889446F60228E4122903D4
:1028D00075F00884248DF8E5F0128894F456F6ED2E
:1028E000C39420FD8BA085020012290375F020A45B
:1028F0002405F582E5F0D2E7F5837D04E0F2A30834
:10290000DDFA22E9B41E05E509249622B41F06E586
:102910000923249B22B42006E50923249C22E509EF
:1029200075F01EA42922E0B42B19A375F004E0B4BD
:102930003000400FB43A00500AA3D5F0F1E0B42EB5
:1029400002D322C322ABA07914E0B47E02742AB46D
:10295000DF0274F88BA0F2A308D9EE229000007A6F
:10296000043145740DF208740AF208DAF422780092
:10297000740DF208740AF208315C22791190299FD3
:10298000F5F0C2D1E91493B5F004D2D18002D9F4A4
:1029900030D10BE914D2D56005C2D514F5452230EB
:1029A00043545253504E55563141584C324D444584
:1029B000C0F075F020A42400241DF582E5F03480D9
:1029C000F583E0B43004D0F0D322A3E0B430028029
:1029D000F5D0F0C32275F020A42400F582E5F03490
:1029E00080F583A37802E0F2A308E0F2A37808E080
:1029F000F2A308E0F22275A00778027430F208E52D
:102A0000092430F22275A00778027430F208E570CC
:102A10002430F2227900E931B0926AE975F0088435
:102A2000248DF8E5F0128894306A0546F6022A32C1
:102A3000F456F609B99BDF78A0E644FCF622788DBF
:102A400076FF08B8A1FA22788DB6FF0608B8A1F97A
:102A5000D322C3220509E509B405005006249631A6
:102A6000B0500375090022900DC8122BA4604C30A1
:102A70001F0A900DC8E4F0A3F0022ABB900DC81203
:102A80002BAB70377535FF7536FF7537FF7538FF1F
:102A9000C0347534A5754BA54320031288DFD034AC
:102AA000754F069000F9E0601214F0909F1BE090C3
:102AB00000FAF0909F1CE09000FBF0900DC0122BEC
:102AC000A46011900DC0122BAB7009E548A2E0B3D1
:102AD00092E0F548900DC2122BA46032900DC21204
:102AE0002BAB702AE548A2E1B392E1F548501F9064
:102AF0009F08E0B40F08A3E0B42703022B0E909FB9
:102B000008E0F8A3E0F9900DC2E8F0A3E9F0900D19
:102B1000C4122BA46011900DC4122BAB7009E548B0
:102B2000A2E2B392E2F548900DC6122BA460519038
:102B30000DC6122BAB704A201B43201C4020093DC0
:102B4000909F16E0F5F0A3E045F06031D200D2018D
:102B50007535FF7536FF7537FF7538FF43200375F0
:102B60004BA67543A6755A00D276D211D21CC0343A
:102B70001288DFD034122C6C754F06D21D5348F7E3
:102B800022201BFC201CF92009F69022CA12A493D3
:102B9000909F16E0C39EA3E09F50E5900DC6E4F021
:102BA000A3F080D9E0F8A3E0F94822C3E89401F843
:102BB000E99400F9E8F0A3E9F04822754F00022CEF
:102BC00068909F12E0B4D2F6A3E0B404F1D2509022
:102BD00022CA312650E89022CA12A493EF4E70DB2D
:102BE000201C03301BD8909F1DE0F5F0A3E045F0BA
:102BF000600AE0900DC9F01582E5F0F0756C009068
:102C00009F005348F771A46011754808909F0075A4
:102C1000A00D78C6E0F2A308E0F2909F0675A00D23
:102C200078C0E0F2F5F0A308E0F245F07006E54860
:102C30004401F548909F0475A00D78C2E0F5F0F2CC
:102C4000A308E0F245F07006E5484402F548909F7D
:102C50000275A00D78C4E0F5F0F2A308E0F245F0AB
:102C60007006E5484404F54822022D492026FA2042
:102C70005003022D49E54BB4A503022C84900DC8E6
:102C8000E4F0A3F0756C00909F1075A00D78C0E083
:102C9000F5F0F2A308E0F245F07006E54854FEF5C1
:102CA00048E54830E130909F08E0B40F23A3E0B43A
:102CB000271E909F0EE0F8A3E0F9486013E8240176
:102CC000F8E93400F9900DC2E8F0A3E9F0022CDD38
:102CD000E54854FDF548900DC2E4F0A3F0E5482026
:102CE000E20A900DC4E4F0A3F0022D13909F0CE0D3
:102CF000F8A3E0F9486013E82401F8E93400F990FA
:102D00000DC4E8F0A3E9F0022D13E54854FBF548A3
:102D1000022D13E54830E310E54854F7F548900DCF
:102D2000C6E4F0A3F0022D49909F0AE0F8A3E0F971
:102D3000486016E82401F8E93400F9900DC6E8F07F
:102D4000A3E9F0E5484408F54822909F12E0B4D288
:102D500007A3E0B40402C322D322B420004001142C
:102D6000F975F02090100A12A4657905E0C3942E3D
:102D70006003A3D9F7E922F875A019E54A547FB496
:102D80002000400375A01AEFF208EEF222F875A0B9
:102D90001BEEF208EFF222758306FC758202C00476
:102DA00012A493D004EC75F008A4B177758208C022
:102DB0000412A493D004EC75F008A42402B1777532
:102DC000820EC00412A493D004EC75F008A424046D
:102DD000B177758214C00412A493D004EC75F00886
:102DE000A42406B17775821AC00412A493D004EC0F
:102DF00075F004A4B18D758220C00412A493D00490
:102E0000EC75F004A42402B18DEC543FB41E03020F
:102E10002E15B43D7475822612A493900D90122E37
:102E20008AEFF0A3EEF075830675823412A49390B6
:102E30000D96122E8AEFF0A3EEF075830675823B95
:102E400012A493900D98122E8AEFF0A3EEF07583E2
:102E50000675824212A493900D9A122E8AEFF0A367
:102E6000EEF075A006782D120FDE900D92122E8ACC
:102E7000E540F0A3E53FF07831120FDE900D94129B
:102E80002E8AE540F0A3E53FF022EC543FB41E014A
:102E900022E582240CF58222E57120E333E55AB461
:102EA0000D03022EA8B4102890060212A493E57315
:102EB00075F008A4F5F0E55AB41006E5F02404F521
:102EC000F0E562B40206E5F02402F5F0E5F0B17732
:102ED00022780075A029306445C26479B2E7B4FF56
:102EE00009902F52122F38022F32B4FE09902F5919
:102EF000122F38022F32B4FD0E902F60122F387827
:102F000005E55DF2022F32902F67122F3875F0041D
:102F1000780279FCE3F20809D5F0F9022F3279B191
:102F2000E77009902F44122F38022F32902F4B1246
:102F30002F38780612A52822E493F9A3E493F20827
:102F4000A3D9F9220605040041000A060503076813
:102F500000140605060600000006050606004142AC
:102F600006050603000000020506201B3320093079
:102F7000201C2D51475029909F18E0F5F0A3E04503
:102F8000F0601D9000FCE0F5F0A3E045F0701390B8
:102F90009F18E0FEA3E0FF9000FCEEF0A3EFF0220C
:102FA000D274229000A2022FAC9000A4E02401F081
:102FB000A3E03400F02275A00679CEE3B42B5A7951
:102FC000D3E3B42B5479DDE3B4294E78CF120FC488
:102FD000E53F2460F53FE5403400F540C3E53F336D
:102FE000F582E54033F583E5097007E58324600247
:102FF0002FF6E5832466F58378D5120FDEE53FC210
:10300000AFD290F0C290D2AFA378DA120FDEE53FD4
:10301000C2AFD290F0C290D2AF22C000C0F0C0E0E8
:10302000C082C083C0D020132790D000E0543FB4AA
:103030001000401C5438B41003023050B41803027E
:103040003050B42803023050B43000B42002D26CA7
:10305000C2B475F0017404120903D2B4D0D0D08385
:10306000D082D0E0D0F0D000C2893290C00274206B
:10307000F07430F090C00274C0F090C00FE090C0C7
:103080000274B0F090C0007424F090C0007417F087
:103090007407F0909EB0E0540FB40F0990C0017413
:1030A000BBF00230C8909EB1E0540F700990C0018F
:1030B00074BBF00230C8B4030990C00174AAF002D6
:1030C00030C890C00174CCF090C0027401F090C080
:1030D00005743BF0909EB1E0540FB4010990C00418
:1030E00074B0F00230EC90C0047430F090C00A74F8
:1030F00090F07420F07430F090C00A74B0F090C07A
:103100000874A0F090C0087417F07407F090C0091C
:1031100074BBF022C000C001C0E0C0F0C083C08218
:10312000C0A0C0D0A29092E7A29292E6C0E0C2AE48
:10313000C292C29090C005E0543B30E007C0E0125C
:10314000319BD0E030E107C0E01231DDD0E030E368
:1031500007C0E01232E4D0E030E407C0E012322FC2
:10316000D0E030E507C0E012328CD0E07400B4004B
:103170000312A8EFC2CE90C005E0543B70BCD2AEA3
:10318000D0E0A2E79290A2E69292D0D0D0A0D082D6
:10319000D083D0F0D0E0D001D00032E515B51312C5
:1031A000E516B5140D90C00274B8F090C000740418
:1031B000F02290C001E020E20122748090C002F071
:1031C00075A003E516600205A0A815E290C003F003
:1031D00074012515F515E43516F51680BE90C0016D
:1031E000E020E00122909EB0E0540F700990C003EF
:1031F000E0129A0480E77407B50E03750B0A90C0BD
:1032000003E0B4290EE54A54F0B42003023211D28F
:10321000237429B43E0FE54A5420B420030232231C
:10322000755100743E75A002A851F2055180AE1090
:103230002432E561C39560401C90C009E020E201A2
:1032400022748090C00AF075A007A860E205609023
:10325000C00BF080DA90C00A74B0F090C00874001F
:10326000F0D2242290C00A7408F090C0067400F0D6
:10327000A374F0F090C00EE0C2DE74FD25E9F5ED18
:1032800074FF35F9F5FDD2DE75DD492290C009E005
:1032900020E0012290C00BE0C0A075A006A860F25B
:1032A000D0A0756D00F5F0E54A54F0B42003023269
:1032B000D0E5F0B4291AD21E74C8C2DE25E9F5EDB6
:1032C000743235F9F5FDD2DE75DD49C2120232E005
:1032D0007439C2DE25E9F5ED74A335F9F5FDD2DECA
:1032E000056080A890C00FE090C00A7491F07560EE
:1032F00000207D1320131020100D74C0C2DE25E9BC
:10330000F5ED745D02331174FDC2DE25E9F5ED744F
:10331000FF35F9F5FDD2DE75DD49D212220246CB2A
:1033200002452B024628023AD90258EF0259A6025A
:103330003BEE023A9D023C2A023BF3020849023C62
:1033400014023B560259A6023C0702504E0208499D
:10335000020849024628023AD9020849023E5002B0
:103360003E5A020849020849023E5A023E66023E9F
:1033700050020849020849023E500248A902084981
:10338000020849024628023AD9020849023E990237
:103390003EA2020849020849023EA2023EAE023E97
:1033A00099020849020849023E990248A9020849BF
:1033B000020849024628023AD9020849023F41025E
:1033C0003F43020849020849023F49023F27023FA2
:1033D00089020849020849023F83023FAC020849BA
:1033E000020849024628023AD90208490240270247
:1033F000402702084902084902403D0240D80240E5
:10340000690208490208490240530241270208495B
:10341000020849024628023AD9020849020849022C
:1034200008490208490208490208490208490208F5
:1034300049020849020849020849020849020849A4
:10344000020849024628023AD902084902422402E7
:10345000424402084902084902424E0241DC02424B
:103460009802084902084902428D0242DE020849D8
:10347000020849024628023AD90208490244C40215
:103480004350020849020849020849024449020817
:10349000490208490208490243AB0244F80246CBFC
:1034A00002457F024628023AD90208490245AB028A
:1034B0003BEE020849020849023BF3020849023C7C
:1034C000140208490248A9023C140245A102084915
:1034D000020849024628023AD9020849020849026C
:1034E0000849020849020849020849020849020835
:1034F00049020849020849020849020849020849E4
:10350000020849024628023AD9024E28024E2802F1
:103510000849020849020849020849020849020804
:103520004902084902084902084902505302089515
:10353000020895024628023AD90208950208950227
:103540000895020895020895020895020895020858
:1035500095020895020895020895025053020895B5
:10356000020895024628023AD902089502089502F7
:103570000895020895020895020895020895020828
:10358000950208950208950208950208950208958B
:10359000020895024628023AD902089502483102EB
:1035A00047AD0208950208950247A3024831024739
:1035B000E50208950208950247F3023E1C020895B1
:1035C000020895024628023AD90208950248DD020F
:1035D00048E9020895023BE60248E90248F502483C
:1035E000DD023BD80208950248DD025053020895DF
:1035F000020895024628023AD902089502493F027C
:10360000494802089502089502494802495402496E
:103610003F02089502089502493F0248A902089511
:10362000020895024628023AD9020895024831025A
:1036300047AD0208950208950247A30248310247A8
:10364000E50208950208950247F302490B02089526
:10365000020895024628023AD90208950249B102A9
:1036600049D90208950249A0020895020895020866
:10367000950208950208950249C002505302089528
:10368000020895024628023AD9020895024B09021F
:103690004B1C020895020895020895024B09020886
:1036A00095020895020895024B3F02652B0208958A
:1036B000020895024628023AD902089502089502A6
:1036C0004C57020895024CF3024C57020895024CE5
:1036D0006F024C96020895024C6F02682D02089505
:1036E000020895024628023AD90208950208950276
:1036F0004C57020895024B80024C57020895024C29
:103700006F024CF8020895024C6F02682D02089572
:10371000020895024628023AD9020895025F35024E
:103720005FEA020895020895025F44025F2A025F81
:1037300091020895023E79026009023E79020895DD
:10374000020895024628023AD90208950251FB0266
:1037500052910208950254200252320251B1025392
:103760002D02084902089502538C02504E02084966
:10377000020849024628023AD9020849025765025E
:10378000578802084902084902578102577A0257AE
:10379000AA0208490208490257B102490B020895DA
:1037A000020895024628023AD902089502581D02DD
:1037B000583702089502089502582E02581D0258E3
:1037C0006F02089502089502587D02490B02089580
:1037D000020895024628023AD9024D3002084902F1
:1037E000084902089502089502084902084902089A
:1037F000490208490208490208490250530208498F
:10380000020849024628023AD9025AA3025A8D02F6
:103810005A09020849020849025A04025A55025A32
:103820002D020849025A95025A350250530208499E
:10383000020849024628023AD9020849025A8D0272
:103840005AF40208490248A9025AEF025B40025B9F
:1038500018020849025A95025B2002505302084997
:10386000020849025DB0025DBE0261F10208490230
:103870005BB7020849020849025BB2025C84025B42
:10388000CD020849020849025BD5025C02020849E0
:10389000020849025DB0025DBE0208490208490201
:1038A0003D09020849023C95023C95020849023D47
:1038B0000F020849020849023C90023D6E02089539
:1038C000020895020895023AD90208950208950265
:1038D00008950208950208950208950260D502082D
:1038E0009502089502089502089502505302089522
:1038F000020895024628023AD9020895026124027C
:10390000612D02089502089502612D02613902615C
:10391000240208950208950261240248A90208952C
:10392000020895024628023AD902089502617E02F1
:10393000618C02089502089502618A02617E02612B
:10394000B00208950208950261B20260F002089583
:10395000020895024628023AD90262CB0208950273
:103960000895020895020895020895020895020834
:103970009502089502089502089502505302089591
:10398000020895024628023AD902640B0208950201
:10399000635202089502089502635202633402637F
:1039A00052020895020895026352026206020895C7
:1039B000020895024628023AD9025053020895029D
:1039C00064B50208950208950264AB02647802644B
:1039D000D50208950208950264E80262CB020895B8
:1039E000020895024628023AD90208950265750236
:1039F0006590020895023BE60265900265A80265A3
:103A000075023BD80208950265750250530208956D
:103A1000020895024628023AD90208950265F60284
:103A200066040208950208950266020265F60266BF
:103A30002802089502089502662A02652B0208955D
:103A400002089502673A023AD902089502089502DF
:103A5000676D0208950267500267640266BE0267DE
:103A6000A402675A0208950267AA02682D02089507
:103A7000020895020895023AD902089502089502B3
:103A80006861020895020895026861026869026827
:103A9000610208950208950268610248A9301D2B51
:103AA0009000FE7407F0A3E543F004B4A5004002C3
:103AB0007400F5F0F5431229B0E5F0400A125DF00C
:103AC000E0B45303020849E54380DFD21D7543008B
:103AD000301C03854B43020849120399106305907B
:103AE00000D9E4F0C274E55AB41C03755A00B41D41
:103AF00003755A00301B03020849755A00754F00C0
:103B0000D21BD276D211909D47E0A2E072009200C3
:103B1000A2E1720192017535FF7536FF7537FF75A9
:103B200038FF753AFFC206C202C207C2031026035D
:103B3000201C1B122C6C909D48E06012909BC9E0E9
:103B4000F53BA3E0F53C453B6004D207D203D22EFF
:103B5000756C0002084920264D301C4D755A0B909B
:103B60008417126DE490842B126DD290843F126DF5
:103B7000C0908453126DAE75A00178E090002EE2E3
:103B8000F0A308B8E8F978F0900042E2F0A308B892
:103B9000FAF975A0007848909C81E0F208A3E0F261
:103BA0001270BC02087D020849201D202026262014
:103BB0001B23200920201C1D122A475018909F18F3
:103BC000E0F5F0A3E045F0600C0260B4E543B49684
:103BD000005002D277020849E51EB40006751E01A6
:103BE000751D04020849E51EB4010002084974016C
:103BF000023BF5740A2543B4A5004001E4F54312E5
:103C000029B040EA020849E543600414023C2074EC
:103C1000A4023C20E543C3940AB4C800400274A443
:103C2000F5431229B040E0020849755A1D123D556E
:103C3000125C2175620075710075720090795312E3
:103C40006DE4907953126DD2907953126DC09079D2
:103C500053126DAE1270BC78A376FF08B8ABFAE5CC
:103C6000711229B0401AE571125DF0E0B45311E50C
:103C70007224A3F8E571F60572E572B40800500AE3
:103C80000571E571B49FD8757100123D760208493F
:103C900078A3023C9778AA79AAB7FF03020849C023
:103CA00000123D55D0007572007571A01571E57157
:103CB0001229B04016E571125DF0E0B4530D0572A3
:103CC000E572B408E7857172023CD2E57170DD756A
:103CD0007100E6F5710571E5711229B0400CE571CE
:103CE000125DF0E0B45303023CF2E571B49FE602CA
:103CF0000849C3E571957250057572008157857248
:103D0000717572008157020849757207023D12757C
:103D1000720079AAB7FF03020849123D5578A3E65D
:103D200014B4FF07E4757100023D50F571E571129E
:103D300029B04012E571125DF0E0B453090572E557
:103D400072B40800500A1571E571B4FFDE75710098
:103D5000757200815775F000126C4378A8742012B8
:103D600069A8D8F9126C3474B290A001F022B15550
:103D7000757200025C0279A3780075A000E775F007
:103D800020A42409F582E5F03400D2E7F58375F02C
:103D90000AE0F2A308D5F0F9E9C394A375F015A4DD
:103DA00004F5F0C001126C43D00175A0007800C08A
:103DB00001E21269A808B809F8126C3474B290A034
:103DC00001F0D00109B9AB005004E7B4FFAA79A310
:103DD000B9AB0122E7B4FF0122C0011270D3D001B8
:103DE00075A0007846E0F208A3B850F9E9C394A39F
:103DF00075F015A4240BF5F0C001126C43D00178C6
:103E00004675A000C001E21269A808B850F8D001B8
:103E1000126C3474B290A001F00980B47562007520
:103E20005A01907E1E126DE4907E46126DD2907EF5
:103E300032126DC0907E6E126DAE900000E562751C
:103E4000F014A42582F582747EF01270BC02084939
:103E500005627403B562CB023E791562E562B4FF78
:103E6000C175620080BCE56275F003A4903E70737A
:103E700002470C023FB1023EC1756200755A0290C2
:103E80007E82126DE4907E96126DD2908166126DE4
:103E9000C0907EAA126DAE80A105627403B562DC8B
:103EA000C11C156274FFB562D3756202C11FE56261
:103EB00075F003A4903EB87302412D0242EF025EFA
:103EC000F0755A03756201E5627006909D40023EEE
:103ED000D4909D42E0F571A3E0F572907EBE126D24
:103EE000E4907953126DD2907EE6126DC0907953B2
:103EF000126DAEE5629000206009900034146003FA
:103F0000900048747EF0E562B40107AE72AF7102B2
:103F10003F1A909D42E0FFA3E0FE74307835128C8A
:103F2000BB1270BC020849E51EB4FF15E562909D06
:103F300040600914909D426003909D44D21912691B
:103F400077808475F001023F4C75F00A122FA3E5CB
:103F5000F02571F571E43572F5727402B562127470
:103F60009D257174FF35725006757200757163C1BD
:103F7000DB7419257174FC35725006757203757106
:103F8000E7C1DB75F001023F8C75F00A122FA3C365
:103F9000E57195F0F571E5729400F5724006700ACE
:103FA000E5717006757200757101C1DB756202C141
:103FB0001F755A0475730075740075710075620081
:103FC000907F0E126DE4E57375A0007806125DCF48
:103FD000D277757200125DEEE0B45319E562701B82
:103FE000907FD6126DD2907FEA126DC090795312F5
:103FF0006DAE023FFB907F4A126DD274207820F2A2
:104000007834F2E5627005780502401E1470057878
:104010002802401E147005782002401E7834747EF9
:10402000F21270BC020849E56275F003A4904031B9
:104030007302407F0240BD0240C30240C3E5627587
:10404000F003A4904047730240840240BD0240C385
:104050000240C3E56275F003A490405D7302409E88
:104060000240C90240CF0240CFE56275F003A49040
:104070004073730240A30240C90240CF0240CF0503
:104080007302408A740A2573F573E573B496004091
:104090000574007573001229B040E4023FC0157327
:1040A0000240AAC3E573940AF573E573B4C80040EF
:1040B000047495F5731229B040E4023FC075710194
:1040C000023FD0757101023FD0757102023FD07579
:1040D0007102023FD0023FC0757100E51EB4FFF5CA
:1040E000122FA3E57420E23460EBE562701875626C
:1040F00002E574782020E005756203783475A0002D
:10410000747EF2023FD2B4020DE57475620030E1B4
:10411000C475620380BF756200023FC005625362CE
:1041200001023FC0023FBD756201023E1F755A0683
:10413000756200757300909C00E57375F004A4250A
:1041400082F582E0F56AA3E0A2E0E56A92E2F56A10
:10415000A3E0F571A3E0F572908026126DE49079EA
:1041600053126DAEE573B40200500F90803A126D99
:10417000D290804E126DC0024186907953126DD25A
:10418000908062126DC0E5731242E4F8A962747EF9
:10419000B904004002743E75A000F2E562B4040563
:1041A000747E0241A7742075A000781FF2E56A545E
:1041B0000324051242E4F8A962747EB90502747EF4
:1041C00075A000F2E573B40200500BAF71AE7274CB
:1041D000307820128CBB1270BC020849E51EB4FF77
:1041E00043909C00E57375F004A42582F582E56296
:1041F000B4040DA3A3D219126977122FA30242248B
:10420000B40512C071856A71C219126977D0711232
:104210002FA3024224E573756204B40200400375C3
:1042200062052158E562B40400500D0573E573B4CE
:1042300002107573000242420562E562B40603751E
:1042400062002136E562B404417401024255E56220
:10425000B4041D740A2571F571E43572F572741990
:10426000257174FC357250067571E775720321581B
:10427000B405B1536A03056AE573B40200740250D1
:104280000104B56A03756A002158020849E562B461
:1042900004F875F0010242A0E562B4041A75F00A50
:1042A000C3E57195F0F571E5729400F572500675ED
:1042B00071007572002158B40518536A03156AE538
:1042C0006A30E70C756A02E573B402004002156AB1
:1042D00021581573E573B4FF0375730321367562B6
:1042E00001023E7C048322070A0D101F2830387516
:1042F0005A07756200128B0885697585687685672F
:1043000077856572856471909C81E0540FC4F5F0E7
:10431000A3E0540F25F0F57AF579908076126DE4DC
:1043200090808A126DD2907953126DC09079531299
:104330006DAE900007128BEB90001B128B98E5621C
:10434000124523F875A000747EF21270BC02084971
:10435000E562700E74012565D4B42401E4F56502AC
:1043600043A9B4010C2564D4B46001E4F5640243AC
:10437000A9B4020F74012568D4B413027401F5685E
:104380000243A9B4031074012567D414B57801E47D
:1043900004F5670243A9B4041074012569D4F569D2
:1043A00070077401257AD4F57A611AE5627018E510
:1043B000657005756523611A540F7007C3E5659430
:1043C00006F5651565611AB40118E5647005756434
:1043D00059611A540F7007C3E5649406F5641564B7
:1043E000611AB40216E568B40105756812611AB461
:1043F0001005756809611A1568611AB40319E56733
:10440000B40105857867611A540F7007C3E5679496
:1044100006F5671567611AE569701F756999E57A90
:10442000540F7007C3E57A9406F57A157AE57AB4E5
:104430001806757A19756900611A540F7007C3E57B
:10444000699406F5691569611A122FA3E562B40231
:104450000050117563007800128ADD8565728564ED
:10446000710244ECB402031244FE7801856763854F
:104470006864856965128ADDC071C072E57AC454CA
:104480000F2430F571E57A540F2430F572909C8139
:10449000D219126977909C81E0540F75F00AA4F547
:1044A000F0A3E0540F25F0F571909C83C2191269B6
:1044B00077D072D071856975856876856777128B3C
:1044C000080244ECE5627003857265B401038571EE
:1044D00064B402098576681244FE0244ECB4030316
:1044E000857767B4040685756985797A05627405F0
:1044F000B56203756200611A756201023E7CE5686F
:10450000B410004003C39406124515F578B5670052
:104510005002F56722832231283130313031313079
:1045200031303104832206091A1D20202603201C65
:1045300024201B21C21CC21D202644755A08126C5F
:10454000D2122A47500FD226909D42E0F558A3E0A0
:10455000F5590208959076D3126DE49078B3126DF8
:10456000D2907953126DC0907953126DAE126D3C9A
:10457000126D19126CF6126CD3755A0C02088FD298
:1045800013D27A757110D277C27E909D42E0F558B1
:10459000A3E0F559125E0C752000C21CC21D020872
:1045A00095752000C21CC21D025053201C03020836
:1045B00095A94309B948027900E9B54B030245FCC6
:1045C00019107B30E9B54B2C1475F020A4F582E569
:1045D000F02410F583E582307C0D241BF582E0B4D5
:1045E0004C12D27B0245FE241EF582E0B44805D26F
:1045F0007B0245FE09124601400280B7894302084A
:1046000095E91475F020A4F582E5F02410F583E017
:104610006014B4F403024626E9C39421F875A00A95
:10462000E2C36002D322C3221260E812039974FA33
:10463000F54B9000D9F0783576FF08B83DFA9076C2
:10464000E7126DE4907953126DD2907953126DC0D8
:10465000907953126DAE126D3C126D19126CF612F8
:104660006CD3909D48E06009E5205430F520024667
:1046700074752000755A09754F00124682C2750282
:104680000886307506122BC1128A64750B00E50E80
:104690006014750A0F750B00750C00750E08D20FAB
:1046A000202203750E09C209D213D27AC21BC22678
:1046B000C27EC27BC27CC228C20A755E00755F00E2
:1046C000122A14C21CC21D125E0C221260E8755A16
:1046D0000C20262F122A3ED2777571109078631223
:1046E0006DE4907953126DD2907953126DC0907928
:1046F00053126DAE126D3C126D19126CF6126CD322
:10470000020886755801755900020886E54A60035B
:10471000020849755A0D757300E5731229B0400AF5
:10472000125DEEE0B4530302472E057380EB756211
:1047300000757108D277E5627020124881500F90A1
:104740007953126DD2907E0A126DC002475A907D45
:10475000E2126DD2907DF6126DC0907F22E55AB4C0
:104760001003907F36126DE4E55AB41003437104D0
:10477000E57375A0007806125DCFE5731271C6125D
:1047800070BC75A000781D7420F27831F2E5627873
:10479000056007781DB402027831747EF202084980
:1047A000024853E56270F974092573F573E5626098
:1047B00003024855D2777571080573E55AB4100D98
:1047C000E573B4A50040107573000247D7E573B4D4
:1047D0009B0040037573001229B040D8125DEEE0D3
:1047E000B453D1E136E562600302486AE573C394CD
:1047F00009F573E562600302486CD2771573757131
:1048000008E55AB4100DE573B4A50040107573A403
:1048100002481DE573B49B00400375739AE573125B
:1048200029B040D6125DEEE0B453CF0247360247BE
:104830009DE51EB4FFF8E56270071248815002053D
:10484000620562757108D277E562B4031A75620079
:10485000024736D208D261122FA3D277757102E5D2
:1048600062B40203757103024736D208D261122F77
:10487000A3D277757100E562B402EC75710102474D
:1048800036E573B41A06908345024892B41B18901B
:104890008365E0B45311A3E0B4650CA3E0B46307EF
:1048A000A3E0B42002D322C322755A0E7562009091
:1048B0007D7E126DE4907D92126DD2907C8E126D91
:1048C000C09080EE126DAE900000E56275F014A409
:1048D0002582F582747EF01270BC0208490562E5FB
:1048E00062B404CB75620080C61562E562B4FFBF96
:1048F00075620380BAE56275F003A49048FF730205
:10490000490B023E1C02682D024FE8755A0F756272
:1049100000907E1E126DE4907DBA126DD29075E308
:10492000126DC0907C02126DAE900000E56275F0D1
:1049300014A42582F582747EF01270BC0208490529
:1049400062E562B404CB80C31562E562B4FFC27550
:10495000620380BDE56275F003A490495E7302496D
:104960006A0260F00257020257D3E54A6003020868
:1049700049755A1002471602505F755A115308FBC9
:10498000757120757220D2737562FF907917126D60
:10499000E4907953126DD290793F126DC002086B8A
:1049A000E50820E205B2E00249ACB2E1F5080208F0
:1049B0006BE50820E204B2E280F2755A0002089525
:1049C000E50820E20920E0F57562010249D420E102
:1049D000EC756202D27102086BE50820E20920E062
:1049E000DC7562000249ED20E1D3756203D27102E9
:1049F000086B907917E50830E20390792B126DE48B
:104A0000E50820E20F90000A20E00F533E0F433EDE
:104A100040024A3290000730E1187441F07455A307
:104A2000F07454A3F0744FA3F07420A3F0A3F00229
:104A30004A4F744DF07441A3F0744EA3F07455A323
:104A4000F07441A3F0744CA3F0757220757120E5E9
:104A50000830E205741E024A5FE53E540F2410122E
:104A600070D375A0007832E0F208A3B83CF9E508ED
:104A700030E205741E024A7EE53E540F2410F543D1
:104A80001271BAE53EC4540F75F00FA49082182538
:104A900082F582E5833400F583E50830E21B541883
:104AA00023C475F014A49082632582F582E58334D3
:104AB00000F583126DD2024ACD75A0007814E493FC
:104AC000F208A3B821F8E572F208E571F21270BCA1
:104AD00022757001024ADA757000755A127562000B
:104AE00075720075710BD277907CB6126DE4907C74
:104AF000F2126DD2907953126DC0907CCA126DAED5
:104B0000124B4E1270BC0208490562E562B4020203
:104B100080F77404B562E975620080E4E51EB4FFB5
:104B20001B757202D261122FA3E562128894427142
:104B300053710FE562C42571F571D277020849E51A
:104B40001EB4FFF8D261122FA375720180D69000B7
:104B5000097420F090001EF0900032F0900045F0B3
:104B6000E5629000096015B4010690001E024B7CBE
:104B7000B40206900032024B7C900045747EF02215
:104B8000755A13756200757300907C16E55AB4135C
:104B900003907C2A126DE4907C52126DD2E5627013
:104BA00006900024747EF07E00AF73742078251286
:104BB0008CBB7825E2B420037430F2907C7AE573E4
:104BC0006019124D1A5009907953126DC0024C3978
:104BD000E55A907C66B41403907CA2126DC0E56225
:104BE0006006900035747EF0E55AB4130CE57375D9
:104BF000F004A4909980024C04E57360F075F020F5
:104C0000A49098002582F582E5F03583F58375A0A0
:104C1000007836E0F2A3E0FFA3E0FE74407837129C
:104C20008CBB7836E2B430067420F2024C3908E2CC
:104C3000B420067430F2B839F5E57375F020A4900D
:104C4000980025822403F582E5F03583F583126D03
:104C50008B1270BC020849E5626008125E36122FA2
:104C6000A361890573E573B40C037573006189E56D
:104C7000626008125E9A122FA361891573E573B4FE
:104C8000FFEB75730B6189E573124D1A4006E562FF
:104C9000B2E0F5626189E57360D375F020A4909865
:104CA000002582F582E5F03583F58375A00878004C
:104CB000E0F208A3E582B403F7E57375F004A4906D
:104CC00099802582F582E5F03583F58375A0087813
:104CD00000E2F571C219C083C082126977D082D018
:104CE0008305827801E2F57108E2F572D219126942
:104CF000776189755A146183E573600302089575BD
:104D00007130C219909980126977757100757200BF
:104D1000909981D219126977618975F020A49098D1
:104D2000002582F582E58335F0F583E0B43000227A
:104D3000025B5920261B750F00754E00124E8040F5
:104D400013754E02124EBD400B754E04124EFA40C2
:104D500003020849755A0AE54EA2E0921720172A65
:104D60007904751C00909D80B402004003909DC0A2
:104D7000E0B44608E51CD2E0D2E1F51CE51C0303D3
:104D8000F51CE582240EF582D9E6757100301741D5
:104D90001286B6E57175F00EA42582F582E090804A
:104DA0009EB44603907953E571B40006126DE40297
:104DB0004DCDB40106126DD2024DCDB40206126D76
:104DC000C0024DCD126DAE757100024DE9057180C6
:104DD000BF907953126DE4907953126DD29079534C
:104DE000126DC0907953126DAE1286B6E57175F0F2
:104DF0000EA42582F582C227E0B44602D227A3A3DF
:104E0000A3790775A000E57175F014A4F8E03027C8
:104E1000027420F208A3D9F505717404B571CA12A1
:104E200084961270BC02086BE54E30E006750F00E8
:104E3000024E3BE50FF46003020849E54EB405104D
:104E4000750F00124E80402C754E01E54E024E60EB
:104E5000B4030D750F00124EFA4019754EFFE54E62
:104E6000B40111750F00124EBD4009750F00124EAE
:104E700080754EFF054EE54EB40603754E00A157F2
:104E8000909D80E0B4460AE582240EF582B4B8F322
:104E900022909D80E0B4461AE582B48003430F035C
:104EA000B48E03430F0CB49C03430F30B4AA0343E6
:104EB0000FC0740E2582F582B4B8D9D322909DC05C
:104EC000E0B4460AE582240EF582B4F8F322909D00
:104ED000C0E0B4461AE582B4C003430F03B4CE0366
:104EE000430F0CB4DC03430F30B4EA03430FC07428
:104EF0000E2582F582B4F8D9D322909E00E0B44604
:104F00000AE582240EF582B438F322909E00E0B4C4
:104F1000461AE582B40003430F03B40E03430F0C9B
:104F2000B41C03430F30B42A03430FC0740E258210
:104F3000F582B438D9D32275A009E51BC2E0F51B70
:104F4000125E18E51BD2E0F51B125E18E51BC313B9
:104F5000F51B75A009E51B75F00CA42481F8C000B1
:104F6000120FC4D00018E2B42D03125DFD85405C21
:104F7000853F5DE51B75F00CA42487F8C000120F77
:104F8000C4D00018E2B42D03125DFDAF40AE3FEF78
:104F900020E711E55C20E72CC3E55D9EE55C9F40C2
:104FA00023024FB5E55C30E70CC3EE955DEF955CF1
:104FB0004003024FC4758309E51B2323F58274FF68
:104FC000F0024FE7855D3F855C40125DFD7583090A
:104FD000E51B2323F582E53FF0A3E540F0A3EE2592
:104FE0003FF0A3EF3540F022755A0B9080DA126D36
:104FF000E49080B2126DD29080C6126DC075A00F81
:105000007810E275F008600A900032E2F0A308D54B
:10501000F0F97819E27009907953126DAE025038A8
:105020009080C6126DAE75A00F781975F0089000CB
:1050300046E2F0A308D5F0F975A000781E9096CE50
:10504000E493F2A308B826F81270BC02087D43541A
:1050500080C211755A00A226821C921D0208497551
:105060005A16C2697573007570009074DF126DD2A4
:10507000907953126DAE757141E573606B75830D58
:10508000758202E5706003758206E0B437005058FF
:10509000909F14E0700AE562B40200500302516A66
:1050A0009074DF126DD2909F14E09075F7B43009C0
:1050B00090760B126DE40250D7126DE4900D02E071
:1050C000C3943175F014A490761F2582F582E5F023
:1050D0003583F583126DD290765B126DC074961293
:1050E00071C61270BC020849E5736007909A4EE0E1
:1050F000B40800757200D2770250FE1254539074B7
:10510000F3126DC09074CB126DE412540FE582243B
:105110000DF582E5736001A3E075A0007802125DD1
:10512000CFE570232573249B7806125DCF12540FB0
:10513000E5736006E5822406F582E0A3FFE0A3FEA6
:105140007430782A128CBBE0A3FFE0A3FE743078A1
:1051500031128CBBE0A3FFE0A3FE74307838128CD0
:10516000BB1254D21270BC02084990766F126DE4E3
:10517000900D06E09076836003907697126DD29042
:1051800076AB126DC09076BF126DAE1270BC020885
:1051900049B6021A06E570232325732573F5827537
:1051A000830DE0756201B44603756205017902085A
:1051B000497886B603DB122FA3E562B40200402FC4
:1051C000B40500503412540FE5736006E5822406DE
:1051D000F582E5621414232582F5827887867108AA
:1051E0008672D219126977D277788AE6D2E3F60509
:1051F000627405B5620375620101FB0573E57320F6
:10520000E10DE573757140B40103757160808675B9
:10521000730005709092C0E57075F020A4241D25E0
:1052200082F582E5F03583F583F583E0540F70D283
:10523000015312688C500AD269757109D27702083D
:1052400049D208E5737010788AE630E11A75710862
:10525000D269D277020849788AE630E20A75710984
:10526000D269D277020849E562B40120E573600A89
:10527000909A4EE0B4080302528C75720275714127
:10528000E5736003757161D277025329740A025283
:10529000DF12688C500AD269757109D27702084909
:1052A000C208E562B40526E57075F004A4257325EF
:1052B00073F58275830DE0B446030252C0B4300A20
:1052C000D269D277E5732408F571020849E562B422
:1052D000010BE57360A4909A4EE0B4089D740178C8
:1052E0008726F650020806E562B40124E5736020C3
:1052F000909A4EE0B40819C3740F78879674270803
:105300009650077887760F08762712532C0253237E
:10531000C3788774E796740308965007788776E712
:105320000876031254941270BC0208492212688C49
:10533000500AD269757101D277020849D208E57323
:105340007010788AE630E11A757100D269D277025E
:105350000849788AE630E20A757101D269D277028B
:105360000849E562B4011FE573600A909A4EE0B403
:105370000803025386757201757141E57360037508
:105380007161D27780A375F00A0253DA12688C50EB
:105390000AD269757101D277020849C208E562B480
:1053A0000525E57075F004A425732573F5827583D2
:1053B0000DE0B446030253BBB43009D269D269D2BE
:1053C00077857371020849E562B4010BE57360A546
:1053D000909A4EE0B4089E75F0017887E695F0F655
:1053E00008E69400F620E705788746700778877608
:1053F00001087600E562B4010DE5736009909A4EEC
:10540000E0B40802712C1254941270BC020849E5F1
:105410007075F040A42440F582E5F0349AF58322BB
:105420007886E6B60325E5737015788AE6B2E1F66C
:10543000A2E1741092E5F571D277D26902545178E5
:105440008AE6B2E2F6A2E2741180E9B4010378863A
:10545000062195E562603CB4010A909A4EE0B408DA
:105460003202548B909A40E5736003909A46E5703F
:1054700075F040A42582F582E5F02583F583E56289
:10548000C3940275F002A42582F582E0A37887F622
:1054900008E0F62278878607088606E5626032B45F
:1054A0000115909A4EE0B40828788786070886068A
:1054B000781F74400254CEB40205782A0254CCB44A
:1054C000030578310254CCB4040778387430128C58
:1054D000BB22742090001CF090004AF0743A9000B7
:1054E00029F0900030F0900037F0E562600A125524
:1054F00014F875A000747EF222742090001CF074E1
:105500002090004AF0743A900029F0900030F0901A
:105510000037F022048322051C2930374A02570144
:10552000025614900600E0B43CF39074DF7814E463
:105530009375A000F208A3B81EF5909A4DE573602C
:10554000DF75830D758202E5706003758206E09059
:105550009A4EB4370050C9909F14E0705FE562B472
:1055600002005058900D03E0907683B4410390768A
:1055700097126DD275A000780B79D575F004E3F21F
:105580000809D5F0F9749C1270D375A000781EE05C
:10559000F208A3B828F974001270D375A00078320D
:1055A000E0F208A3B83CF974961270D375A00078A5
:1055B00046E0F208A3B850F91270BC22749612703B
:1055C000D375A0007832E0F208A3B83CF9900D0240
:1055D000E0B4301B7562007886B6030375620590EF
:1055E0007953126DD290760B126DE41270BC22903A
:1055F0000D03E0C3943175F014A490761F2582F555
:1056000082E5F03583F583126DD21270BC9075F788
:10561000126DE422E57075F040A42582F582E5F074
:105620003583F583E01270D375A000780AE0F208A4
:10563000A3B814F9E570232325732573F5827583C8
:105640000DE070057405025663900D00E57075F06D
:1056500004A42582F582E573700302565FA3A3E0DC
:10566000C3944175F014A49075072582F582E583F3
:105670003400F583126DAE900D00E57075F004A452
:105680002582F582E5736008A3A3788AE620E21AF2
:10569000E0B441030256AAB446030256AAA3E0C3EB
:1056A000944275A0007847125DCFE57023257324DE
:1056B0009B1270D3A375A000784BE0F208A3B84FFB
:1056C000F9E57370037425F291F97886B6030291B7
:1056D000D2E570232325732573F58275830DE0B41D
:1056E000460D7886B6031775620591D20256FE788C
:1056F00086B6030AE562B4050575620191D212709F
:10570000BC22755A17756200757000907593126D02
:10571000E49075CF126DD29075BB126DC09075CFAD
:10572000126DAE75A000E57023042430F5F005F08D
:105730007805F2E5F0782DF2757200757150D27728
:10574000781C747EF21270BC02084975A00078447F
:105750007420F2781CF2E56260027844747EF212E2
:1057600070BC020849E57004B4050040028093242F
:10577000961229B0408C057080A9056253620180A1
:10578000CAE51EB4FF21D208E51EB4FF1AD2611289
:105790002FA3757150E5626009757170788AE644CF
:1057A00020F6757202D277020849E51EB4FF21D2B5
:1057B00008E51EB4FF1AD261122FA3757150E5627D
:1057C0006009757170788AE64420F6757201D277A7
:1057D000020849757300125DEEE0B453030257EC02
:1057E0000573E573B4960040ED020849755A1875C3
:1057F0006200907F0E126DE4907BC6126DD2907B9A
:10580000DA126DC0907953126DAEE57375A0007811
:1058100006125DCF1258B21270BC020849E51EB4E0
:10582000FFE80562E562B403E175620080DCE562D1
:105830007021740A02583DE562701874012573F5F1
:1058400073B4960040047400F573125DEEE0B45337
:10585000EA80B7C0E0122FA3D0E0B40109D261D230
:105860007775710180A4D261D277757103809BE551
:1058700062700AE573C3940AF573025883E5627097
:10588000151573E573B496004003757395125DEEBC
:10589000E0B453E9010AC0E0122FA3D0E0B401093B
:1058A000D261D277757100010AD261D27775710227
:1058B000010A7420900005F0900014F0900028F088
:1058C000E5621258CDF875A000747EF2220483229E
:1058D000051428900600E0B43C11E5731270D375EE
:1058E000A000783CE0F208A3B846F91270BC22751B
:1058F0005A197562009081D9126DE4907953126D36
:10590000D2907953126DC0907953126DAE1270BC63
:10591000020849907953126DD2907953126DC07577
:10592000A0009000D0E0F5F0A3E045F07009908170
:10593000ED126DD20259827E00EE9000D06003908D
:1059400000D1E0FF7900EE781460027828EF9079BA
:105950005330E009905986EE6003905996E975F04E
:1059600002A42582F582E5833400F583E493F2A353
:1059700008E493F2A308EF03FF09B908D00EEEB4D0
:1059800002B71270BC22203120322033203420355F
:10599000203620372038203931303131313231331F
:1059A000313431353136E55AB421067562FF02597A
:1059B000B485456278867600751E00755A1A757131
:1059C000017572009073E6E562B4FF0690740E02F2
:1059D00059D8B405039073FA126DE4907422126DD5
:1059E000D2907436126DC0907953126DAE90003C17
:1059F000747EF0AE72AF717430783D128CBB127051
:105A0000BC020849740A025A107401300802740F6B
:105A10002571F571E5723400F572C3E57194E7E51F
:105A200072940340CE7571E775720380C6C3E57149
:105A3000940A025A42C3E571300805940F025A4293
:105A40009401F571E5729400F57230E7A675710066
:105A5000757200809EE572B4020DE571B470089015
:105A60009C17D219126977909C17E0B5710BA3E0CF
:105A7000B57206751EFF025AAE751E00E562B4FFD0
:105A800003026206B405030249770248A9E562B43D
:105A9000050E024977E562B405030208490248A9E8
:105AA000020849E562B4FF030262060208497886EB
:105AB0007603755A1B90744A126DE490745E126DF1
:105AC000D2907472E562B4FF0690740E025AD5B497
:105AD0000503907486126DC090749A126DAEAE720A
