:105B9A00400C125EFEAA82AB83125EFE800A12607D
:105BAA0016AA82AB83126016C0018F018E00125EA4
:105BBA0043D001EC240FED3400FCEE3400FDEF3449
:105BCA0000FE8583F0E5822CFCE5833DFDE430F799
:105BDA0001F43E30F7054003E48004600474FFFDDD
:085BEA00FC09EDF719ECF722AC
:10221000C0D0C0E0C0F0C082C083C000C00230990E
:1022200005C299122263309805C29812223DD0024D
:10223000D000D083D082D0F0D0E0D0D032A849E511
:1022400099B43E03754900B42913121FBF7583006A
:10225000758200E0B43E09C29CD2078003121FBF02
:10226000054922C2B4E549B52D11C2B07830D8FE77
:10227000D2B0D2B475490075985022121FC7F59993
:10228000054922020073900005E0B4521DA3E0B49A
:102290007318900008121EB6EE23F582758305E0D0
:1022A000FFA3E0F8121EA5021477900005E0B458D1
:1022B00008A3E0B458030214EB900006E0B44F0A00
:1022C000A3E0B44C05A3E0B44400900005E0B4578B
:1022D00008A3E0B44503021609900007E0B4430ADE
:1022E000A3E0B442030216A5804A900005E0B45270
:1022F00008A3E0B44503021544900005E0B44D0383
:10230000021463900005E0B44A0302141C90000715
:10231000E0B45303022665900005E0B441030225B2
:1023200080900007E0B4480302261B02008F0223BE
:10233000D10223E6900009121EB6EF600302007975
:10234000EEF550900008E0B458E71224F2B4010E04
:0C2350007513017512B97511A975100BF9
:10235C0080591224F275F0B07515BC7514ED751119
:10236C000D751058B4030F75F0B27515B17514F1E5
:10237C0075110C75109212602385831385831212CC
:10238C00602385831785831612250F1224F2504A79
:10239C0075F0CAB4030375F0CC125EFE8583138509
:1023AC008212125EFE858311858210E55023232450
:1023BC0044F5F0851383851282125FFA85118385AB
:1023CC001082125FFAE550B41D0D78A676000876DF
:1023DC0000087600087600020079E55078A6125FB6
:1023EC00CA40E21224F25034900008E0B4512DE5BA
:1023FC00F075F0B0B4030375F0B290000CC0F0129D
:10240C001F1BD0F08D838C82125ADF900018C0F005
:10241C00121F1BD0F08D838C82125ADF1224F250C3
:10242C0026900008E0B4201FE5F075F0B0B403036B
:10243C0075F0B21260238583138582121260238596
:10244C008317858216801490000C121F1B8D138C21
:10245C0012900018121F1B8D178C16900011121F52
:10246C002E85831185821090001D121F2E858315D9
:10247C00858214C010C0111256F250028061E550D2
:10248C0023232444F5F0850183850082125FFA85AD
:10249C001183851082125FFAD011D0101224F250E1
:1024AC0038900011C010C011C012C013121D4BD0B7
:1024BC0013D012D011D01085831185821090001D7D
:0B24CC00C010C011C012C013121D4B45
:1024D700D013D012D011D010858315858214122500
:1024E7000F0223D1D0E0D0E00223D1E5502400F53C
:1024F700F0126016E583543FF5F0B402028007B48A
:1025070003028002C322D322E55023232460F5F07F
:10251700851583851482125ADF85178385168212E3
:102527005ADF851183851082125ADF85138385123E
:1025370082125ADF22900009121EB6EE232324448A
:10254700F5F0125EFE858313858212125EFE858387
:1025570011858210900007E075F0CAB44B0375F03F
:10256700CC851383851282125FFA851183851082C9
:10257700125FFA02007902008F900007121EB6EE72
:10258700F550700D78A67600087600087600087674
:102597000012204C401378A6E550B408004005947B
:1025A700080880F612605F46F690000A121EB6EE23
:1025B700F54E90000C121EB6EEF54F90000E121E4F
:1025C700B6EE0303424E854E83854F82E5502400C5
:1025D700F5F0125FEB900010121EB68E108F11905F
:1025E7000017121EB6E55023232446F5F085108206
:1025F700851183125FFA8E828F83125FFA754E0000
:10260700754F00D23B121D9EE5502444F5F0125F32
:10261700EB020079900009121EB6EEB41D28C0E047
:0C26270075F0E875832775820F125FEBD9
:1026330075F030758380758200125FEB75F031752C
:102643008380758200125FEBD0E0F55090000C128E
:102653001EB68E828F83E5502400F5F0125ADF02F6
:102663000079900009121E8F500302008FB42903D2
:10267300022917B428030229D3B42A030227D8B4A2
:102683002B02800AB4220050E1F550022A41900047
:102693000C121CE375F0F9125FEB900011121CE3AE
:1026A30075F0FA125FEB900016121CE375F0FB1243
:1026B3005FEB90001B121CE375F0FC125FEB9000C4
:1026C30020121CE375F0FD125FEB900025121CE352
:1026D30075F0FE125FEB90002A121CE375F0FF12F7
:1026E3005FEB75F0FA12601685831385821275F01D
:1026F300FB1260168583178582167511007510000D
:1027030075150F7514FF1256F28983888275F0F7D9
:10271300125FEB85118385108275F0F8125FEB125F
:1027230020B2600F90002F121CE375F0E8125FEBEC
:1027330002007975500090002F121D4B75F0F112B5
:102743005FEB858234858335783475F046125C48B7
:102753008F838E8275F0ED125FEB900036121D4B66
:1027630075F0F2125FEB858234858335783475F02A
:1027730046125C488F838E8275F0EE125FEB9000F9
:102783003D121CE375F0F3125FEB900042121CE361
:1027930075F0F4125FEB900047121CE375F0F5122D
:1027A3005FEB90004C121CE375F0F6125FEB9000A8
:1027B30051121CE375F0E8125FEB900056121CE314
:1027C30075F0E9125FEB90005B121CE375F0EA12FF
:0E27D3005FEB02007990000C121E8F758300E0
:1027E100F58275F0D1125FFA90000F121E8F75837A
:1027F10000F582F55075F0D2125FFA900012121DA9
:102801004B75F0D3125FFA900019121D4B75F0D47D
:10281100125FFA900020121E8F758300F582F55029
:1028210075F0D5125FFA741EB55022900024121E65
:10283100B68F838E8275F0D6125FFA90002B121E2E
:10284100B68F838E8275F0D7125FFA8018900023BD
:10285100121D4B75F0D6125FFA90002A121D4B75AE
:10286100F0D7125FFA900031121CFE85821590009C
:1028710035121CFE85828385158275F0C6125FFABA
:10288100900039121CFE85821590003D121CFE85B8
:10289100828385158275F0C7125FFA900041121C80
:1028A100FE858215900045121CFE85828385158266
:1028B10075F0BD125FFA900049121CFE85821590D9
:1028C100004D121CFE85828385158275F0BE125F54
:1028D100FA900051121CFE75F0DC125FFA9000555F
:1028E100121CFE858215900059121CFE858283857B
:1028F100158275F062125FEB90005D121CFE8582FD
:1029010015900061121CFE85828385158275F06326
:10291100125FEB02007990000D121AFC758300F52D
:1029210082F55075F0BF125FFA90000F121CFE7510
:10293100F0C0125FFA90001A121CFE75F0C2125F0D
:10294100FA90001A121CFE75F033125FEB9000131F
:10295100121D4B75F0C1125FFA90001E121D4B75CE
:10296100F0C3125FFA900025121CE375F0C4125FE8
:10297100FA900025121CE375F032125FEB90002AE9
:10298100121CE375F0DE125FFA900039121CE37538
:05299100F0C5125FFA21
:1029960090003E121CE375F0D8125FFA90004312C5
:1029A6001CE375F042125FFA900048121CE375F0C2
:1029B60043125FFA1220B2701190004DE0540FF5E9
:1029C6008275830075F0D9125FFA02007990000FC4
:1029D600121CFE75F0C9125FFA900036121CFE90AA
:1029E6000034E0B43103434F80854F33854F8385F0
:1029F6004E8275F0D0125FFA125EAB90000C121E7A
:102A06008F758300F58275F0CF125FFA90001B1266
:102A16001CE375F0C8125FFA900020121CE375F0F3
:102A2600DB125FFA75F0DA125EFEE5824403F58288
:102A3600F52C75F0DA125FFA020079C206B41E00B0
:102A4600B3920690003C121CFEC082900040121CFD
:102A5600FE854E83D082E5502430F5F0125ADF9081
:102A66000034121CFEC082900038121CFE854E8374
:102A7600D082E55024DFF5F0125FFA90000E121CAA
:102A8600FE90000CE0C394410303454FF583854E49
:102A960082E550232464F5F0125FEB900022121CAD
:102AA600FE900020E0C394410303454FF583854E15
:102AB60082E550232465F5F0125FEB30060890009E
:102AC60013121CE38008900012121D4B400AE550B9
:102AD600232400F5F0125FFA300608900027121C36
:102AE600E38008900026121D4B400AE5502324017E
:102AF600F5F0125FFA30062290001A121CE3E55038
:052B06002324A6F5F0F8
:102B0B00125FEB90002E121CE3E5502324A7F5F087
:102B1B00125FEB8024900019121D4B400AE55023E5
:102B2B0024A6F5F0125FEB90002D121D4B400AE529
:0E2B3B00502324A7F5F0125FEBC206020079CA
:10002600900000E0B43E46A3E0B42841900002E010
:10003600B45807A3E0B458028023900002121EB6FB
:10004600EEB442030207CDB44D0302084990000402
:10005600E0B45603021FD71220B2B5061090000472
:10006600E0A3B420028069B45409022286754900CF
:10007600D29C22754900D29C2243524321291890D2
:10008600007F80084E414B212990008AE493A3F219
:1000960008B429F8121EA5121EB0882DD29922C2C4
:1000A6001A75770075780008E2B4221C201A04D26B
:1000B6001A80F4087420F208AE78AF77745712539A
:1000C600827429F2C21A80CC301ADC12470980D712
:1000D600900005E0B44608A3E0B4430302253C9033
:1000E6000005121BA5E904608A1475F003A49000AC
:1000F600F87302017002045C02045C02045C0204F0
:100106005C0202C40202C40206770206770206D91E
:100116000206D90206D90206D902074902062D02AD
:1001260007CD02094A0209A7020A0C021227021089
:1001360041020DCA0214630215440214C3021609D1
:100146000216A50216C302170702174802177602FF
:100156001A7B021AE80217A60217B80217CA021774
:10016600DC02181402187002007975F0F912601694
:1001760085822BC25590000AE0B44302D255900006
:0C01860009E0C243B44102D243900008DB
:10019200E0C241B42A02D241900007E0C24CB454FA
:1001A20002D24CC2AF78CD90010275A70190020035
:1001B20075A755E0F0D8FC75A700D2AF121EA59026
:1001C20001C8E52C20E0047446800578A2E62442AA
:1001D200F0A3789EE62442F0A3E52BB4020280133A
:1001E200E52C20E10EE52B75F046600375F030E555
:1001F200F0802AE52BB40214E52C75F04D30E103B2
:1002020075F0417430F0A3E5F0F08019600A7431A2
:10021200F0A3789DE6F0800D78A3E62442F0A3785F
:100222009FE62442F0A3C083C08290053FE075F0B0
:100232002020E70375F052A3A3E020E70375F053F3
:10024200E5F0D082D083F0A3C083C08275F0DB12C8
:100252005EFEE5834582600EC3E5409582E53F95EB
:100262008375F020400375F043D082D083E5F0F02F
:10027200A37429F0754900752DCF900360E0B4088E
:10028200005039FFA3E0FE9001CED23D1250F27F22
:1002920000900362E0FE9001D3D23D1250F27F0043
:1002A200900363E0FE9001D8D23D1250F29001DD3E
:0C02B2007429F0752DDE90036074FFF0DD
:1002BE00D2992202016D90000AE0B429F69000074F
:1002CE00E0B42004C2398005B443E8D239A3121E2B
:1002DE008F40E014F54EB41E00406BB41E2630392C
:1002EE001175F0E2900006E0B4480205F0126016B7
:1002FE00803875F03C900006E0B4480375F03D126E
:10030E005EFE8026B41F1175F0E4900006E0B4483E
:10031E000205F01260168012B4202D75F0E69000E2
:10032E0006E0B4480205F0126016AE82AF8390016B
:10033E0002C009854E091250F2D009901B5A121BA9
:10034E000D7583048067400302016DE54E2320394D
:10035E001E2400F5F0900006E0B4480205F085F08A
:10036E0050901B5A121B0D8550F0125EFE801C24FD
:10037E00A6F5F0900006E0B4480205F085F0509026
:10038E001B5A121B0D8550F0126016E54E75F004C7
:10039E00A42446F5F085835085824F784F125C4831
:1003AE00900102C009854E091250F2D009121EA505
:1003BE0010030302044A75F0E8126016E583B427B1
:1003CE0007E582B40F02800EE5564557C36001D390
:1003DE00E50892E4F50875F0DC125EFEE58230E089
:1003EE00115308DF78ACE60846084608466003431A
:1003FE000820E58230E608E508A24192E6F5087588
:10040E0052007F00AE08D23D9001081250F2752DB9
:01041E0013CA
:10041F007420900108F0742090010DF01220C9C2D1
:10042F00037844125C58EE850706FF90010D745057
:10043F001254447429900112F08009752D09742902
:10044F00900108F0754900D2992202016D900004C5
:10045F00E0B420F690000AE0B429EF900007C2390B
:10046F00E0B44302D239D202900008121E8F40DA54
:10047F0015E0F550B41E005003020577B41E22207C
:10048F00391075F03CB90300400375F03D125EFE64
:10049F00803375F0E2B90300400205F01260168058
:1004AF0024B41F1075F0E4B90300400375F0E51292
:1004BF0060168011B4209375F0E6B9030040037500
:1004CF00F0E712601615F0E920E046C3E58230121E
:1004DF0006C212940A80029401F582E5839400F516
:1004EF0083E550B42021A983A882C0F075F0421291
:1004FF005EFED0F0E920E761C3E89582E99583407D
:10050F0058898388828052E58330E74D90000080C0
:10051F004830120EC21274092582F582E583340029
:10052F00F583A3E550B41E02802FE550B4201DA91A
:10053F0083A882C0F075F043125EFED0F0C3E89539
:10054F0082E99583501389838882800DE583700635
:10055F00E58294644003900064203906125FFA022A
:02056F00061F65
:10057100125FEB02061F400302016DE55075F004A6
:10058100A42447F5F0125EFE85831585821415F0CB
:1005910015F0125EFEC3E5149582F8E5159583C04A
:1005A10001F97A007547007546007545FF7544FFEE
:1005B100125D7D301211C212A945A8447B007A0A4E
:1005C100125E438D458C44D001E55023B90300B33D
:1005D10020390B3400F535F5F0125EFE800934A6A2
:1005E100F535F5F0126016E920E014C3E582954473
:1005F100F582E5839545F58350039000008011E570
:10060100442582F582E5453583F583500390FFFF4C
:100611008535F0203905125FFA8003125FEB9000F7
:1006210005E0A3F0E5500202E202016D752D0D9087
:100631000007E0B429F3901B67121B0DA23C723A2C
:10064100502E90010AE54820E709744CF0A3744F3D
:10065100F080077448F0A37449F0900107E548C29F
:10066100E705E075F00A842430F0A3E5F02430F0CA
:1006710002045302016D900008121E8F40F514F51B
:1006810050B41E0B75F0A1B9071875F0A0801323A3
:100691002464F5F0B9080405F08007B90B004002A5
:1006A10005F0126016AE82E583543FFFE5832323F4
:0206B1005403F0
:1006B3002441900106F0900100D23D1250F2121E27
:1006C300A59001057420F09001077429F0752D0899
:1006D30002045302016D900008121E8F40F514F5B9
:1006E30050D202B41E0D75F0A0B90B00401175F085
:1006F300A1800C232464F5F0B90B00400205F0122D
:10070300601615F0E58354C0F54E53833FE920E0AE
:1007130015C3E5829401F582E5839400F58330E700
:1007230013900000800EA3E583B40308E582B4E8C8
:10073300039003E7E54E4583F583125FEB900007D3
:100743007420F002067775F0E8126016E583B4278B
:1007530007E582B40F02800F7B007A3CA983A8824D
:10076300125E438C568D571220B270121242ED1254
:1007730042F51242CB1242DC12427D124295C2452F
:1007830075F0DC125EFEE58230E70353087FE582F5
:1007930030E5035308FC78A4760078A57600D240B0
:1007A300755D00755E00755F0075600075610075AD
:1007B3006200756300756400C2857536007542007A
:1007C300754301C242C23C0200731220B223F5F00A
:1007D300900005E0C395F0F0900007E0B44133A327
:1007E300E0B4555FA3E0B4545A900005E0B430027E
:1007F3008003B4314E75F002B4300375F001E5F0B7
:10080300B40102C24FB40202C24EE52C45F0F52CEE
:100813008029900007E0B44D2AA3E0B44125A3E06A
:10082300B44E20900005E0B4300575F0FE8006B4A8
:10083300311175F0FDE52C55F0F52CF58275F0DAE4
:10084300125FFA0200731220B223F5F0900007E062
:10085300C395F0FAB43002801CB431E7E52BB4023F
:1008630014C009EA750901AFFCAEFB900005E0B4C2
:100873004953020928900005E0B44460C009EA75B1
:100883000901AFFCAEFBB4302B75F0DC125EFEE564
:100893008230E51775F0C4125EFE85833885823792
:1008A300E50854FC4402F508125664750900AFFAD2
:1008B300AEF98011E52B600D124233D009125F7639
:1008C300125BF28075C3EE9440FEEF9400FF30E7B5
:1008D300047F007E0012491ED009805EC009EA75BC
:1008E3000901AFFCAEFBB4302B75090075F0DC12C7
:1008F3005EFEE58230E51775F0C4125EFE8583382F
:10090300858237E50854FC4401F508125664AFFAB2
:10091300AEF98011E52B600D125E79D009125F7676
:10092300125BF28015EE2440FEEF3400FF54F060BA
:10093300047F0F7EFF12491ED009900458E5FBF097
:10094300A3E5FCF0020073900009E0B4312575F0D3
:0E095300CE125EFE858338858237E50854FC9F
:100961004402F5081256641209F0405D7C007D04D2
:10097100125FB78023E575240AF575E5763400F535
:1009810076125EFEC3E5759582E576958340068510
:100991008275858376125BF2C24F901B3C121B0D50
:1009A100752D0B020453900009E0B4312575F0CE8A
:1009B100125EFE858338858237E50854FC4401F5D3
:1009C100081256641209F040A37C007D04125F9066
:1009D10080C6C3E575940AF575E5769400F576123F
:1009E1005EFEC3E5759582E576958350A880A07576
:1009F100F0C9125EFEE58254066003B40302C3220D
:100A0100D322020BB5020B28020073900008E0B458
:100A110036F3A3E0B4302A75500090000A121D4B42
:100A210075F0F1125FEB858234858335783475F08A
:100A310046125C488F838E8275F0ED125FEB020BDC
:100A4100B8B4312A75500090000A121D4B75F0F2AE
:100A5100125FEB858234858335783475F046125CFC
:100A6100488F838E8275F0EE125FEB020BB8B432C1
:100A71000F90000B121CE375F0F3125FEB020BB841
:100A8100B4330F90000B121CE375F0F4125FEB020C
:100A91000BB8B4341275500290000A121D4B75F058
:100AA100C3125FFA020BB8B4350F90000B121CE3AE
:100AB10075F0C0125FFA020BB8B4360F90000B123A
:100AC1001CE375F0C2125FFA020BB8B43712900042
:0D0AD1000A755002121D4B75F0C1125FFA3C
:100ADE00020BB8B4381290000A755000121D4B75F7
:100AEE00F0D4125FFA020BB8B4392975F0D5E5824D
:100AFE00B4011290000A755001121D4B75F0D712F9
:100B0E005FFA020BB890000B121CE375F0D7125F60
:100B1E00FA020BB8020073020A03900009E0B43126
:100B2E00F6901B74121B0D85254E85264F30090A33
:100B3E00E54EF4F54EE54FF4F54F784E125C4890C5
:100B4E000100D23D1250F2121EA575F0BF125EFECC
:100B5E00E5824430900107F07430A21592E0A214A1
:100B6E0092E1900106F0900109E51AF0B4320040CE
:100B7E000AB434028005E54DB4FF06752D0D02044E
:100B8E005390010A75F033C5F0F0C5F0B40800506B
:100B9E0005082430800B75F034C5F0F0C5F0A324A1
:100BAE0028F080D7020D80B432FA121EA5740F9071
:100BBE006049B41E03906054C2AF780B75A7559070
:100BCE00010205A7E493F0D8FB75A700D2AF75F02C
:100BDE00F1126016740075F004A42446F5F08583B6
:100BEE005085824F784F125C48EF850607FE9001C4
:100BFE000E744712544475F0F2126016740075F0BC
:100C0E0004A42446F5F085835085824F784F125CFC
:100C1E0048EF850607FE900113744712544475F091
:100C2E00F3126016AE83AF827440900118125444D2
:0A0C3E0075F0F4126016AE83AF8269
:100C4800744090011D125444754E0275F0C3125E33
:100C5800FEE54E75F004A42446F5F08583508582A0
:100C68004F784F125C48900122C009854E091250F6
:100C7800F2D00975F0C0125EFEAE83AF8274409068
:100C8800012912544475F0C2125EFEAE83AF82741D
:100C98004090012E125444754E0275F0C1125EFE4A
:100CA800E54E75F004A42446F5F085835085824FFF
:100CB800784F125C48900133C009854E091250F2F2
:100CC800D009754E0075F0D4125EFEE54E75F0043D
:100CD800A42446F5F085835085824F784F125C48EE
:100CE80090013AC009854E091250F2D00975F0D525
:100CF800125EFEE582B4012CF54E75F0D7125EFE49
:100D0800E54E75F004A42446F5F085835085824F9E
:100D1800784F125C48900141C009854E091250F283
:100D2800D009801E75F0D7125EFEAE83AF82744084
:100D3800900142125444742B900141F0742E90019A
:100D480046F0742090010DF0900112F0900117F018
:100D580090011CF0900121F0900128F090012DF0F5
:100D6800900132F0900139F0900140F09001477401
:100D780029F0752D48020453B4334175F0DC125E36
:100D8800FEE58230E523204520753700753800756B
:100D9800F0DE125EFE78A4A68208A683E50854FC5D
:0C0DA8004402F508125664D213754C008A
:100DB400D24575F0DC125EFEE58230E7034308801D
:100DC400020073021227C212900007E0B44302D259
:100DD40012900008121E8FF54EB4051B75F0D21246
:100DE40013D530120912203785458385448275F066
:100DF400D3120FE9020FE3B4193B75F0471213E263
:100E040030120912203785458385448275F0F1122A
:100E1400601615F0120FEE125FEB85823485833570
:100E2400783475F046125C488F838E8275F0ED122B
:100E34005FEB021227B41A3B75F0471213E230122B
:100E44000912203785458385448275F0F2126016B5
:100E540015F0120FEE125FEB8582348583357834FA
:100E640075F046125C488F838E8275F0EE125FEB4C
:100E7400021227B41B0575F0F38006B41C2775F025
:100E8400F41260167819301202787DC3E58298F561
:100E940082E5839400F58330E70390000015F01297
:100EA4005FEB021227B4061A75F0D21213D575F04F
:100EB400D4120FE975F0D212101975F0D4407B02E8
:100EC4000FE3B4071E75F0D5125EFEE582B41E056D
:100ED40075F0D6801F15F01213D575F0D6120FE9F0
:100EE400020FE3B4085975F0D5125EFEE582B41E14
:100EF4003575F0D7125EFEE5824583602615F0E570
:100F040082C320120494018002940AF582E583943A
:100F140000F58320E7074582600302122490000055
:100F2400021224020DC715F01213D575F0D7120F53
:0F0F3400E975F0D512101975F0D7402F020FE3B1
:100F4300B4020575F0C08039B41E0575F0C4803154
:100F5300B41F2075F03212601615F0C3E5829401B8
:100F6300F582E5839400F583458270028075125FF4
:100F7300EB8070B4200575F03380DBB4031B75F090
:100F8300C2125EFE15F0C3E5829401F582E58394F7
:100F930000F58345827049804A1213D185F04E12C1
:100FA3005EFEC3E5829544F582E5839545F5838529
:100FB300834585824475F0BF125EFEE58275F004B9
:100FC300A42446F5F085444F854550784F125C487C
:100FD300EF20E70F4E600C854583854482854EF0F4
:100FE300125FFA021227125EFE15F0780130120426
:100FF300C212780AC3E5829544F582E5839545F5E7
:10100300834009D8EF85834585824422900000857B
:10101300834585824422858345858244125EFEE5AD
:101023008275F004A42446F5F085444F8545507835
:101033004F125C48EF854583854482A2E722C212A2
:10104300900007E0B44302D212900008121E8FB43E
:10105300052B75F0D21213D575F0D3125EFE15F081
:10106300301203122037E5822544F582E5833545A6
:10107300F583500390FFFF125FFA021227B4194B56
:1010830075F0471213E275F0F112601615F0301285
:1010930003122037E5822544F582E5833545F58340
:0210A3005003F8
:1010A50090FFFF125FEB858234858335783475F0C8
:1010B50046125C488F838E8275F0EDE54EB41A03B7
:1010C50075F0EE125FEB021227B41A0B75F047129A
:1010D50013E275F0F280B0B41B0575F0F38006B429
:1010E5001C2E75F0F41260167819301202787DE521
:1010F5008228F582E5833400F583C374FF958274F5
:101105000F95835003900FFF15F0125FEB02122726
:10111500B4060C75F0D21213D575F0D402105EB476
:10112500073375F0D5125EFEE582B41E1D75F0D647
:10113500125EFE15F07801301202780AE82582F574
:1011450082E5833400F58302122415F01213D57558
:10115500F0D602105EB4083475F0D5125EFEE58255
:10116500B41E1E75F0D7125EFE7401301204C21251
:10117500740A2582F582E5833400F58315F00212A1
:101185002415F01213D575F0D702105EB402107550
:10119500F0C0125EFE15F0E582B4FF62021227B4BC
:1011A5001E0575F0C48046B41F3575F03212601601
:1011B50015F0E583B40307E582B4E702806475455D
:1011C5000075440112601615F0E5822544F582E5A7
:1011D500833545F583500390FFFF125FEB8043B4E1
:1011E500200575F03380C6B4031C75F0C2125EFE8F
:1011F50015F0E583B40307E582B4E702802475455D
:101205000075440180031213D1125EFE15F0E582CC
:081215002544F582E58335450F
:10121D00F583500390FFFF125FFA121EA575F0BF04
:10122D00125EFE85824E900008121E8FF552B46339
:10123D001B755DFF755EFF755FFF7560FF7561FF67
:10124D007562FF7563FF7564FF020073B40112755B
:10125D00F0BF125EFE85824E75F0C3125EFE020374
:10126D0099B4022175F0C0125EFEAF83AE8290017B
:10127D0000D23D1250F2121EA59001057429F07591
:10128D002D06020453B4030575F0C280DAB41E05B1
:10129D0075F0C480D2B41F0875F03212601680CA82
:1012AD00B4200875F03312601680BFB40418900195
:1012BD00087420F075F0BF125EFE85824E75F0C188
:1012CD00125EFE020399B40511D20375F0D2125EBF
:1012DD00FE85824E75F0D30213C5B41912754E00FA
:1012ED0075F0F19001087420F0126016020399B4A4
:1012FD001A12754E0075F0F29001087420F012600C
:10130D0016020399B41B0575F0F38006B41C2E75F7
:10131D00F0F4126016A983A882900458E9F0A3E8AE
:10132D00F0125A0390045AE0FEA3E0FF90010274FC
:10133D00521254447429F0752D08020453B4060E4C
:10134D0075F0D2125EFE85824E75F0D4806AB407B8
:10135D004075F0D5125EFE85824E75F0D6E582B4ED
:10136D001E2D125EFEAE83AF82900102742BF074BF
:10137D0040A312544490010375F003E0B4200374AC
:0C138D0030F0A3D5F0F5900107742EF0AD
:101399000203BB8027B4081575F0D5125EFE75F0FF
:1013A900D785824EE582B41E0280BB800FB4090C3A
:1013B90075F0BF125EFE85824E75F0C1900108740A
:1013C90020F0125EFE020399F975F0BF125EFEE588
:1013D9008275F004A42447F5F0125EFE8583158515
:1013E900821415F015F0125EFEC3E5149582F8E536
:1013F900159583C001F97A00754700754600754552
:10140900FF7544FF125D7DD00175F0C1B901037507
:10141900F0C322900008121EB6121EA58F838E8279
:10142900E0FFA3E0F87E007430900102C00012547E
:1014390044D0007420F01214A9A37E00850007741B
:10144900301254447420F01214A97429F07549001B
:10145900A385822DD29922020079900008121EB626
:10146900EF70F4121EA5850601E7FF09E7F87E0073
:101479007430900102C000125444D0007420F0125C
:1014890014A9A37E0085000774301254447420F017
:101499001214A97429F0754900A385822DD29922C5
:1014A900C082158215821582E0B4200B7430F0A336
:1014B900E0B420037430F0D082220808121EB6E28C
:0D14C900B4201CEF70198E4E08121EB6E202
:1014D600B429028003B4220AA94EA70609A7070267
:1014E600009A020079900008121EB678009001005A
:1014F6001220B204F0A37403F0A374C0F0A37DC05D
:10150600C083C0828EF0EF7005125EFE800BB401C0
:101516000512601680031260238582F0E583D0826F
:10152600D083F0E5F0A3F0A3EE2401FEEF3400FF34
:10153600DDCE754900752DC5D2992202007990003D
:1015460008121EB685070185060090000D121EB60C
:10155600121EA589027900C001C006E975F008A42B
:101566002406F5827583017430F00582F01582C079
:1015760082C083E8F5F0EA7005125EFE800BB401C6
:1015860005126016800312602308E870010A0985B7
:1015960083F07E00AF827430D083D082C0F0C00268
:1015A600125444D002D0F07420F01215EFA37E003E
:1015B600AFF07430C002125444D0027420F01215F9
:1015C600EFD006D00109EEB5018D7429F0754900FA
:1015D600A385822D9001027430F0A37430F0A374B9
:1015E60054F0A37420F0D29922C082158215821578
:0715F60082E0B4200B743009
:1015FD00F0A3E0B420037430F0D0822290000D12DD
:10160D001EB68E4E900011121EB68E4F900008120F
:10161D001EB68EF0EF854E83854F828F4E8E4F70A6
:10162D0005125FFA8026B4011DE5F0B43009E5839B
:10163D0030E70EC24F800AB43107E58330E702C2AE
:10164D004E125FEB8006B4024C125ADFAF4EAE4F16
:10165D00900101D23D1250F275F0311260167F00EB
:10166D00AE82900106D23D1250F275F03112601625
:10167D007F00AE8390010BD23D1250F27420900189
:10168D0006F090010BF09001107429F0752D1112D8
:10169D001EA502045302007908E2B4201608121E9A
:1016AD00B6E2B429028003B42209EF7006EEF51BF1
:1016BD0002009A020079900008121E8F14B41E00C9
:1016CD005035D202F5F0900007C205E0B44302D2C6
:1016DD0005E5F075F004A42445F5F0125EFEC3E5B2
:1016ED0082200504940D80029482F582E583940096
:1016FD00F58315F0125FFA020073900008121E8F29
:10170D0014B41E005032D202F5F0900007C205E06D
:10171D00B44302D205E5F075F004A42445F5F012AA
:10172D005EFE740D30050274822582F582740035DB
:10173D0083F58315F0125FFA020073900008121EF4
:05174D008F14B41E0022
:10175200501FD20275F004A42444F5F0125EFEC3B9
:10176200E5829401F582E5839400F58315F0125F1A
:10177200FA020073900008121E8F14B41E00501E4D
:10178200D20275F004A42444F5F0125EFE74012521
:1017920082F58274003583F58315F0125FFA020038
:1017A2007302016D1217EE40F82400F5F0125FFA91
:1017B20085504E02187A1217EE40E62401F5F01217
:1017C2005FFA85504E02187A1217EE40D424A6F51D
:1017D200F0125FEB85504E02187A1217EE40C224C7
:1017E200A7F5F0125FEB85504E02187A90000812AE
:1017F2001E8F401CB41F0B14F55090000C121CE3FA
:10180200800914F55090000B121D4BE55023C322A2
:10181200D322900008121E8F404BF54E901B2C12C3
:101822001B0DE54E75F004A42446F5F0754F0075C6
:101832005000784F125C48900102C009854E09128F
:1018420050F2E54E75F004A42446F5F0754FFF758D
:1018520050FF784F125C489001091250F2752D101A
:10186200D00902045302016D0219EA02016D9000CF
:1018720008121E8F40F5F54E901B2C121B0DE54EE3
:10188200B41EE575F03C125EFEAF83AE829001029B
:10189200D23D1250F275F03D125EFEAF83AE8290E1
:1018A2000108D23D1250F275F0E2126016AF83AE1B
:0918B2008290010ED23D1250F2A9
:1018BB0075F0E3126016AF83AE82900114D23D1225
:1018CB0050F27F007E0090011AD23D1250F27F0B36
:1018DB007EB8900120D23D1250F2900107742EF089
:1018EB0075820DF0758213F0758219F075821FF0F9
:1018FB00758225F075F0C2125EFEAF83AE82900149
:10190B002FD23D1250F275F0C0125EFEAF83AE8245
:10191B0090012BD23D1250F275F0C3125EFE75F0A2
:10192B004E85835085824F784F125C48900126C0BC
:10193B00097509021250F2D00975F0C1125EFE75DD
:10194B00F04E85835085824F784F125C489001345E
:10195B00C0097509021250F2D00975F0D4125EFE5F
:10196B0075F04685835085824F784F125C48900105
:10197B003BC0097509001250F2D00975F0D5125E03
:10198B00FEE582B41E1A75F0D7125EFEAF83AE82EF
:10199B00900142D23D1250F2900147742EF08021FB
:1019AB0075F0D7125EFE75F04685835085824F78B1
:1019BB004F125C48900142C0097509011250F2D0D8
:1019CB0009742090012CF0900130F090013AF090C6
:1019DB000141F09001487429F0752D4902045379A7
:1019EB009C7700121A41799CE775F006A42402F546
:1019FB0082758301C009854E091250F2D009799C7A
:101A0B0007B705DF900000121A6590011AC009850F
:101A1B004E091250F2D00990FFFF121A6590012067
:051A2B00C009854E0911
:101A30001250F2D0099001267429F0752D27020466
:101A400053799CE720E10FF9E54EC333240029F5D3
:101A5000F0125EFE800F5401F9E54EC33324A6292F
:101A6000F5F012601685824F858350E54E75F004BF
:101A7000A42446F5F0784F125C4822900008121E0C
:101A80008F75F0D2600375F0D5125EFEE582F550D9
:101A9000B41E1290000C121EB68F838E8275F0D683
:101AA000125FFA80402400F5F0126016E5825403BC
:101AB000FA6015900010E0C5F01582E0C5F0F00561
:101AC00082E5F0F01582DAEE90000B121D4B9000CB
:101AD00008121E8F75F0D3600375F0D68545838597
:101AE0004482125FFA020073900008121E8F78ACD5
:101AF0001246FE12605FF456F6020073E0F5F0C382
:101B000094304008F5F024F64002E5F022C2AF75AB
:101B1000A75590010005A7E493B42907F075A70025
:101B2000D2AF22B45803E08001F080EB3C282020A3
:101B30002020202020202020202020293C28303058
:101B4000204943203031293C283030204354203074
:101B500058293C283030205252293C28585858588F
:101B6000582E20202020293C2830302043487E7EDB
:101B700020434C293C2858585825303030302020FC
:101B8000294620202043202020505349474B5061B4
:101B90002052504D204867202042415220202020D2
:101BA000205053494179FFE0B4441AA3E0B4430301
:101BB000791122B45103791522B45A03791B22B446
:101BC0005302791D22B44108A3E0B44302792022D4
:0F1BD000B45A08A3E0B45802791F22B4491AA3EB
:101BDF00E0B44303791022B45103791422B45A03A9
:101BEF00791C22B45302791E22B4430EA3E0B454DD
:101BFF0003790F22B44202791A22B44808A3E0B441
:101C0F00440D790422B468257448F0D21280EEB4E2
:101C1F004903790322B45414A3E0B42003790822B2
:101C2F00B44903790B22B444FD790C2222B44C0839
:101C3F00A3E0B4440D790222B46C24744CF0D21298
:101C4F0080EEB44903790122B45413A3E0B4200207
:101C5F007907B44903790922B44403790A2222B4DB
:101C6F005232A3E0B44403790022B4480379052229
:101C7F00B44C03790622B45203790D22B45603797A
:101C8F001222B45103791322B44D03791622B445AD
:101C9F0002791722B44608A3E0B44102790E22B4A8
:101CAF00570CA3E0B44D027918B445027919B44C1E
:101CBF000A7921A3E0B44302792322B4480A792296
:101CCF00A3E0B443F5792422B45803792522B44A0A
:101CDF00E9792622121AFC405C7B037AE87900F836
:101CEF00125E438C4E8D4FA3E0B42E09A380067570
:021CFF004F0094
:101D0100754E00121AFC403B75F064A4254EF54E49
:101D1100E5F0354FF54FA3E0B42E01A3121AFC40B4
:101D21002275F00AA4254EF54EE5F0354FF54FA387
:101D3100E0B42E01A3121AFC4009254EF54E5002C3
:101D4100054FC3854F83854E8222858352858251FB
:101D5100E0B42B04D23B800BB42D04C23B8004D3EE
:101D6100021E8EE5502400F5F01260168582F08582
:101D71005283855182E5822405F582E5833400F59D
:101D810083E58295F0F58250021583E0B42ED0856B
:101D91005283855182A3121EB68E4E8F4FE5507528
:101DA100F004A42446F5F0125EFEE58330E723201B
:101DB1003B2EE54E7006E54F700280A3E54E25826D
:101DC100FCE54F3583FDEC7005ED70028012401E7D
:101DD100800E303B19C3E54E9582E54F9583400E49
:101DE100E5822410F510E5833427F5118003021DE7
:101DF10060125EFEE58330E70F203BF2E54E25825F
:101E0100E54F358340E8800E303B0BC3E582954EAC
:101E1100E583954F40D8E5822410F512E5833427F8
:101E2100F513E54E2410F551E54F3427F552C3E57E
:071E3100129510F582E51384
:101E38009511F583C3E5519510F546E5529511F5D1
:101E480047203B1AC3E546954EF546E547954FF5BD
:101E580047C3E546954EF546E547954FF547E58373
:101E6800B5470DE582B546087545FF7544FF800FF7
:101E78007A00A983A882754500754400125D7D85A6
:101E88004583854482C322121AFC401075F00AA4C7
:101E9800F54EA3121AFC4004254EF54E229001007F
:101EA800743CF0A37428F022E208B429FB227E00D7
:101EB8007F00C21BE0B42B03A38006B42D03D21B02
:101EC800A3E0B42E028020C39430401EFD940A5033
:101ED800198EF0740AA4FEACF08FF0740AA42CFFDB
:101EE800EE2DFEEF3400FFA380D7201B0122EEF475
:101EF8002401FEEFF43400FF22E208B42202800637
:101F0800B429F674FF2208121EB6C3EE9577CF9552
:101F1800784F22121EB67B007A10A907C000A806C7
:101F2800125E43D00022C010C011C012C013121D8F
:101F38004BD013D012D011D010E5502400F5F01278
:041F48006016E583B7
:101F4C00543FC39402405D94025059E5837A007962
:101F5C0008781790577F75F07C30E00A7907789FE6
:101F6C0090588375F07EC0F07547008545468544D2
:101F7C0045754480125D7DE5442452F544E54534B5
:101F8C0008F54578447944125DC2D000C3E5449607
:101F9C00F54408E54596F545E5442410F544E5453A
:101FAC003427F54585458385448222758300854910
:101FBC0082E022758300854982F022758301854970
:101FCC0082E022758301854982F0221220B2F5F05D
:101FDC00900003E0C39430B5F048900005121EB693
:101FEC00900400122031900009121EB690040412C5
:101FFC00203190000D121EB6900408122031900072
:10200C0011121EB6900402122031900015121EB649
:10201C00900406122031900019121EB690040A1278
:10202C002031020073EFF0A3EEF022C2127809AA5D
:10203C0045A944E54429F544E5453AF545D8F4224B
:10204C0090000A121EB6EEF54E90000C121EB6EE63
:10205C00F54F90000E121EB6EE0303424EE55024CF
:10206C0000F5F0126016E54EB58339E54FB58234B4
:10207C00900010121EB6E55023232446F5F0125E94
:09208C00FEEEB5821FEFB5831BC7
:10209500900017121EB6E55023232447F5F0125E73
:1020A500FEEEB58206EFB58302C322D322A280924B
:1020B500E0A28192E1A28292E2A28392E3F4540F1C
:1020C5002202217A75F0F4126016858345858244D3
:1020D50075F0F3126016C3E5449582E54595835086
:1020E500E075F0F3126016C3E5FB9582E5FC958378
:1020F50040087544FF7545FF804A75F0F412601677
:10210500C3E5FB9582E5FC9583500875440075454C
:1021150000803175F0F4126016AB83AA82C3E5FB2B
:102125009582F546E5FC9583F547754500754400B0
:1021350075F0F3126016C3E5829AF8E5839BF97A88
:1021450000125D7D75F0E9126016AA82AB8375F009
:10215500EA126016C3E5829AE5839B4017E5828AF9
:1021650082FAE5838B83FBC374FF9544F54474FFC2
:102175009545F5452275F0F3126016C3E5FB95828A
:10218500E5FC95835008754400754500804A75F057
:10219500F4126016C3E5FB9582E5FC95834008754E
:1021A50044FF7545FF803175F0F3126016AB83AAC5
:1021B50082C3E5FB9582F546E5FC9583F5477545B4
:0B21C5000075440075F0F4126016C3B2
:1021D000E5829AF8E5839BF97A00125D7D75F0E956
:1021E000126016AA82AB8375F0EA126016C3E5820C
:1021F0009AE5839B400CE5828A82FAE5838B83FB18
:10220000800DC374FF9544F54474FF9545F5452250
:10538200D21FC21DC21E30E720CE20E70BCE30E373
:1053920018CD742BF2CD800DF4CFF42401CF34005C
:1053A200CE742DF2CD08C39410F95470C4FC740766
:1053B20059B40705D21CE4800360011CF97A107B02
:1053C2002774051253ED7AE87B0374041253ED7AC5
:1053D200647B0074031253ED7A0A7B007402125349
:1053E200ED7A017B0074011253ED228CF0B5F002CC
:1053F200D21D89F0B5F008CD742EF2CD08C21F304F
:105402001E07301D327423803615E0B5F002C21F2C
:1054120075F000C3EFFD9AFFEE9B4007FE05F0C258
:105422001F80F0EDFF301D0A301F0D201C0A742072
:10543200800D201F02D21E22301DF7743025F0F29B
:0254420008223E
:10544400D21FC21DC21E30E720CE20E70BCE30E3B0
:1054540018CD742BF0CD800DF4CFF42401CF34009B
:10546400CE742DF0CDA3C39410F95470C4FC74070A
:1054740059B40705D21CE4800360011CF97A107B3F
:105484002774051254AF7AE87B0374041254AF7A7C
:10549400647B0074031254AF7A0A7B0074021254C2
:1054A400AF7A017B0074011254AF228CF0B5F00284
:1054B400D21D89F0B5F008CD742EF0CDA3C21F30F3
:1054C4001E07301D327423803615E0B5F002C21F6A
:1054D40075F000C3EFFD9AFFEE9B4007FE05F0C296
:1054E4001F80F0EDFF301D0A301F0D201C0A7420B0
:1054F400800D201F02D21E22301DF7743025F0F0DB
:02550400A322E0
:1056F200C3E5169512FAE5179513FB4029C3E51485
:105702009510F8E5159511F9401C7F007E007D107B
:10571200E9A2E7125760DDF87D08C3125760DDFA8F
:10572200C31257608002D322E913F9E8133400F858
:10573200E93400F9AB13AA12125E43EC240FED34E4
:1057420000FCEE3400FDEF3400FEC3E5109CF510C2
:10575200E5119DF51174009E340070CAC322EE3328
:10576200FEEF33FFB392D1C3EE9AF5F0EF9B82D1F5
:0D5772004003FFAEF0B3E833F8E933F9224D
:105C480005F0125EFEAA82AB8315F015F0125EFE17
:105C5800C3EA9582FAEB9583FB0886011886001241
:105C68005E43ED33E43EFEE43FFFE5822EFEE5832E
:105C78003FFFE58320E70650047EFF7F3FC374F0B3
:105C88009E74D89F400DC3740F9E74279F50047F45
:045C9800277E0F2232
:103E1E00304C0122E5097045E52BB4024075F0F5F2
:103E2E00126016E582B40F35E583B42730A23C72DA
:103E3E0045723A502575F0C5125EFEE582B40F0745
:103E4E00E583B427028013125A77C24FC009750951
:103E5E0000124E47125BF2D00922023F0BA23C72B7
:103E6E0045723A504FE509701BE52BB402161252FB
:103E7E00B975F0C5125EFEE582B40F08E583B4276E
:103E8E0003803122E50975F0C5600375F0D8125E26
:103E9E00FEE582B40F07E583B427028017E50970AB
:103EAE0006125A77C24F22E52BB402028005125237
:103EBE00B9C24E22E509706EE52BB4026975F0D9D0
:103ECE00125EFEE582601CC3E543943CE54294001D
:103EDE004052E568A2E1B39254205321305447D2A8
:103EEE0053801A75F0F61260167B007A3CA983A8EF
:103EFE0082125E43C3E5439CE5429D4029A23C727B
:103F0E0045723A501075F0F5126016E582B40F1630
:103F1E00E583B42711C009750900124E47125BF2F2
:103F2E00D0098002C253304341E540453F700879C5
:103F3E00AA7401F709E4F775F0CF125EFEE58275FB
:103F4E00F03CA4F58285F083C24DC3E58279AA9731
:093F5E0009E58397401475F0DBBE
:103F6700125EFEC3E5829540E583953F5002D24D30
:103F770022E509701275F031126016E58320E70714
:103F8700540FF51D85821CC24BE509702CE568307E
:103F9700E71175F04F126023E582540FB40404D281
:103FA7004B8049E56D30E73D75F04F126023E5839F
:103FB700540FB40530D24B803BE56930E01175F002
:103FC70050126023E58254F0B44004D24B802DE5B3
:103FD7006E30E01175F050126023E58354F0B45051
:103FE70004D24B801FE509701030230575F0C78098
:103FF7001630222975F0C6800E30270575F0BE8071
:104007000630261975F0BD125EFE8583458582440C
:1040170090042AE545F0A3E544F0024187E509B499
:10402700024A75F0D6125EFEC3E5829554F582E525
:10403700839553F583AF83AE8230E70BEFF4FFEE42
:10404700F42401FE50010F75F0D7125EFEC3E5821E
:104057009EE5839F501575090275F0D6125EFEAF77
:1040670083AE82855313855412803E2275F0D2E5C4
:1040770009600375F0D5125EFE8582F0781E740420
:10408700A42446F5F0F547125C488F138E1275F09D
:10409700D3E509600375F0D6125EFE8583458582F8
:1040A700448547F07844125C48EF4E70047F007EE9
:0140B7000107
:1040B8008F158E148F118E10E514240FF514E51545
:1040C8003427F515E512240FF512E5133427F513F7
:1040D800C3E5149512F514E5159513F515920E50D0
:1040E80010E515F4F515E514F42401F5145002054E
:1040F80015A814A9157A807B0C125E438F478E464B
:104108008D458C447A00A911A810AD11AC10125D30
:104118007DE54645477005E54530E70675457F75F9
:1041280044FF300E10E545F4F545E544F42401F567
:10413800445002054590042AE545F0A3E544F0758E
:10414800F0D4E509600375F0D7E509B40202802FC1
:10415800125EFE8582448583458509F07404A42493
:1041680046F5F07844125C48C3E5149EE5159FC2F5
:1041780019500C751A34D219789D7633024C28756B
:10418800F0DC125EFEE582900428F01241B5501A68
:10419800125E161233EAE52C30E704532C7F229086
:1041A8000424E0FFA3E0FE12491E22807C75F0F98A
:1041B800126016E582B401F360F175F0FD12601625
:1041C800AF83AE82C3E5759582E5769583405275D7
:1041D800F0DC125EFEE58230E11520E20990042A47
:0D41E800E020E745801C90042AE030E73C11
:1041F500801320E20990042AE030E730800790041C
:104205002AE020E727EFB5760AEEB57506789D76A4
:10421500338019E52C30E10CC3E5759EE5769F40AA
:0E42250003124233125F76125BF2C322D322E1
:104AFA0075F0C9125EFEE582A2E2920DA2E1920C65
:104B0A00C2094005300D078003200D02D209302268
:104B1A00117545C0754400C20EC20CA209920D025D
:104B2A004C1C30230F7545C0754400C20EC20C924E
:104B3A000D024C0E781E8509F07404A42446F5F083
:104B4A00F547125C488F138E12E51320E7044512CD
:104B5A00700675130075120175F0C3125EFE858327
:104B6A00458582448547F07844125C488F158E1437
:104B7A008F118E10C3E5149512F514E5159513F5EA
:104B8A0015920E5010E515F4F515E514F42401F507
:104B9A00145002051575F0C1125EFE8583458582A3
:104BAA00448509F07404A42446F5F07844125C485C
:104BBA00C3E5149EE5159F5005751A348060A81444
:104BCA00A9157A647B00125E438D478C46754500B1
:104BDA00754400125E2AA983A882AA10AB11125E3C
:104BEA00437A00A905A804125D7DE546454760069B
:104BFA007545FF7544FF300E05300C058011300CE9
:104C0A000E202117751A30430801124C78800C20A7
:104C1A002009751A31430802124C7012566422EEAA
:104C2A002575F575EF3576F576C3E5759582E576E2
:0F4C3A009583400785827585837622D21422C325
:104C4900E5759EF575E5769FF576500675750075DF
:104C59007600C3E5759582E576958350078582755B
:104C690085837622D2152275F03212601680067578
:104C7900F0C4125EFEAB45AA44A983A882125E4322
:104C89008E378F38E5387011E537B40200400A7461
:0A4C9900012537F5375002053822D7
:0C603D008F018E007B067A4A125E43221F
:105ED7008F018E007B007A10125E438D458C4478CB
:105EE7004475F042125C4822125EFEAB45AA44A9F3
:075EF70083A882125E432222
:105FB700EC2525F525ED3526F52650067525FF75C3
:035FC70026FF2290
:105F9000C3E5259CF525E5269DF5265006752500CB
:045FA0007526002240
:105F7600791CAF76AE75D375F0F7125B9AE51D54B2
:0A5F8600F06006751CFF751D0F2268
:105BF200125E03500685831D85821C851DFC851C53
:105C0200FBAF1DAE1C125ED775F0E6126016C3EE36
:105C12009582EF9583E56992E0F56975F0E7126088
:105C220016C3E5829EE5839FE56E92E0F56E9002D3
:105C320000742075F006A42582F582C0097509203A
:065C42001250F2D009220D
:10566400A2B692E0A2B792E1A2A092E2C0E01256E2
:1056740084D0E0A2E092B6A2E192B7A2E292A02284
:1056840075F0E8126016E583B42707E582B40F02CB
:10569400800EE5564557C36001D3E50892E4F5084A
:1056A40075F0DC125EFEE58230E608E508A2419260
:1056B400E6F508E58230E0115308DF78ACE60846E9
:1056C4000846084660034308207800E8A2E092B642
:1056D400A2E192B7A2E292A012605F5508C2A16053
:0E56E40002D2A1D2A2C2A2D2A208B808DE222F
:10491E00E50970030249A775F0F9126016E582B435
:10492E00020F8FFC8EFB8F1D8E1C1220C9125BFD99
:10493E002275F050126023E58254F0B44020C00777
:10494E00C00675F0E6124AB8D006D007C3E5449EFD
:10495E00E5459F204B084006AF45AE44802B75F0D1
:10496E0050126023E58354F0B4501EC007C0067584
:10497E00F0E7124AB8D006D007C3E5449EE5459F3E
:10498E00204B065004AF45AE44125E035004AF8375
:10499E00AE828FFC8EFB024A51C217C21675F0DC36
:1049AE00125EFEE58220E212EF4E7002D217EFB4D5
:1049BE000F18EEB4FF14D2168010EF4E7002D216FE
:1049CE00EFB40F06EEB4FF02D21775F04F1260234C
:1049DE00E582540FB40429C007C00675F0E41260D6
:1049EE0016AB827A0078F37928125E43D082D08398
:1049FE00C3E5829EE5839F204B02403AAF83AE8291
:104A0E0075F04F126023E583540FB40529C007C01B
:104A1E000675F0E5126016AB827A0078F3792812EB
:104A2E005E43D082D083C3E5829EE5839F204B02F6
:104A3E005004AF83AE82125FA45004AF83AE828F58
:104A4E00FA8EF9E509702512603D75F0E4126016D4
:014A5E00EE69
:104A5F00C39582E56892E7F56875F0E5126016E593
:104A6F0082C39EE56D92E7F56D8029125ED775F0D2
:104A7F00E6126016C3EE9582EF9583E56992E0F535
:104A8F006975F0E7126016C3E5829EE5839FE56EB8
:104A9F0092E0F56E900200741F2509F50975F00676
:104AAF00A42582F5821250F222126016A983A882E1
:104ABF0075F042125EFEC083C082C3E89582FAE9A8
:104ACF009583FB790F78FF125E438F478E468D4596
:104ADF008C4475F043125EFED006D007C3E5829E6C
:0B4AEF00F8E5839FF97A00125D7D223C
:104E4700E509600122124F6975F031126016E5839A
:104E570020E708540FF9A882024F06E52C20E1014C
:104E67002275F0F1126016C3E51E9582E51F958342
:104E7700500D75F0F3126016A983A882024F0675CC
:104E8700F0F2126016C3E51E9582E51F9583400C6C
:104E970075F0F4126016A983A8828063781E75F0F6
:104EA70046125C48900454EFF0A3EEF075F0ED1253
:104EB7006016AF83AE82900450EFF0A3EEF075F06A
:104EC700EE126016AF83AE82900452EFF0A3EEF0BD
:104ED70075F0F3126016AF83AE8290045CEFF0A317
:104EE700EEF075F0F4126016AF83AE8290045EEFB9
:104EF700F0A3EEF0124CA3900456E0F9A3E0F8E912
:104F070054F06004790F78FF900458E0FCA3E0FDAB
:104F1700C3E89CFEE99DFF7A0030E70D7A01F4FFB4
:104F2700EEF42401FEEF3400FF124F60C3EC9EED58
:104F37009F5019124F60EA700AE51C2CF8E51D3DD9
:0A4F4700F98009C3E51C9CF8E51D84
:104F51009DF9900458E8F0F51CA3E9F0F51D2290A5
:104F6100045AE0FCA3E0FD2275F0F4126016AB8355
:104F7100AA8275F0F3126016C3EA9582FAEB958363
:104F8100FB30E70BF4FBEAF42401FAEB3400FB7984
:104F9100007809125E438F478E468D458C4475F02B
:104FA100EA126016A983A88275F0E9126016C3E8B7
:104FB1009582F8E99583F930E70BF4F9E8F42401D7
:104FC100F8E93400F97A00125D7D90045AE544F065
:074FD10090045BE545F022AE
:105FA40075F030126016E58320E706540FF583D3AD
:035FB40022C322E3
:105E030075F031126016E58320E706540FF583D34E
:105E130022C322E50975F030600375F03112601674
:105E2300E583A2E7924922300E05300C05800A3043
:105E33000C0775F0C2125EFE2275F0331260162253
:104709006577F5F090481E936578F577E5F0904761
:104719001E93F5782200C0C101C30302C2C6060771
:10472900C705C5C404CC0C0DCD0FCFCE0E0ACACB1C
:104739000BC90908C8D81819D91BDBDA1A1EDEDF1C
:104749001FDD1D1CDC14D4D515D71716D6D21213AC
:10475900D311D1D010F03031F133F3F23236F6F70C
:1047690037F53534F43CFCFD3DFF3F3EFEFA3A3B5C
:10477900FB39F9F83828E8E929EB2B2AEAEE2E2F3C
:10478900EF2DEDEC2CE42425E527E7E62622E2E3EC
:1047990023E12120E0A06061A163A3A26266A6A72C
:1047A90067A56564A46CACAD6DAF6F6EAEAA6A6B9C
:1047B900AB69A9A86878B8B979BB7B7ABABE7E7F9C
:1047C900BF7DBDBC7CB47475B577B7B67672B2B32C
:1047D90073B17170B050909151935352929656574C
:1047E90097559594549C5C5D9D5F9F9E5E5A9A9BDC
:1047F9005B99595898884849894B8B8A4A4E8E8FBC
:104809004F8D4D4C8C44848545874746868242436B
:10481900834181804000C1814001C0804101C08045
:104829004100C1814001C0804100C1814000C18176
:104839004001C0804101C0804100C1814000C18167
:104849004001C0804100C1814001C0804101C08058
:104859004100C1814001C0804100C1814000C18146
:104869004001C0804100C1814001C0804101C08038
:104879004100C1814000C1814001C0804101C08027
:104889004100C1814001C0804100C1814000C18116
:104899004001C0804101C0804100C1814000C18107
:1048A9004001C0804100C1814001C0804101C080F8
:1048B9004100C1814000C1814001C0804101C080E7
:1048C9004100C1814001C0804100C1814000C181D6
:1048D9004001C0804100C1814001C0804101C080C8
:1048E9004100C1814001C0804100C1814000C181B6
:1048F9004001C0804101C0804100C1814000C181A7
:104909004001C0804100C1814001C0804101C08097
:054919004100C18140D6
:0B60490030332F31362F313720313536
:0B60540030332F31362F31372033302E
:0D601600C0A8C2AF75C70075C680025F0844
:0D602300C0A8C2AF75C70175C600025F08B6
:105EFE00C0A8C2AF75C70075C600125B2F400985DA
:105F0E00BC8285BD83025B2A85BE8285BF83025B10
:015F1E002A58
:0E5FFA00C0A8C2AF75C60075C700E4025AEB1E
:0F5FEB00C0A8C2AF75C68075C7007401025AEB1B
:105ADF00C0A8C2AF75C60075C701740230021EC2DE
:105AEF0002C082C083C082C083900360F0A3E5F040
:105AFF00F0D0E0A3F0D0E0A3F0D083D082D24675EF
:105B0F005803125B2F40088582BC8583BD800685B4
:105B1F0082BE8583BF75B90575B90205F0D0A8227D
:105B2F00E5F0C313C0D025C6F5C675B901D0D02294
:105D3500783F1260087853125F5BC2D1E54730E7C0
:105D450005D2D1125F1FE547700BE5467007E545A3
:105D5500B43000400274302323F475F01AC5F0F412
:105D650004A4E5F0F4F812550620D103125F1F785C
:085D75003F125F4012606A2238
:105B3F00E0F5F0E7C395F0FE058209E0F5F0E79593
:105B4F00F0FF5019158219E0C397FE058209E097FF
:105B5F00FF125B77C39CF00582E09DF022125B770A
:105B6F002CF00582E03DF0227D008AF0EEA4ACF02F
:105B7F0030E707EC2401FC70010D8AF0EFA42C50E4
:0B5B8F00010DFCED25F0FD1582E02269
:1051DC00C2AF43AF017581BF75C00075C700758044
:1051EC00DF75A0C075B03FC2A678FF7600D8FC90E2
:1051FC000000E4F0A3E583B404F875EFEC740D1231
:10520C0044C575FD1F125A771252B9758911758BE9
:10521C0005758D00D2B475740275985075CBFF75F9
:10522C00CAB875C834D201789D76337532FF75F0E3
:10523C00DA125EFE85822CD28CD28ED2ACD2A9D25E
:10524C00B990036074FFF0D2A37400A2E292B6A2EC
:10525C00E392B7A2E492A004D2A1C2A300D2A3B459
:10526C0080E9C24FC24E75F0F3126016A983E58235
:10527C00900458F0A3E9F0125EABD23A12426A40A5
:10528C000A12427D124295D257D256D2AF308FFDC0
:10529C00758B00758D28C28F308FFD758B00758DC9
:0D52AC0028C28FB2B5122B49308FE080DE92
:105A7700125FA4401575F0C5125EFE7400C39582CF
:105A87007410C39583500390000085832685822573
:105A9700AF26AE258FFA8EF912603D75F0E41260DD
:105AA70016EEC39582E56892E7F56875F0E5126032
:105AB70016E582C39EE56D92E7F56D7F00900200C3
:105AC700741F75F006A42582F582C00975091F1297
:085AD70050F2D00912566422BE
:1052B900124F6975F0F9126016E582B4022D125E7B
:1052C900035002801375F0F5126016E582B40F08D9
:1052D900E583B4270390000085831D85821CAF1DDB
:1052E900AE1C8FFC8EFB1220C98029125E0350066A
:1052F900AF83AE82801A75F0D8125EFE85831D8554
:10530900821CAF1DAE1C75F0F9126016E58270049F
:105319008FFC8EFB125ED775F0E6126016C3EE9510
:1053290082EF9583E56992E0F56975F0E7126016F9
:10533900C3E5829EE5839FE56E92E0F56E900200DB
:10534900742075F006A42582F582C009750920121A
:1053590050F2D00975F0F9126016E582B40116759C
:10536900F0FC126016858376AF83858275AE821252
:095379005F76125BF21256642209
:105EAB0075580375F0D0125EFE858333E58320E7CA
:105EBB000ED2A8D288D2B8C2AAC28AC2BA800CD2D9
:0C5ECB00AAD28AD2BAC2A8C288C2B822E9
:105CE900C0E0C0D07401253EF53EE43519F519E54B
:105CF90019B40400402F755300755400755500758B
:105D09003F00754000754100C208D201C246752E98
:105D190000752F00755803C204751900753E00758A
:0C5D29008C00758A25D28CD0D0D0E032DE
:105C9C00C0E0C0D0E5586003D5582305307423B557
:105CAC003004D2118000C28C308D02053E8519184B
:105CBC00853E3B858C3C858A3D853031D2007530E4
:105CCC0000751900753E00758C00758A1D758A006B
:0D5CDC00C28DD28CC289C28BD0D0D0E032F4
:104FD800C200100104E55860030250DE75F0D012DB
:104FE8005EFEE58353837F20E70890044C7404F049
:104FF800800690044C7480F0C28CC03DC03CC03B1D
:10500800C018C031D28C900429D0E0F0900448D068
:10501800E0F0A3D0E0F0A3D0E0F0A3D0E0F075F08A
:10502800D0125EFE53837FA983A882900446E9F0DC
:10503800A3E8F01255BD90043CE0F553A3E0F55405
:10504800125D350250DE900434E53FF0A3E540F0F0
:10505800A3E545F0A3E544F0125FDB90043CE0F5DE
:105068003FA3E0F540806FC3E540940FE53F9427E8
:105078004006753F2775400FE53F700AC3E5409429
:105088000F5003754000E52EC4FFAE2FEEC4540F39
:105098004F252FFEE52E3400FFC3E5409EE53F9FD8
:1050A800402C20462975F03D125EFEE583C313F5BA
:1050B80083E58213F582C3E5409582E53F958340F9
:1050C8000D852F40852E3FD2467558038008C2466D
:1050D800853F2E85402FAF3FAE40C00975091ED2CF
:0A50E800389002B41250F2D00922F1
:10577F0007710771077108920B2C0E5411F515F86C
:10578F001A501EEC23C128C42DEB3331388E3DFC4B
:10579F00437848FC4E86541359A05F2E64B86A4173
:1057AF006FC8754C7AD0805485DB8B6690F99696CE
:1057BF009C3FA1F9A7C6ADA9B3A2B9B4BFE0C6215A
:1057CF00CC78D2E0D955DFC9E635EC8FF2D4F903A6
:1057DF00FF1BFFFFFFFFFFFFFFFFFFFFFFFFFFFFAE
:1057EF00FFFFFFFFFFFFFFFFFFFFFFFFFFFFFFFFBA
:0257FF00FFFFAA
:10580100026C027102BD0447057A0685077A085FBA
:10581100093A0A0D0AD90BA10C660D270DE60EA354
:105821000F5E101910D2118B124412FD13B5146DB5
:10583100152615DF16981751180A18C4197D1A373D
:105841001AF11BAA1C631D1C1DD31E8A1F401FF5C4
:1058510020A8215A220A22B82365241024B82560E1
:10586100260526A9274C27ED288D292D29CB2A6A23
:105871002B082BA82C482CE92D8C2E302ED62F7DD1
:025881003026CF
:1058830000000E1A0EED1048121A145716F719EEEF
:105893001D3220BA247928652C6E308C34B338D667
:1058A3003CED40F444F348F34CFB510E552B595156
:1058B3005D7D61AF65E56A1F6E5C729D76DF7B235C
:1058C3007F6783A987EB8C2A9066949D98D19CFF70
:1058D300A127A54AA965AD7CB18BB594B996BD92B4
:1058E300C186C575C95CCD3DD116D4E8D8B2DC7488
:1058F300E02DE3DDE784EB20EEB3F23BF5B9F92CC1
:02590300FC970F
:10590500000000030007000B02D204DC065D07A5BA
:1059150008CD09E00AE70BE50CDE0DD50ECC0FC668
:1059250010C311C312C413C214BE15B816AF17A500
:105935001899198D1A801B721C631D531E441F3440
:1059450020242114220522F623E824DB25CE26C3B4
:1059550027B928B029A92AA32B9F2C9C2D9B2E9BC8
:105965002F9D30A131A732AE33B734C335D136E1DF
:1059750037F439093A223B3E3C5E3D813EA93FD48E
:0259850040429E
:1050F200742BF0EF30E71175F02DC5F0F0C5F0F428
:10510200CEF42401CE3400FFA37AE87B031251C50A
:105112007A647B001251C57A0A1251C57A01125182
:10512200C5303D03C23D22742EF0E509B41E004095
:10513200047A008014C082C0832400F5F012601645
:10514200E5825403FAD083D082303861C238C083FA
:10515200C082E50978AC125FCA74624034E5092462
:10516200DFF5F0125EFEE58230E509E509786512A9
:105172005FCA401BE50924DFF5F0125EFEE58330CD
:10518200E509E509786A125FCA4004746180027415
:1051920063D082D083F0E509785D125FCA500EE5D4
:1051A200097861125FCA5005E0C39420F0EA6012E8
:1051B200E0C5F01582E0C5F0F00582E5F0F0158259
:1051C200DAEE227C00C3EEFD9AFEEF9B4004FF0C58
:0A51D20080F3AE05EC2430F0A322B8
:10598700E9C0E0E6C908E6A2E7C975F00433C93300
:10599700A2E7C9D5F0F7F5F054F0F8740F55F023E6
:1059A700F5F09059E1E5F093FD05F0E5F093FC057E
:1059B700F0E5F00493FEC39CFAE5F093F5838E823D
:1059C7009DFB40048D838C82125E43ED33D0E0F95A
:1059D700EE3582F709EF3583F72200001000202407
:1059E7002C2038244528507E5D3F6ADA790E887569
:0C59F70098EAAB22C0D2DFDBF000FFFF1B
:105DC200E9C0E0E6F908E6780023F5F0E5F093FD96
:105DD20005F0E5F093FC05F0E5F00493FEC39CFAB0
:105DE200E5F093F5838E829DFB40048D838C8212B5
:105DF2005E43ED33D0E0F9EE3582F709EF3583F7F4
:015E0200227D
:102B490078B0E6600116A23C7245723A5020204CDA
:102B59001D75F0F9126016E582B4011275F0FC12C8
:102B69006016858376858275125F76125BF205326F
:102B7900E532B46403753200300115C201AF3FAECE
:102B890040C00975091ED2389002B41250F2D0091A
:102B990030130AE5407023E53F701FC21375F0FD3D
:102BA900126016C3E5829540E583953F500C75F098
:102BB900F9E5827005754C03D20820402220181FC0
:102BC90020081C75F0FC126016C3E5829540E58368
:102BD900953F500BD208754C01754A00754B00E5BD
:102BE9003845376022C3E5379401F537E538940055
:102BF900F5384537701175F0DC125EFEE58230E577
:102C0900065308FC12566430070BD5740875740214
:102C1900120026C207E5326003022E5FA23C72450C
:102C2900723A5013E5564557600DC3E5569401F5C0
:102C390056E5579400F5571220B270321244744089
:102C49001412427DA23C7245723A50051242ED803F
:102C590004C31242AD1244794014124295A23C7247
:102C690045723A50051242F58004D31242AD304DF7
:102C79000B79AAE72401F709E73400F778A5E6F507
:0A2C8900F078A4E645F06021E6C3F0
:102C93009401F6F5F008E69400F645F0701175F02E
:102CA300DC125EFEE58230E5065308FC125664E54D
:102CB3004C602CB4012CE54A2401F54AE54B340061
:102CC300F54B75F0CF125EFE7B007A3CA983A88298
:102CD300125E43C3E54A9CE54B9D4003754C0202DB
:102CE3002D64B40246E52C30E13FE52BB4013C757D
:102CF300F0FF126016E5822575F575E5833576F5E7
:102D030076789D763275F0FD126016C3E57595826F
:102D1300E5769583400D789D763385827585837638
:102D2300754C03125F76125BF28036E54CB40331C7
:102D330078B0E6702C75F0DC125EFEE58230E105BA
:102D430030161E8003301619204C16E52BB40111E2
:102D530020190EE52C30E109125E79125F76125BC1
:102D6300F2752400789E76FF789F76FF78A276FF2F
:102D730078A376FF7A0079007865EA125FCA504239
:102D8300EA24DFF5F0125EFEE5824201EA2430F523
:102D9300F0126023E58230E212540312605FF5F013
:102DA3007824E645F0F6E5821246B2E58230E61273
:102DB300C45403240412605F4224E582C454031202
:102DC30046D90A7421B502B075F0DC125EFEE582C5
:102DD30020E70353087F30E5055308838003530836
:012DE300806F
:102DE400E942087A00A908786AEA125FCA503CEA04
:102DF40024DFF5F0125EFEE5834201EA2430F5F0AB
:102E0400126023E58330E20C540312605F4224E530
:102E1400831246B2E58330E612C4540324041260DC
:102E24005F4224E583C454031246D90A7421B502CF
:102E3400B6E9420875F0C0125EFE0536E582B53685
:102E44000280025005D20F753600E5432401F54394
:102E540050090542E54270037542FFE532B4630C44
:102E6400C218E51B6047151BD2188041B46000509E
:102E74003CE532540F75F003A4902E8173022ED7D3
:102E8400022ED7022ED7022ED7022ED7022ED70219
:102E94002ED7022ED7022ED7022ED7022ED7022EDD
:102EA400D7022ED7022ED7022ED70232E2300022CA
:102EB400124FD875F0D5125EFEE582B41E1475F07B
:102EC400F9126016E582700AC009750902123E1EE5
:102ED400D00922751E00751F007810C2DFD2DC30C5
:102EE400DFFDE5D9251EF51EE5DA540F351FF51F64
:102EF400D8E9E509237583052400F582791E7AFD56
:102F04001220B27024E509B41A0FC083C08212449F
:102F140074D082D0834012802DB41B0DC083C08234
:102F2400124479D082D083501D303F1AE509C08302
:072F3400C0821224F4D082D8
:102F3B00D08350047A058007B4040050027A6412DF
:102F4B005B3FE5091244C5E509B41E061245510263
:102F5B0032BE232400F582758305E0FEA3E0FFE576
:102F6B0009B41E0040030232BE791EE50923232457
:102F7B0044F5F0C3125B9AE5092400F5F0126016D4
:102F8B00E5836051C0E0543FB4011A781E791E12DC
:102F9B005987C3E51E94B9E51F94FF4006751EB80B
:102FAB00751FFF800EB4020512457B8006B4030328
:102FBB001245F5E50923F582758303E51EF0A3E5BC
:102FCB001FF0D0E020180E30E7051246B180063016
:102FDB00E60312466F781EE50923232446F5F0120B
:102FEB005C481220B27014E509B41A0712447440FD
:102FFB000A8018B41B051244795010E50975F006C8
:10300B00A4900200F582D2381250F230180302322B
:10301B00BE75F0BF125EFEE582B50920300F1DC2F2
:10302B000FA23C7245723A4013E52C30E00E75F05E
:10303B00DC125EFEE58230E503124AFA75F0D2121D
:10304B005EFEE509B5820AC009750900123E1ED065
:10305B0009E509700D75F0F9126016E582B40202EC
:10306B00801C75F0D5125EFEE509B58211E52BB417
:10307B000202800AC009750901123E1ED009E5093A
:05308B002324A6F5F06E
:10309000126016C3E51E9582E51F958392477865F9
:1030A000E5091246FE12605F304720C0E0C000789C
:1030B00065E509125FCA400C78ACE5091246FE12BC
:1030C000605F46F6D000D0E046802EC0E0C000E54C
:1030D00009786A125FCA500EE50924DFF5F0125E26
:1030E000FEE58320E50D78ACE5091246FE12605F2F
:1030F000F456F6D000D0E0F456F6E5092324A7F5FF
:10310000F0126016C3E51E9582E51F9583924778FD
:103110006AE5091246FE12605F20472EC0E0C0003B
:10312000786AE509125FCA401AE50924DFF5F01252
:103130005EFEE58330E50C78ACE5091246FE1260D0
:103140005F46F6D000D0E046802EC0E0C000E50922
:103150007865125FCA500EE50924DFF5F0125EFEB5
:10316000E58220E50D78ACE5091246FE12605FF4B9
:1031700056F6D000D0E0F456F6A23C7245723A50B2
:103180000D78AC7600087600087600087600E50930
:10319000785D1246FE12605F56603F1220B27007E3
:1031A0001243055002807E12448D40F9E509232424
:1031B00000F5F0125EFEE5834582603EC3E51E9594
:0131C000828C
:1031C100E51F95835033203A0E203C0BD23A8509F6
:1031D10048204C03754C00804BE509232464F5F02D
:1031E100126016E58320E72130E61053833FC3E5E3
:1031F100439582E542958350028029E509785D1265
:1032010046FE12605F46F68091E50923246412337D
:10321100C550E8E509232400F5F0125EFE12337073
:10322100400280D7E50978611246FE12605F566060
:10323100431220B2700B1243055006E5F070208056
:103241007CE509232401F5F0125EFEE5835582B485
:10325100FF02801EC3E51E9582E51F958340132062
:103261003A0E203C0B754C00E509D2E7F548D23AFD
:10327100804B8049E509232465F5F0126016E5834A
:1032810020E71F30E60E53833FC3E5439582E542B5
:1032910095834029E50978611246FE12605F46F682
:1032A100808FE5092324651233C550E8E5092324FD
:1032B10001F5F0125EFE123396500280D70509E542
:1032C10009B42105D23F75090030400CC23CC23A15
:1032D100C240754200754300A23C723A9285022EAB
:1032E100B175F0E21260305368BF50034368407516
:1032F100F0E3126030536DBF4003436D40436440BF
:0D33010075F03D125EFEC3E5409582E53F8C
:10330E009583400D203A0A203C52D23C7548BC8031
:10331E00ABE56020E62475F03C125EFEE582458347
:10332E006018E582240AF582E5833400F583126085
:10333E0034500774A01233C5402243604075F03CF0
:10334E00125EFEC3E5409582E53F9583500E203A0E
:10335E000B203C08D23C75483C0232CA125664021D
:10336E002EB1C083C082E5092400F5F0126023AEB1
:10337E0082AF83D082D083E5822EF582E5833FF53E
:10338E0083500390FFFF8025C083C082E50924008F
:10339E00F5F0126023AE82AF83D082D083E582C374
:1033AE009EF582E5839FF5835003900000C3E51ED2
:1033BE009582E51F958322F5F012601653833FE543
:1033CE008275F03CA4F582A8F0E58375F03CA42844
:0C33DE00F583C3E5439582E54295832208
:1044C50004B421027400B41E0475D80722400215F5
:1044D500E0C0E07400A2E092B6A2E192B7A2E29237
:1044E500A004D2A1C2A300D2A3B408E9D0E0A2E0FF
:1044F50092A6A2E192A7A2E292B6A2E392B7A2E4A3
:1045050092A0C2A1C2A300D2A3B41E0050212400D0
:10451500F5F0126016E58354076029B402028003A2
:10452500B4030975D800C2A5C2A4801FB4040975D7
:10453500D802D2A5C2A48013B4050975D803D2A5A3
:10454500D2A4800775D801C2A5D2A42290053CE06B
:10455500F502A3E0F50379007827125E438D7A8E84
:104565007B787A797C90577F125DC2787A797E90D4
:104575005883125DC222E51E257CF51EE51F357D9B
:10458500F51FC3E51E9410F51EE51F9427F51F754D
:10459500F002C3E51F13F51FE51E13F51ED5F0F256
:1045A500905801781E791E125DC2C3E51E9452F51E
:1045B5001EE51F9408F51F5007751E00751F002284
:1045C500C3E51E94A4E51F941F4007751EFF751FC4
:1045D500FF22A81EA91F7A177B08125E43EF70EB16
:0F45E500C3EC13ED3400F51EEE3400F51F40DC7F
:1045F40022E51E257EF51EE51F357FF51FC3E51E4A
:104604009410F51EE51F9427F51F75F002C3E51FEE
:1046140013F51FE51E13F51ED5F0F2905905781E0B
:10462400791E125DC2C3E51E9452F51EE51F94085F
:10463400F51F5007751E00751F0022C3E51E9498D0
:10464400E51F94214007751EFF751FFF22A81EA9B0
:104654001F7A9F7B07125E43EF70EBC3EC13ED34BC
:1046640000F51EEE3400F51F40DC22E5091423F5A5
:1046740082758303E0C3951EF51EA3E0951FF51F05
:1046840092D5E5092444F5F0126016E582251EF55D
:104694001EE583351FF51F500A20D510751EFF75C2
:1046A4001FFF2230D506751E00751F0022225403F9
:1046B400B40200400920210520200280012278A2B2
:1046C400F6789EEAB41E027496B41F02749BB4205A
:1046D40002749CF622B4020040092025052024021D
:1046E40080012278A3F6789FEAB41E027496B41F60
:1046F40002749BB42002749CF622B4080040059412
:05470400080880F62208
:105FCA0075F0088428F8E5F012605F56C36001D3C3
:015FDA0022A4
:0B605F0004832201020408102040808E
:0D603000126016C3E5409582E53F9583227E
:105E790075F0FF126016789D7632E5822575F57505
:105E8900E5833576F57675F0FE126016C3E57595EE
:105E990082E5769583400A858275858376789D7635
:025EA9003322A2
:1042330078B0763275F0FD126016AF83AE82789D4A
:10424300763175F0FF126016C3E5759582F575E555
:10425300769583F576C3E5759EE5769F5008789D40
:1042630076338E758F76221220B2700CE509B41A5C
:1042730002D322B41B02D322C322900382E0FEA303
:10428300E0FFD23890029CC00975091A1250F2D08F
:104293000922900386E0FEA3E0FFD2389002A2C079
:1042A3000975091B1250F2D0092290038050039024
:1042B3000384E0B4E808A3E01582B4030122E024F8
:1042C30001F0A3E03400F022900380E0900382F039
:1042D300900381E0900383F022900384E0900386AF
:1042E300F0900385E0900387F022900380E4F0A32D
:1042F300F022900384E4F0A3F0220243EBD25702AE
:104303004385E509B41A3F75F0AF125EFEE583B449
:1043130003E8E582B4E8E3E51F20E7E1305763C231
:1043230057900381E0700D1582E0B402005005122E
:1043330042ED804E1242CB75F0001243ED1242ED76
:104343008040D256803CB41BB175F0B3125EFEE5DB
:0443530083B403A686
:10435700E582B4E8A1E51F20E7E4305621C2569074
:104367000385E0700D1582E0B4020050051242F596
:10437700800C1242DC75F0011243ED1242F5E5099B
:1043870075F035B41B0375F037125EFEE50975F05D
:1043970004A42446F5F085835085824F784F125C3C
:1043A70048EFB40309EEB4E80575F0008034E50979
:1043B700900380B41B03900384C3E09EA3E09F7522
:1043C700F000401E75F0FFE509B41A0C1242CBC08D
:1043D700F012427DD0F0800A1242DCC0F012429502
:1043E700D0F0D322C322E5F090039060039003B08E
:1043F700E0B40A00500204F0F9A3E5F090038260EC
:1044070003900386E0FEA3E0FFE5F09003916003CD
:104417009003B1E0F804B40A004001E4F0E8A323F4
:104427002582F582EEF0A3EFF0E5F09003906003AC
:104437009003B0E0F8A3A37F007E00E02EFEA3E088
:104447003FFFA3D8F67547007546008F458E448514
:10445700010079007A00C0F0125D7DD0E09003A6DC
:1044670060039003C6E544F0A3E545F02275F0AF7D
:08447700800375F0B3125EFE34
:10447F00E583B40307E582B4E802C322D3223055A3
:10448F0028E509F875F062B4100040069410F8752D
:10449F00F063126016E8A982B4080040049408A9DA
:1044AF00831244BA596002D322C322048322010229
:0644BF00040810204080FB
:105E4300C0E0C0F088F0EAA4FCADF088F0EBA42D2C
:105E5300FDE5F03400FEE43400FF89F0EAA42DFDF3
:105E6300E5F03EFEE43FFF89F0EBA42EFEE5F03FB4
:065E7300FFD0F0D0E02298
:030000000251DCCE
:03000300025C9C00
:03000B00025CE9AB
:03001300025C9CF0
:03002300022210A6
:1033EA00204F21D24FAFFAEFFEADF97C00E42DFD5C
:1033FA00EC3EFCE4123D19900410123DE1E4900405
:10340A000CF0A3F0204E21D24EAFFCEFFEADFB7CB8
:10341A0000E42DFDEC3EFCE4123D19900414123D2B
:10342A00E1E490040EF0A3F0900400E07002A3E03F
:10343A0070030239FCE5096003023520204B6B90CA
:10344A000428E054027031E524540264027014D353
:10345A0090042BE0940090042AE064809480400356
:10346A00432C80E52454016401703FC390042AE090
:10347A00648094805034802FE52454026402700ED4
:10348A00C390042AE0648094805003432C80E5248E
:10349A00540164017014D390042BE0940090042A20
:1034AA00E0648094804003432C80E5245402640243
:1034BA00700BE524540864087003432C80E52454F7
:1034CA00016401700BE524540464047003432C80E6
:1034DA00E52C54017003432C80900428E0540264C4
:1034EA0002701590042AE0FEA3E0FFC3E49FFFE404
:1034FA009E90042AF0A3EFF0E524540C7003304B9D
:10350A001590042AE0FEA3E0FFC3E49FFFE49E9027
:10351A00042AF0A3EFF0E5097003023601204B6B91
:10352A00900428E054087031E52454206420701473
:10353A00D390042BE0940090042AE06480948040A5
:10354A0003432C80E52454106410703FC390042A6E
:10355A00E0648094805034802FE5245420642070E5
:10356A000EC390042AE0648094805003432C80E5C3
:10357A0024541064107014D390042BE09400900427
:10358A002AE0648094804003432C80E5245420641C
:10359A0020700BE524548064807003432C80E5245A
:1035AA0054106410700BE524544064407003432C9B
:1035BA0080E52C54027003432C80900428E05408C0
:1035CA006408701590042AE0FEA3E0FFC3E49FFF9D
:1035DA00E49E90042AF0A3EFF0E52454C07003306F
:1035EA004B1590042AE0FEA3E0FFC3E49FFFE49E8C
:1035FA0090042AF0A3EFF0E52C5480648070030253
:10360A0039FCAF09EF60076401600302374F900489
:10361A002AE0FCA3E0FDEC123D19E4FBFA79FE78FE
:10362A0042123AF5C004C005C006C007E50925E004
:10363A002400F582E43404F583E0FCA3E0FDEC12F7
:10364A003D19A804A905AA06AB07D007D006D005DC
:10365A00D004123BFE900418123DE1E50925E0244E
:10366A0004F582E43404F583E0FCA3E0FDEC123DAA
:10367A0019C004C005C006C0077FC37EF57DA87CBB
:10368A003E900418E0F8A3E0F9A3E0FAA3E0FB12E5
:10369A003AF5D003D002D001D000123BFEE509254D
:1036AA00E025E02410F582E43404F583E0F8A3E091
:1036BA00F9A3E0FAA3E0FB123A0490041C123DE1DC
:1036CA00E50925E02408F582E43404F583E0FCA347
:1036DA00E0FDEC123D19C004C005C006C007E509AB
:1036EA0025E02400F582E43404F583E0FCA3E0FD40
:1036FA00EC123D19D003D002D001D000123AF5C025
:10370A0004C005C006C007E50925E0240CF582E4DB
:10371A003404F583E0FEA3E0FFC390042BE09FFD91
:10372A0090042AE09EFC123D197BD77AA379277868
:10373A0042123AF5D003D002D001D000123BFE90DB
:10374A000420123DE1E5096402600302389275091A
:10375A000190042AE0FCA3E0FDEC123D19E4FBFA17
:10376A0079FE7842123AF5C004C005C006C007E5E2
:10377A000925E02400F582E43404F583E0FCA3E0A3
:10378A00FDEC123D19A804A905AA06AB07D007D07B
:10379A0006D005D004123BFE900418123DE1E5095B
:1037AA0025E02404F582E43404F583E0FCA3E0FD7B
:1037BA00EC123D19C004C005C006C0077F0A7ED7B7
:1037CA007D237C3E900418E0F8A3E0F9A3E0FAA375
:1037DA00E0FB123AF5D003D002D001D000123BFE32
:1037EA00E50925E025E02410F582E43404F583E0B8
:1037FA00F8A3E0F9A3E0FAA3E0FB123A0490041C50
:10380A00123DE1E50925E02408F582E43404F58354
:10381A00E0FCA3E0FDEC123D19C004C005C006C0DF
:10382A0007E50925E02400F582E43404F583E0FC89
:10383A00A3E0FDEC123D19D003D002D001D0001252
:10384A003AF5C004C005C006C007E50925E0240C06
:10385A00F582E43404F583E0FEA3E0FFC390042B71
:10386A00E09FFD90042AE09EFC123D197B5C7A8F52
:10387A0079227841123AF5D003D002D001D0001251
:10388A003BFE900420123DE1304B0A900418123D91
:10389A00ED00000000E4FFFEFD7C46900418E0F80D
:1038AA00A3E0F9A3E0FAA3E0FB123C9B600C400AF8
:1038BA00900418123DED46000000E4FFFEFD7CC6B0
:1038CA00900418E0F8A3E0F9A3E0FAA3E0FB123CA5
:1038DA009B500A900418123DEDC600000090042A7D
:1038EA00E0FEA3E0FFE50925E0240CF582E43404B8
:1038FA00F583EEF0A3EFF090041CE0FCA3E0FDA337
:10390A00E0FEA3E0FF900418E0F8A3E0F9A3E0FAD0
:10391A00A3E0FB123A04900420E0F8A3E0F9A3E044
:10392A00FAA3E0FB123A04123D52900424EEF0A3EB
:10393A00EFF090041CE0FCA3E0FDA3E0FEA3E0FF8F
:10394A00E50925E025E02410F582E43404F5831224
:10395A003DE1E50925E025E02410F582E43404F58B
:10396A0083E0FCA3E0FDA3E0FEA3E0FF7B007AF086
:10397A00797F7845123C9B5016E50925E025E0241D
:10398A0010F582E43404F583123DED457FF000E53D
:10399A000925E025E02410F582E43404F583E0FCEF
:1039AA00A3E0FDA3E0FEA3E0FFE4FBFAF9F8123C72
:1039BA009B60184016E50925E025E02410F582E40D
:1039CA003404F583123DED00000000D3900425E095
:1039DA0094FF900424E06480948F4007740FF0A34E
:1039EA0074FFF0C3900424E0648094805004E4F0EF
:0339FA00A3F02215
:105FDB00900436E0FFA3E090043CCFF0A3EFF02257
:1055BD00900429E0FCE4123D1E7B007A34791E78BC
:1055CD004E123AF5C004C005C006C00790044CE069
:1055DD00FCE4123D1ED003D002D001D000123AF5EA
:1055ED00C004C005C006C007900448E0FCA3E0FD60
:1055FD00A3E0FEA3E0FFE4123D14C004C005C00605
:10560D00C007900446E0FCA3E0FDE4123D19D00371
:10561D00D002D001D000123AF5A804A905AA06AB14
:10562D0007D007D006D005D004123BFE90044212DD
:10563D003DE1900442E0FCA3E0FDA3E0FEA3E0FF0A
:10564D00123D5290043CEEF0A3EFF0E004F0700632
:07565D0090043CE004F02280
:104CA30090045CE0FEA3E0FFA3E0FCA3E0FD6F70D3
:104CB30002EC6E7003024E46D3ED9FEC9E900450BF
:104CC300E0FC5003024D84A3E0FDE4123D19C0044F
:104CD300C005C006C007900454E0FCA3E0FDE41245
:104CE3003D19D003D002D001D000123A00C004C055
:104CF30005C006C00790045CE0FEA3E0FFC3900478
:104D03005FE09FFD90045EE09EFCE4123D19D0033A
:104D1300D002D001D000123AF5C004C005C006C0CD
:104D230007900450E0FCA3E0FDE4123D19C004C069
:104D330005C006C007900452E0FCA3E0FDE4123D69
:104D430019D003D002D001D000123A00A804A9055B
:104D5300AA06AB07D007D006D005D004123BFEC08D
:104D630004C005C006C00790045CE0FCA3E0FDE4BA
:104D7300123D19D003D002D001D000123A04024EE2
:104D83003BA3E0FDE4123D19C004C005C006C00703
:104D9300900454E0FCA3E0FDE4123D19D003D002DB
:104DA300D001D000123A00C004C005C006C007906D
:104DB300045EE0FEA3E0FFC390045DE09FFD90046A
:104DC3005CE09EFCE4123D19D003D002D001D00078
:104DD300123AF5C004C005C006C007900450E0FCB9
