:200000000C9486000C9468130C9468130C9468130C9468130C9468130C9468130C946813FD
:200020000C9468130C9468130C9468130C941A0B0C9468130C9468130C940B0B0C946813A3
:200040000C9468130C9468130C9468130C9468130C94E10B0C9468130C9468130C94681357
:200060000C9468130C9468130C9468130C9468130C9468130C9468130C9468130C946813A8
:200080000C9468130C9468130C9468130C9468130C94840E0C9468130C9468130C94681371
:2000A0000C9468130C9468130C9468130C9468130C9468130C9468130C9468130C94681368
:2000C0000C9468130C9468130C9468130C9468130C9468130C9468130C9468130C94681348
:2000E0000C943A0B0C949D0B0C946D0B0C9468130C94681340004FAB804FAB4FC30026DEBB
:200100004FC34FC5804FC54FC60026F611241FBECFEFCDBFDFE7DEBFE4EFF0E041E019C098
:20012000B791A79137912791079107FD0EC097918791EF01F92FE82F0BBF07900D92A2172D
:20014000B307D9F7FE011BBE04C01D92A217B307E1F7EC30F40721F70E944D0D0C944C1355
:20016000F894FFCF00000000963007772C610EEEBA51099919C46D078FF46A7035A563E9D7
:20018000A395649E3288DB0EA4B8DC791EE9D5E088D9D2972B4CB609BD7CB17E072DB8E7DA
:2001A000911DBF906410B71DF220B06A4871B9F3DE41BE847DD4DA1AEBE4DD6D51B5D4F4DC
:2001C000C785D38356986C13C0A86B647AF962FDECC9658A4F5C0114D96C0663633D0FFA4C
:2001E000F50D088DC8206E3B5E10694CE44160D5727167A2D1E4033C47D4044BFD850DD2AF
:200200006BB50AA5FAA8B5356C98B242D6C9BBDB40F9BCACE36CD832755CDF45CF0DD6DCD9
:20022000593DD1ABAC30D9263A00DE518051D7C81661D0BFB5F4B42123C4B3569995BACFCD
:200240000FA5BDB89EB802280888055FB2D90CC624E90BB1877C6F2F114C6858AB1D61C133
:200260003D2D66B69041DC760671DB01BC20D2982A10D5EF8985B1711FB5B606A5E4BF9F97
:2002800033D4B8E8A2C9077834F9000F8EA8099618980EE1BB0D6A7F2D3D6D08976C649195
:2002A000015C63E6F4516B6B62616C1CD83065854E0062F2ED95066C7BA5011BC1F408822F
:2002C00057C40FF5C6D9B06550E9B712EAB8BE8B7C88B9FCDF1DDD62492DDA15F37CD38C37
:2002E000654CD4FB5861B24DCE51B53A7400BCA3E230BBD441A5DF4AD795D83D6DC4D1A40E
:20030000FBF4D6D36AE96943FCD96E34468867ADD0B860DA732D0444E51D03335F4C0AAAAC
:20032000C97C0DDD3C710550AA41022710100BBE86200CC925B56857B3856F2009D466B9B8
:200340009FE461CE0EF9DE5E98C9D9292298D0B0B4A8D7C7173DB359810DB42E3B5CBDB736
:20036000AD6CBAC02083B8EDB6B3BF9A0CE2B6039AD2B1743947D5EAAF77D29D1526DB04BA
:200380008316DC73120B63E3843B64943E6A6D0DA85A6A7A0BCF0EE49DFF099327AE000A70
:2003A000B19E077D44930FF0D2A3088768F2011EFEC206695D5762F7CB67658071366C1998
:2003C000E7066B6E761BD4FEE02BD3895A7ADA10CC4ADD676FDFB9F9F9EFBE8E43BEB71772
:2003E000D58EB060E8A3D6D67E93D1A1C4C2D83852F2DF4FF167BBD16757BCA6DD06B53FED
:200400004B36B248DA2B0DD84C1B0AAFF64A0336607A0441C3EF60DF55DF67A8EF8E6E316F
:2004200079BE69468CB361CB1A8366BCA0D26F2536E2685295770CCC03470BBBB9160222ED
:200440002F260555BE3BBAC5280BBDB2925AB42B046AB35CA7FFD7C231CFD0B58B9ED92C99
:200460001DAEDE5BB0C2649B26F263EC9CA36A750A936D02A906099C3F360EEB856707724F
:2004800013570005824ABF95147AB8E2AE2BB17B381BB60C9B8ED2920DBED5E5B7EFDC7C7B
:2004A00021DFDB0BD4D2D38642E2D4F1F8B3DD686E83DA1FCD16BE815B26B9F6E177B06FCB
:2004C0007747B718E65A0888706A0FFFCA3B06665C0B0111FF9E658F69AE62F8D3FF6B614D
:2004E00045CF6C1678E20AA0EED20DD75483044EC2B30339612667A7F71660D04D476949CC
:20050000DB776E3E4A6AD1AEDC5AD6D9660BDF40F03BD83753AEBCA9C59EBBDE7FCFB24752
:20052000E9FFB5301CF2BDBD8AC2BACA3093B353A6A3B4240536D0BA9306D7CD2957DE54F8
:20054000BF67D9232E7A66B3B84A61C4021B685D942B6F2A37BE0BB4A18E0CC31BDF055A4C
:200560008DEF022D4349555F424C2032303234303632350000C0C101C30302C2C60607C7A7
:2005800005C5C404CC0C0DCD0FCFCE0E0ACACB0BC90908C8D81819D91BDBDA1A1EDEDF1F4B
:2005A000DD1D1CDC14D4D515D71716D6D21213D311D1D010F03031F133F3F23236F6F7372B
:2005C000F53534F43CFCFD3DFF3F3EFEFA3A3BFB39F9F83828E8E929EB2B2AEAEE2E2FEF8B
:2005E0002DEDEC2CE42425E527E7E62622E2E323E12120E0A06061A163A3A26266A6A7676B
:20060000A56564A46CACAD6DAF6F6EAEAA6A6BAB69A9A86878B8B979BB7B7ABABE7E7FBFCA
:200620007DBDBC7CB47475B577B7B67672B2B373B17170B0509091519353529296565797AA
:20064000559594549C5C5D9D5F9F9E5E5A9A9B5B99595898884849894B8B8A4A4E8E8F4F0A
:200660008D4D4C8C4484854587474686824243834181804000C1814001C0804101C080410A
:2006800000C1814001C0804100C1814000C1814001C0804101C0804100C1814000C181404A
:2006A00001C0804100C1814001C0804101C0804100C1814001C0804100C1814000C181402A
:2006C00001C0804100C1814001C0804101C0804100C1814000C1814001C0804101C080410A
:2006E00000C1814001C0804100C1814000C1814001C0804101C0804100C1814000C18140EA
:2007000001C0804100C1814001C0804101C0804100C1814000C1814001C0804101C08041C9
:2007200000C1814001C0804100C1814000C1814001C0804100C1814001C0804101C08041A9
:2007400000C1814001C0804100C1814000C1814001C0804101C0804100C1814000C1814089
:2007600001C0804100C1814001C0804101C0804100C18140E0E8F8E085818F7D858384E0D1
:20078000809386040895E0E8F8E08581806285830895CF93DF93EC010E94AE11CE018B5F17
:2007A0009D4F0E94AE11FE01E65FFB4F1082C55FDB4F1882DF91CF910895E0E4F8E080EA71
:2007C000858380EC868383E087838AE09AE180879187E0EAF4E08081816080830E94BA0349
:2007E0008EE696E40E94C90308950E94C30308950F931F93CF938C01045F1B4FF8019081E1
:200800008181A62FA827B0E0C0E09D014C2F2C58394F4F4FF901542F0E945713262F292711
:20082000CD01AC2F8C589A4FAF4FFC015A2F0E94571330E0322F2227C901862BBC01F801C7
:2008400060837183CF911F910F910895CF92DF92FF920F931F93CF93DF930F92CDB7DEB72F
:20086000F82E8B0119826B0182EFC81A8BEFD80AF6016081C8010E941D12F6016081C801FD
:200880000E94F80341E050E0BE016F5F7F4FC8018B5F9D4F0E945A1269816068C8010E9445
:2008A0001D1269816068C8010E94F8036F2DC8010E941D126F2DC8010E94F8030F90DF91AA
:2008C000CF911F910F91FF90DF90CF900895BF92CF92DF92EF92FF920F931F93CF93DF9311
:2008E000CDB7DEB76097CDBFDEBF6C018B5F9D4F0E94B711811163C024E635E040E080E1BD
:20090000F901DE011196742F0E943113BC2CED2C8601025F1B4FF8016081C6010E941D1209
:20092000F8016081C6010E94F80361E1C6010E941D1261E1C6010E94F80363E1C6010E944C
:200940001D1263E1C6010E94F80360E0C6010E941D1260E0C6010E94F8036FEFC6010E947D
:200960001D126FEFC6010E94F80361E0C6010E941D1261E0C6010E94F80360E0C6010E945F
:200980001D1260E0C6010E94F80300E010E012C0E1E0F0E0EC0FFD1FE00FF11FF0806F2D2F
:2009A0008B2D9E2D0E941D126F2DC6010E94F8030F5F1F4F0F3011055CF380E001C083E0DF
:2009C0006096CDBFDEBFDF91CF911F910F91FF90EF90DF90CF90BF900895EF92FF920F935C
:2009E0001F93CF93DF93CDB7DEB72797CDBFDEBF8C01BE016E5F7F4F86E0DB011D928A957A
:200A0000E9F78FEFE0E9FEE4DF011D928A95E9F742E050E083E798E40E945A1243E050E0A6
:200A2000BE016F5F7F4F83E798E40E945A12898190E099278827092E000CAA0BBB0B8C83B1
:200A40009D83AE83BF8344E050E0BE016F5F7F4F83E798E40E945A12898190E0A0E0B0E0D6
:200A6000BA2FA92F982F88274C815D816E817F81842B952BA62BB72B8C839D83AE83BF83E1
:200A800045E050E0BE016F5F7F4F83E798E40E945A1229818C819D81AE81BF81822B8C83B2
:200AA0009D83AE83BF8346E050E0BE016D5F7F4F83E798E40E945A127801B2EFEB1ABBEF37
:200AC000FB0AF7016081C8010E941D12D7016C91C8010E94F8038C819D81AE81BF812B811D
:200AE000822B892B8A2B8B2B81F481E090E08093C34F9093C44F60E0C8010E941D1260E06F
:200B0000C8010E94F80380E001C08FEF2796CDBFDEBFDF91CF911F910F91FF90EF9008951F
:200B2000EF92FF920F931F93CF93DF93CDB7DEB72797CDBFDEBF8C01BE016E5F7F4F86E02E
:200B4000DB011D928A95E9F78FEFE0E9FEE4DF011D928A95E9F742E050E083E798E40E947A
:200B60005A1243E050E0BE016F5F7F4F83E798E40E945A12898190E099278827092E000C3B
:200B8000AA0BBB0B8C839D83AE83BF8344E050E0BE016F5F7F4F83E798E40E945A1289818B
:200BA00090E0A0E0B0E0BA2FA92F982F88274C815D816E817F81842B952BA62BB72B8C83B3
:200BC0009D83AE83BF8345E050E0BE016F5F7F4F83E798E40E945A1229818C819D81AE81DA
:200BE000BF81822B8C839D83AE83BF8346E050E0BE016D5F7F4F83E798E40E945A1278014A
:200C0000B2EFEB1ABBEFFB0AF7016081C8010E941D12D7016C91C8010E94F8038C819D81A6
:200C2000AE81BF812B81822B892B8A2B8B2B11F08FEF00C02796CDBFDEBFDF91CF911F9128
:200C40000F91FF90EF900895CF92DF92EF92FF920F931F93CF93DF93CDB7DEB72797CDBFDA
:200C6000DEBFBE016E5F7F4F86E0DB011D928A95E9F78FEFE0E9FEE4DF011D928A95E9F7D6
:200C800042E050E083E798E40E945A1243E050E0BE016F5F7F4F83E798E40E945A12898162
:200CA00090E099278827092E000CAA0BBB0B8C839D83AE83BF8344E050E0BE016F5F7F4F46
:200CC00083E798E40E945A12898190E0A0E0B0E0BA2FA92F982F88274C815D816E817F81C5
:200CE000842B952BA62BB72B8C839D83AE83BF8345E050E0BE016F5F7F4F83E798E40E94F8
:200D00005A1229818C819D81AE81BF81822B8C839D83AE83BF8346E050E0BE016D5F7F4F25
:200D200083E798E40E945A12C12CD12C76010FC0A601495F5F4FB6016057714B83E798E482
:200D40000E945A12BFEFCB1ADB0AEB0AFB0A2B81822F90E0A0E0B0E0C816D906EA06FB0688
:200D600038F34C815D816E817F818091994F90919A4FA0919B4FB0919C4F7A018B01E80E67
:200D8000F91E0A1F1B1FC801B70130E040E95EE40E944F10882311F08BEF01C080E02796D8
:200DA000CDBFDEBFDF91CF911F910F91FF90EF90DF90CF9008958F929F92AF92BF92CF922C
:200DC000DF92EF92FF92C090914FD090924FE090934FF090944F0B2EB9E0F694E794D79428
:200DE000C794BA95D1F7B02D80909D4F90909E4FA0909F4FB090A04F80E00DC0C501B401A6
:200E00000E94B80F91E0C91AD108E108F10892E0990EA11CB11CC114D104E104F10411F032
:200E2000882361F381118AEFFF90EF90DF90CF90BF90AF909F908F900895AF92BF92CF9260
:200E4000DF92EF92FF920F931F93CF93DF93CDB7DEB72797CDBFDEBF7C01BE016E5F7F4F10
:200E600086E0DB011D928A95E9F78FEFE0E9FEE4DF011D928A95E9F742E050E083E798E493
:200E80000E945A1243E050E0BE016F5F7F4F83E798E40E945A12898190E099278827092E82
:200EA000000CAA0BBB0B8C839D83AE83BF8344E050E0BE016F5F7F4F83E798E40E945A1266
:200EC000898190E0A0E0B0E0BA2FA92F982F88274C815D816E817F81842B952BA62BB72B95
:200EE0008C839D83AE83BF8345E050E0BE016F5F7F4F83E798E40E945A1229818C819D81D7
:200F0000AE81BF81822B8C839D83AE83BF8346E050E0BE016D5F7F4F83E798E40E945A1270
:200F2000CE2CDF2C8701025F1B4FF8016081C7010E941D12D8016C91C7010E94F8036FE755
:200F4000C7010E941D126FE7C7010E94F8036B81C7010E941D126B81C7010E94F80300E087
:200F600010E029C04C815D816E817F818091954F9091964FA091974FB091984F840F951F7D
:200F8000A61FB71FBC01CD01600F711F811D911D0E940D0FF801E057F14B5F018083682FBC
:200FA0008C2D9D2D0E941D12D5016C91C7010E94F8030F5F1F4F8B8190E00817190790F28C
:200FC00080E02796CDBFDEBFDF91CF911F910F91FF90EF90DF90CF90BF90AF900895EF9223
:200FE000FF920F931F93CF93DF93CDB7DEB72797CDBFDEBFBE016E5F7F4F86E0DB011D92ED
:201000008A95E9F78FEFE0E9FEE4DF011D928A95E9F742E050E083E798E40E945A1243E0B1
:2010200050E0BE016F5F7F4F83E798E40E945A12898190E0A0E0B0E0DC01992788278C834C
:201040009D83AE83BF8344E050E0BE016F5F7F4F83E798E40E945A12898190E0A0E0B0E0D0
:20106000BA2FA92F982F88274C815D816E817F81842B952BA62BB72B8C839D83AE83BF83DB
:2010800045E050E0BE016F5F7F4F83E798E40E945A1229818C819D81AE81BF81822B8C83AC
:2010A0009D83AE83BF8346E050E0BE016D5F7F4F83E798E40E945A1200E010E00CC0A801B5
:2010C000495F5F4FB8016057714B83E798E40E945A120F5F1F4F2B81822F90E008171907B2
:2010E00070F34C815D816E817F818091954F9091964FA091974FB091984F7A018B01E80EBC
:20110000F91E0A1F1B1FC801B70130E040E95EE40E944F10882311F08BEF01C080E0279654
:20112000CDBFDEBFDF91CF911F910F91FF90EF9008954091914F5091924F6091934F709174
:20114000944F8091954F9091964F0E94BC1280E0089508950895CF92DF92EF92FF92C12C39
:20116000D12C760117C080919D4F90919E4FA0919F4FB091A04FBC01CD016C0D7D1D8E1D81
:201180009F1D0E940D0F8F3F91F48FEFC81AD80AE80AF80A8091914F9091924FA091934F46
:2011A000B091944F8C159D05AE05BF05E0F68091914F9091924FA091934FB091944FC81673
:2011C000D906EA06FB0610F48AEF01C080E0FF90EF90DF90CF900895CF92DF92EF92FF9244
:2011E0001F93CF93DF9300D0CDB7DEB77C0119821A8242E050E0BE016F5F7F4F83E798E439
:201200000E945A128981853009F48EC068F4823029F118F48130E9F010C0833009F44DC06B
:20122000843009F451C009C0883009F4ACC008F4D9C0893049F08F3F11F01EEFDEC0C70139
:201240000E94ED04182FD9C0C7010E94900510E0D4C0C7010E94240610E0CFC00E94DB0602
:20126000182F8111C1C0670182EFC81A8BEFD80AF6016081C7010E941D12F6016081C701EC
:201280000E94F80341E050E0BE016E5F7F4FC7018B5F9D4F0E945A126A81C7010E941D12D6
:2012A0006A81C7010E94F80360E0C7010E941D1260E0C7010E94F803A0C0C7010E941D0772
:2012C000182F811193C099C0C7010E94EF07182F81118EC06701F2EFCF1AFBEFDF0AF60106
:2012E0006081C7010E941D12F6016081C7010E94F80341E050E0BE016E5F7F4FC7018B5FDA
:201300009D4F0E945A126A81C7010E941D126A81C7010E94F80360E0C7010E941D1260E0E6
:20132000C7010E94F80369C00E949908182F811161C06701F2EFCF1AFBEFDF0AF601608105
:20134000C7010E941D12F6016081C7010E94F80341E050E0BE016E5F7F4FC7018B5F9D4F6E
:201360000E945A126A81C7010E941D126A81C7010E94F80360E0C7010E941D1260E0C701AA
:201380000E94F8033AC00E94AB08182F811134C06701F2EFCF1AFBEFDF0AF6016081C701EF
:2013A0000E941D12F6016081C7010E94F80341E050E0BE016E5F7F4FC7018B5F9D4F0E9434
:2013C0005A126A81C7010E941D126A81C7010E94F80360E0C7010E941D1260E0C7010E944A
:2013E000F8030BC010E009C01EEF07C01BEF05C01BEF03C01BEF01C01AEF812F0F900F903C
:20140000DF91CF911F91FF90EF90DF90CF900895CF92DF92EF92FF920F931F93CF93DF93C7
:2014200000D000D0CDB7DEB78091794A80FFE2C0198240E050E0BE016F5F7F4F83E798E4D2
:201440000E945A1290917C4A8981981781F0E9E7FAE480818E7F80838FEF9FEF80937A4ACB
:2014600090937B4A83E798E40E94AE11C3C083E798E40E94D011039780F4E9E7FAE4808194
:201480008E7F80838FEF9FEF80937A4A90937B4A83E798E40E94AE11ADC083E798E40E9435
:2014A000D0116C018FEF9FEF80937A4A90937B4A00E010E010C01C82A801BE016C5F7F4FD4
:2014C00083E798E40E945A126C818EE696E40E94F8030F5F1F4F760182E0E81AF1080E15CD
:2014E0001F0548F31A821B82A60141505109BE016E5F7F4F83E798E40E945A12A701BE010D
:201500006D5F7F4F83E798E40E945A128B8190E0982F88272A81820F911D20917A4A30912B
:201520007B4A8217930781F0E9E7FAE480818E7F80838FEF9FEF80937A4A90937B4A83E74E
:2015400098E40E94AE1156C08FEF9FEF80937A4A90937B4A83E798E40E94B7118091794AA9
:2015600081FD1CC01C8241E050E0BE016C5F7F4F83E798E40E945A128C81813119F08F3748
:2015800031F00AC08EE696E40E94670408C08EE696E40E94EC0803C081E001C089E0882320
:2015A00021F06EE676E40E9426048091794A85FD03C080618093794A0AE71AE4F801618106
:2015C0008EE696E40E941D12F80160818EE696E40E941D128FEF9FEFF801808391830E94F5
:2015E000C303E9E7FAE480818E7F808383E798E40E94AE112496CDBFDEBFDF91CF911F91BC
:201600000F91FF90EF90DF90CF900895880F991F0E94631308951F920F920FB60F921124C0
:201620008F9381E08093060B8F910F900FBE0F901F9018951F920F920FB60F9211240BB6CE
:201640000F928F93EF93FF93E0E0FAE080E1838780818E7F8083E9E7FAE48081816080830A
:20166000FF91EF918F910F900BBE0F900FBE0F901F9018951F920F920FB60F9211240BB6BD
:201680000F922F933F934F935F936F937F938F939F93AF93BF93EF93FF93E0E0FAE010A2E5
:2016A00011A28081816080836091800883E798E40E941D12FF91EF91BF91AF919F918F9172
:2016C0007F916F915F914F913F912F910F900BBE0F900FBE0F901F9018951F920F920FB6B4
:2016E0000F9211240BB60F922F933F934F935F936F937F938F939F93AF93BF93EF93FF933A
:201700008EE696E40E94BC1181110E94BA0380E480938408FF91EF91BF91AF919F918F9188
:201720007F916F915F914F913F912F910F900BBE0F900FBE0F901F9018951F920F920FB653
:201740000F9211240BB60F922F933F934F935F936F937F938F939F93AF93BF93EF93FF93D9
:20176000CF93DF930F92CDB7DEB78091794A80FD12C0BE016F5F7F4F8EE696E40E943B1280
:20178000892B21F489818093820805C0E0E8F8E085818F7D85830F90DF91CF91FF91EF91DB
:2017A000BF91AF919F918F917F916F915F914F913F912F910F900BBE0F900FBE0F901F90B7
:2017C00018951F920F920FB60F9211240BB60F928F93EF93FF938091A74F853058F0109231
:2017E000A74FE0E4F9E082818F7D828380E8809300020DC08091A74F8F5F8093A74FE09189
:20180000A74FF0E0EF55F04B808180934409FF91EF918F910F900BBE0F900FBE0F901F90D0
:20182000189588ED84BFE0E6F0E09CE9908784BF10820CC02FEF81EE94E02150804090406E
:20184000E1F700C0000080E8809307048091650080FDF0CF80E880930604089588ED84BFDE
:20186000E0E6F0E090E890A384BF90A1946290A384BF90A1916090A384BF83E080830CC07D
:201880002FEF81EE94E0215080409040E1F700C0000080E8809307048091650080FDF0CF76
:2018A00080E8809306040895CF93DF93C0E0D4E090E89983A0E2B4E028E012962C9312971C
:2018C00050969C935097E0E4F4E087E081838683228383898860838B80E1818330E231832E
:2018E00085833583898330E43983E0E6F4E081838683218384E011968C93119752969C9318
:20190000DF91CF910895CF93DF93E0E0FAE084E08083118280EB818780E1828780E89EE32C
:2019200080A791A788E692E486A397A3A0E0BBE01C9286E111968C93119725E030E01C969C
:201940002D933C931D971C962D913C911D971A962D933C931B97E0E2FBE0108281838FE0C0
:2019600090E084879587848595858287938781E114968C9314978483C0E0D2E083E18E8BDE
:2019800087E08EAF8093420214968C911497816014968C9314978481816084838C9181609A
:2019A0008C93808181608083DF91CF910895E0ECF1E080E4808B8CE9818B8CE0828B82EE40
:2019C000838B80898160808B80E9848B158A89E0868B80EF878B84898160848B808581600F
:2019E0008087848581608487848D8160848F80898160808B808D8160808F81E080830895F3
:201A0000E0E8F8E081EE858380EC868383E087838BE09AE180879187848180648483E0E810
:201A2000F4E089E081838CE081830895E0E1F1E08081806480830895089580E090E0089537
:201A4000E0E0F1E126813781A481B581281B390B0E942213DC01CB01985FAF4FBF4F072EFB
:201A60007CE0B695A795979587957A95D1F7702D08958091480483FF03C082E090E0089519
:201A800081E090E00895E0E4F9E084E3808385E88183808181608083089590E488ED84BFB2
:201AA000909310010E94110C86E09BE0809300409093014080E090E4A0E0B0E080939D4FB8
:201AC00090939E4FA0939F4FB093A04F4FEF5FEB61E070E04093914F5093924F6093934F3E
:201AE0007093944F4FEF5DEF61E070E04093994F50939A4F60939B4F70939C4F8093954F9C
:201B00009093964FA093974FB093984F0E94540C0E94D70C0E94830C0E947B0E0E94000DE8
:201B20000E94430D83E798E40E94AE118EE696E40E94AE11E0E4F4E0C0E8C183C5830E94AF
:201B4000160D84E0809381040E94BA03C093010478940E94390D80937C4A80E090E005C04D
:201B6000FC01EE5FFF4B80830196811522E09207B8F380E092E0E2E0F2E4DF019C011D92C5
:201B800021503040E1F7C0E0D0E00E94080A2196C53F31E0D30708F18091A24F8D3338F0FF
:201BA000E1EAFFE411828CE3848315820BC0E1EAFFE481818F5F8183848181508483858187
:201BC0008F5F85831092A74F8091A14FE0E4F9E0848380E28283C0E0D0E08FEF91E00E948A
:201BE000930E8093904F2091C34F3091C44F2130310511F08F3749F20E9499088111C5CFC9
:201C0000F894E0E8F8E0158216820F2EE12CFAE0FF2EF02DD7011C921A961C921A978FEFE8
:201C20001B968C9300E41AE0F80110821286838790E088ED84BF9093100160E08FEF91E03E
:201C40000E94970E8091954F9091964FA091974FB091984F4C015D01B694A794979487948D
:201C6000E0ECF1E020812E7F2083108611862285207F2287148615862685207F2687108AF4
:201C8000118A2289207F228B148A158A2689207F268B108E118E228D207F228F148E158EF5
:201CA000268D207F268FE0E0F2E0168A16AE10924202D70190961D921C929197F80110A213
:201CC00011A240E054E0DA011C92E0E2F4E028E022831482108A20E434E0D9011C921C92B3
:201CE00053961C92DA011C9210926004128AF40109954BCF089590E088ED84BF909301107C
:201D00001092031080E008951F920F920FB60F9211248F9381E0809304108F910F900FBEEE
:201D20000F901F9018959C5EFC01808108951F93CF93DF93EC01162F809102108370E1F76D
:201D400043E16DE980E090E10E945E13DC5E188340E06DE980E090E10E945E1380910210D3
:201D6000807711F081E001C080E0DF91CF911F910895FB019A019C5EAC0160E8CF010E94D4
:201D8000F1120895EF92FF920F931F93CF93DF938B017A01EC01DC5E809102108370E1F74D
:201DA00043E16DE980E090E10E945E13F80180818883F1E0EF1AF1080F5F1F4F2196E11465
:201DC000F104A1F740E06DE980E090E10E945E1380910210807711F081E001C080E0DF910F
:201DE000CF911F910F91FF90EF9008958091021081FF02C080E0089581E008950F920090F7
:201E00003B000F920A01FB0180933B00E89511240F9000923B000F9008958BBFFB018791D9
:201E200008954F925F926F927F928F929F92AF92BF92CF92DF92EF92FF920F931F93CF93A3
:201E4000DF934B015C018A016B017C01CC24E894D0F840E050E00DC0E801C40FD51F8C0D59
:201E60009D1DAE1DBF1DABBFFC01879188834F5F5F4FCA01A0E0B0E02401350131E053225F
:201E80006624772484159505A605B70528F3CA010196F801E40FF51F20830EC0D801A80F05
:201EA000B91FB701A601480F591F611D711D6BBFFA0147914C930196811522E0920770F309
:201EC000809102108370E1F748E06DE980E090E10E945E1340E050E0C701B6010E94FE0E35
:201EE000809102108370E1F740E06DE980E090E10E945E1342E06DE980E090E10E945E133E
:201F0000C0E0D0E013C0CE01880F991FF801E80FF91F4081518146015701880E991EA11C3C
:201F2000B11CC501B4010E94FE0E2196CF3FD10551F348F340E06DE980E090E10E945E1337
:201F400080910210807711F081E001C080E0DF91CF911F910F91FF90EF90DF90CF90BF9099
:201F6000AF909F908F907F906F905F904F900895CF92DF92EF92FF926B017C01809102106B
:201F80008370E1F748E06DE980E090E10E945E1340E050E0C701B6010E94FE0E40E06DE921
:201FA00080E090E10E945E1380910210807711F081E001C080E0FF90EF90DF90CF90089527
:201FC0008F929F92AF92BF92CF92DF92EF92FF920F931F93CF93DF936B017C01DC01CB017F
:201FE0009170AA27BB27892B8A2B8B2B09F047C0809102108370E1F78A0148E06DE980E0B7
:2020000090E10E945E1340E050E0C701B6010E94FE0E809102108370E1F740E06DE980E0FB
:2020200090E10E945E1342E06DE980E090E10E945E13C0E0D0E013C0CE01880F991FF80186
:20204000E80FF91F4081518146015701880E991EA11CB11CC501B4010E94FE0E2196CF3F7A
:20206000D10551F348F340E06DE980E090E10E945E1380910210807721F081E003C081E001
:2020800001C080E0DF91CF911F910F91FF90EF90DF90CF90BF90AF909F908F9008954F92C9
:2020A0005F926F927F928F929F92AF92BF92EF92FF920F931F93CF93DF934B015C017A01DB
:2020C0008901809102108370E1F740E06DE980E090E10E945E1342E06DE980E090E10E9443
:2020E0005E13C0E0D0E013C0CE01880F991FF701E80FF91F4081518124013501480E591E6C
:20210000611C711CC301B2010E94FE0E2196C80196958795C817D90738F3809102108370C9
:20212000E1F740E06DE980E090E10E945E1380910210807711F081E001C080E0DF91CF9100
:202140001F910F91FF90EF90BF90AF909F908F907F906F905F904F9008952F923F924F9259
:202160005F926F927F928F929F92AF92BF92CF92DF92EF92FF920F931F93CF93DF936A0101
:2021800079014B015C018824E89490F82B013C0121E0522266247724C0E0D0E00EC0180132
:2021A0002C0E3D1EBC01CD01680D791D8A1D9B1D0E940D0FF10180832196CE01A0E0B0E04C
:2021C00084159505A605B70550F35524539423C0CE010196C00FD11F3601FFEF6F1A7F0A83
:2021E000F60120812883F1E0EF1AF1089C013170232B79F4A801C501B4010E94E00F582E95
:2022000022E0920EA11CB11C81E0581651F180E090E0EC016301E114F104D1F61EC0780158
:20222000EC0EFD1EC501B4016C0F7D1F811D911D0E940D0FF70180832196CE019170892BB7
:2022400061F4A801C501B4010E94E00F582EF2E09F0EA11CB11CC0E0D0E0209701F7852D34
:2022600001C081E0DF91CF911F910F91FF90EF90DF90CF90BF90AF909F908F907F906F9056
:202280005F904F903F902F900895CF92DF92EF92FF92CF93DF933091C54F332369F06B019D
:2022A0007C0131E0D322EE24FF24CD28CE28CF2809F04AC01092C54FC22FD42F6B017C01EE
:2022C000DC01CB019170AA27BB27892B8A2B8B2BD1F4809102108370E1F748E06DE980E0F1
:2022E00090E10E945E1340E050E0C701B6010E94FE0E809102108370E1F742E06DE980E017
:2023000090E10E945E13C0FE06C04D2F50E0542F44274F6F03C04D2F50E05F6FC701B601A1
:202320006E7F0E94FE0ECC2349F040E06DE980E090E10E945E1381E08093C54F80910210D5
:20234000807721F081E003C081E001C080E0DF91CF91FF90EF90DF90CF900895FC011082F7
:20236000118212821382EC5FFD4F108208958C5F9D4FFC0180810895FC01EC5FFD4F208134
:2023800021110AC0FC0120813181828193812817390721F080E0089580E0089581E0089552
:2023A000FC01EC5FFD4F2081211111C0FC0120813181428153812417350724F0C901841B0A
:2023C000950B0895C9019E5F841B950B089580E092E00895FC01808191819F012D5F3D4FE6
:2023E0008217930729F4CF0104968083918303C0019680839183408151812281338181E050
:202400004217530709F080E0EC5FFD4F80830895FC01EC5FFD4F1082FC01228133812F3F91
:20242000F1E03F0721F4FC011282138208952F5F3F4FFC01228333830895FC01808191818C
:202440009C012F5F3F4F211542E0340714F020E030E0428153812417350751F0DF01A80F36
:20246000B91F14966C932083318380E090E008958FEF9FEF0895FC01808191812281338107
:2024800082179307A1F0C9010196811542E0940714F080E090E0DF01A20FB31F14962C9126
:2024A000DB012C938283938380E090E008958FEF9FEF0895EF92FF920F931F93CF93DF9316
:2024C0007C018B01EA010E94BC11811120C0F7012081318182819381281739076CF0C80F13
:2024E000D91FCE019170E701C80FD91F8C81F801808380E090E00DC0C80FD91FD170CE0DCC
:20250000DF1D8C81F801808380E090E002C08FEF9FEFDF91CF911F910F91FF90EF9008954D
:202520006FEF7FEFCB010895609570958095909508950F931F938B019C01DC01CB018427C4
:202540009927AA27BB27880F991F880F991F092E000CAA0B8C599E4FAF4FFC015A2F0E947A
:202560003F13012F122F232F332760277127822793271F910F9108958F929F92AF92BF9299
:20258000CF92DF92EF92FF920F931F93CF93DF93EC014A015B010E949012C12CD12C7601F6
:2025A0000CC08E010F5F1F4F48810E9499122FEFC21AD20AE20AF20AE801C814D904EA0480
:2025C000FB0478F30E949412DF91CF911F910F91FF90EF90DF90CF90BF90AF909F908F9071
:2025E0000895CF92DF92EF926A01E62EDC01280F391FA217B30751F0F6015E2D0E945713BE
:202600006D934FEFC41AD40AE40AF3CFEF90DF90CF900895262FAF93BF93E0E0F0E13281F9
:2026200031FDFDCF3DE934BF33E13083DC01A050BC4E2C933DE934BF20E020830196BF9187
:20264000AF910895A29FB001B39FC001A39F700D811D1124911DB29F700D811D1124911D09
:202660000895992777FD06C07BBF07900D920197E1F7089501900D920197E1F7089557FDB5
:2026800006C05BBF6791779187919791089561917191819191910895EC010E946D130E9407
:2026A0006C13CE010E946E13CE010E946A1357FD03C05BBF67910895608108951BBEFC01A1
:2026C00064BF408308950E940A13272F0C940B130C9400000E94B0000895089508957DF965
:1726E000BFFC5FFE30FF98FF0A1AE6FFF3FFF7FFFCFF434955300107
:204000000C9421210C94D8600C94D8600C94D8600C94D8600C94D8600C94D8600C94F85CBA
:204020000C94D8600C94B7600C94D8600C947E5D0C94A85C0C94B1600C94A5600C94AA4614
:204040000C94415B0C94AB600C94D8600C94D8600C94C25E0C94D8600C94D8600C94D86081
:204060000C94D8600C9496600C94CD5A0C94D8600C94D8600C94D8600C94D8600C94D860D3
:204080000C94D8600C94D8600C94D8600C94D8600C94D8600C94D8600C94D8600C94D86060
:2040A0000C94D8600C94D8600C94D8600C94D8600C94ED5E0C94485A0C94D8600C94D860C3
:2040C0000C94D8600C94935F0C94D8600C94D8600C94D8600C94D8600C94D8600C94D86066
:2040E0000C942C5E0C945F5E0C94F45D0C94D8600C94D8609E53995394538F538A5385533D
:204100004553455345534553455345534553455380537B537653455345534553455345537D
:204120004553455345534553455345534553455345534553455345534553455345534553FF
:204140004553455345534553455345534553455345534553455345534553455345534553DF
:204160004553455345534553455345534553455345534553455345534553455345534553BF
:2041800045534553455345534553455345534553455345534553455345534553455345539F
:2041A000455345534553455345534553455345534553455345534553455345536C5362533B
:2041C00058534B53B35BCE5BDF5BB35BB85BBD5BB85BBD5BAC5BE95BAC5BF05BFE5BAC5BC4
:2041E000AC5BC25BD35BD85BC85BC85BF75BC25BAC5BE45B40004AC7804AC74B8F00C1BE04
:204200004B8F4CBB804CBB4D1F00C2864D1F4D5F804D5F4DC100C2EA4DC14DDD804DDD4D55
:20422000DF00C34C4DDF4DED804DED4DEF00C34E4DEF4DF9804DF94DFB00C3504DFB4DFCEF
:20424000800011241FBECFEFCDBFDFE7DEBFE4EFF1E442E419C0B791A791379127910791E0
:2042600007FD0EC097918791EF01F92FE82F0BBF07900D92A217B307D9F7FE011BBE04C01E
:204280001D92A217B307E1F7E134F40721F70E94FE420C946760F894FFCF52455345525682
:2042A000454420202020202020202020202020202020202020202020005245534552564599
:2042C00044202020202020202020202020202020202020202020200052455345525645447A
:2042E00020202020202020202020202020202020202020202020005245534552564544207E
:2043000020202020202020202020202020202020202020202000524553455256454420205D
:2043200020202020202020202020202020202020202020200052455345525645442020203D
:2043400020202020202020202020202020202020202020005245534552564544202020201D
:204360002020202020202020202020202020202020200052455345525645442020202020FD
:204380002020202020202020202020202020202020004649524520434F554E54203120209D
:2043A0002020202020202020202020202020202000524553455256454420202020202020BD
:2043C000202020202020202020202020202020004E4F44452049442052617720436F756E2B
:2043E000747320424B202020202020202020004B562052617720436F756E747320424B20B5
:2044000020202020202020202020202020004B56205045414B2053594E4320436F756E7494
:20442000732020202020202020202020005045414B205345432043555220436F756E7473E7
:20444000202020202020202020202000494F4E2043555220414D5020436F756E7473202032
:2044600020202020202020202020005045414B20494F4E2043555220436F756E74732042CD
:204480004B202020202020202000434F494C20494420436F756E747320424B202020202014
:2044A0002020202020202020005052494D4152592043555252454E5420436F756E747320D9
:2044C000424B20202020200054454D504552415455524520436F756E747320424B202020B8
:2044E000202020202020004341502032373520436F756E747320424B202020202020202021
:2045000020202020200052455345525645442020202020202020202020202020202020205B
:2045200020202020004B5620302E32204B762F62697420202020202020202020202020209B
:204540002020200043415647202020202020202020202020202020202020202020202020DA
:20456000202000434F562020202020202020202020202020202020202020202020202020D3
:2045800020004649524520434F554E5432202020202020202020202020202020202020209A
:2045A0000052455345525645442020202020202020202020202020202020202020202000DB
:2045C000524553455256454420202020202020202020202020202020202020202020005269
:2045E000455345525645442020202020202020202020202020202020202020202000524556
:20460000534552564544202020202020202020202020202020202020202020200052455327
:20462000455256454420202020202020202020202020202020202020202020005052494D0C
:204640004152592043555252454E5420434F554E54532020202020202020005045414B20EE
:204660004B5620434F554E545320202020202020202020202020202020005345432043550A
:204680005220436F756E747333202020202020202020202020202020005345432043555234
:2046A00020436F756E74733420202020202020202020202020202000534543204355522045
:2046C000436F756E7473352020202020202020202020202020200053454320435552204301
:2046E0006F756E747336202020202020202020202020202020005345432043555220436FB4
:20470000756E747337202020202020202020202020202020005345432043555220436F758C
:204720006E747338202020202020202020202020202020005345432043555220436F756E72
:20474000747339202020202020202020202020202020005345432043555220436F756E744B
:204760007331302020202020202020202020202020005345432043555220436F756E747324
:2047800031312020202020202020202020202020005345432043555220436F756E74733145
:2047A000322020202020202020202020202020005345432043555220436F756E7473313322
:2047C0002020202020202020202020202020005345432043555220436F756E747331342013
:2047E00020202020202020202020202020005345432043555220436F756E747331352020F2
:20480000202020202020202020202020005345432043555220436F756E74733136202020D0
:204820002020202020202020202020005345432043555220436F756E7473313720202020AF
:2048400020202020202020202020005345432043555220436F756E7473313820202020208E
:20486000202020202020202020005345432043555220436F756E747331392020202020206D
:204880002020202020202020005345432043555220436F756E747332302020202020202055
:2048A00020202020202020005345432043555220436F756E74733231202020202020202034
:2048C000202020202020005345432043555220436F756E7473323220202020202020202013
:2048E0002020202020005345432043555220436F756E7473323320202020202020202020F2
:2049000020202020005345432043555220436F756E747332342020202020202020202020D0
:20492000202020005345432043555220436F756E74733235202020202020202020202020AF
:204940002020005345432043555220436F756E74733236202020202020202020202020208E
:2049600020005345432043555220436F756E7473323720202020202020202020202020206D
:20498000005345432043555220436F756E747332382020202020202020202020202020006C
:2049A0005345432043555220436F756E7473323920202020202020202020202020200053F8
:2049C00045432043555220436F756E747333302020202020202020202020202020005345EE
:2049E000432043555220436F756E74733331202020202020202020202020202000534543CF
:204A00002043555220436F756E7473333220202020202020202020202020200053454320D0
:204A200043555220436F756E7473333320202020202020202020202020200053454320438C
:204A4000555220436F756E7473333420202020202020202020202020200053454320435559
:204A60005220436F756E74733335202020202020202020202020202000534543204355523B
:204A800020436F756E7473333620202020202020202020202020200053454320435552204C
:204AA000436F756E7473333720202020202020202020202020200053454320435552204308
:204AC0006F756E747333382020202020202020202020202020005345432043555220436FBB
:204AE000756E747333392020202020202020202020202020005345432043555220436F7594
:204B00006E747334302020202020202020202020202020005345432043555220436F756E82
:204B2000747334312020202020202020202020202020005345432043555220436F756E745B
:204B40007334322020202020202020202020202020005345432043555220436F756E74733B
:204B600034332020202020202020202020202020005345432043555220436F756E74733459
:204B8000342020202020202020202020202020005345432043555220436F756E7473343537
:204BA0002020202020202020202020202020005345432043555220436F756E74733436202A
:204BC00020202020202020202020202020005345432043555220436F756E74733437202009
:204BE000202020202020202020202020005345432043555220436F756E74733438202020E8
:204C00002020202020202020202020005345432043555220436F756E7473343920202020C6
:204C200020202020202020202020005345432043555220436F756E747335302020202020AE
:204C4000202020202020202020005345432043555220436F756E747335312020202020208D
:204C60002020202020202020005345432043555220436F756E74733532202020202020206C
:204C800020202020202020005345432043555220436F756E7473353320202020202020204B
:204CA000202020202020005345432043555220436F756E747335342020202020202020202A
:204CC0002020202020005345432043555220436F756E747335352020202020202020202009
:204CE00020202020005345432043555220436F756E747335362020202020202020202020E8
:204D0000202020005345432043555220436F756E74733537202020202020202020202020C6
:204D20002020005345432043555220436F756E7473353820202020202020202020202020A5
:204D400020005345432043555220436F756E74733539202020202020202020202020202084
:204D6000005345432043555220436F756E747336302020202020202020202020202020008C
:204D80005345432043555220436F756E747336312020202020202020202020202020005318
:204DA00045432043555220436F756E74733632202020202020202020202020202000534505
:204DC000432043555220436F756E74733633202020202020202020202020202000534543E6
:204DE0002043555220436F756E7473363420202020202020202020202020200053454320E8
:204E000043555220436F756E747336352020202020202020202020202020005345432043A3
:204E2000555220436F756E7473363620202020202020202020202020200053454320435570
:204E40005220436F756E747336372020202020202020202020202020005345432043555252
:204E600020436F756E74733638202020202020202020202020202000534543204355522063
:204E8000436F756E747336392020202020202020202020202020005345432043555220431F
:204EA0006F756E747337302020202020202020202020202020005345432043555220436FDB
:204EC000756E747337312020202020202020202020202020005345432043555220436F75B4
:204EE0006E747337322020202020202020202020202020005345432043555220436F756E9A
:204F0000747337332020202020202020202020202020005345432043555220436F756E7472
:204F20007337342020202020202020202020202020005345432043555220436F756E747352
:204F400037352020202020202020202020202020005345432043555220436F756E7473376D
:204F6000362020202020202020202020202020005345432043555220436F756E747337374C
:204F80002020202020202020202020202020005345432043555220436F756E747337382041
:204FA00020202020202020202020202020005345432043555220436F756E74733739202020
:204FC000202020202020202020202020005345432043555220436F756E7473383020202008
:204FE0002020202020202020202020005345432043555220436F756E7473383120202020E7
:2050000020202020202020202020005345432043555220436F756E747338322020202020C5
:20502000202020202020202020005345432043555220436F756E74733833202020202020A4
:205040002020202020202020005345432043555220436F756E747338342020202020202083
:2050600020202020202020005345432043555220436F756E74733835202020202020202062
:20508000202020202020005345432043555220436F756E7473383620202020202020202041
:2050A0002020202020005345432043555220436F756E747338372020202020202020202020
:2050C00020202020005345432043555220436F756E747338382020202020202020202020FF
:2050E000202020005345432043555220436F756E74733839202020202020202020202020DE
:205100002020005345432043555220436F756E7473393020202020202020202020202020C5
:2051200020005345432043555220436F756E747339312020202020202020202020202020A4
:20514000005345432043555220436F756E74733932202020202020202020202020202000A3
:205160005345432043555220436F756E74733933202020202020202020202020202000532F
:2051800045432043555220436F756E7473393420202020202020202020202020200053451C
:2051A000432043555220436F756E74733935202020202020202020202020202000534543FD
:2051C0002043555220436F756E7473393620202020202020202020202020200053454320FF
:2051E00043555220436F756E747339372020202020202020202020202020005345432043BB
:20520000555220436F756E7473393820202020202020202020202020200053454320435587
:205220005220436F756E747339392020202020202020202020202020005345432043555269
:2052400020436F756E74733130302020202020202020202020202000524553455256454421
:205260002020202020202020202020202020202020202020202000524553455256454420EE
:205280002020202020202020202020202020202020202020200052455345525645442020CE
:2052A0002020202020202020202020202020202020202020005245534552564544202020AE
:2052C00020202020202020202020202020202020202020005245534552564544202020208E
:2052E00020202020202020202020202020202020202000524553455256454420202020206E
:2053000020202020202020202020202020202020200052455345525645442020202020204D
:2053200020202020202020202020202020202020005245534552564544202020202020202D
:2053400020202020202020202020202020202000524553455256454420202020202020200D
:205360002020202020202020202020202020005245534552564544202020202020202020ED
:205380002020202020202020202020202000524553455256454420202020202020202020CD
:2053A0002020202020202020202020200052455345525645442020202020202020202020AD
:2053C00020202020202020202020200052455345525645442020202020202020202020208D
:2053E00020202020202020202020005245534552564544202020202020202020202020206D
:2054000020202020202020202000524553455256454420202020202020202020202020204C
:2054200020202020202020200052455345525645442020202020202020202020202020202C
:2054400020202020202020005245534552564544202020202020202020202020202020200C
:205460002020202020200052455345525645442020202020202020202020202020202020EC
:205480002020202020005245534552564544202020202020202020202020202020202020CC
:2054A0002020202000546F74616C2050756C73652054696D6573202875732A3136292020F3
:2054C0002020200041435455414C5F50554C53455F54494D452031202875532A3136292001
:2054E00020200041435455414C5F50554C53455F54494D452032202875532A3136292020E0
:20550000200041435455414C5F50554C53455F54494D452033202875532A313629202020BE
:205520000041435455414C5F50554C53455F54494D452034202875532A31362920202000BD
:2055400041435455414C5F50554C53455F54494D452035202875532A31362920202000415B
:20556000435455414C5F50554C53455F54494D452036202875532A31362920202000414338
:205580005455414C5F50554C53455F54494D452037202875532A3136292020200041435406
:2055A00055414C5F50554C53455F54494D452038202875532A3136292020200041435455E4
:2055C000414C5F50554C53455F54494D452039202875532A313629202020004143545541D7
:2055E0004C5F50554C53455F54494D45203130202875532A31362920200041435455414CA4
:205600005F50554C53455F54494D45203131202875532A31362920200041435455414C5F6F
:2056200050554C53455F54494D45203132202875532A31362920200041435455414C5F505D
:20564000554C53455F54494D45203133202875532A31362920200041435455414C5F505537
:205660004C53455F54494D45203134202875532A31362920200041435455414C5F50554C1F
:2056800053455F54494D45203135202875532A31362920200041435455414C5F50554C53F7
:2056A000455F54494D45203136202875532A31362920200041435455414C5F50554C5345E4
:2056C0005F54494D45203137202875532A31362920200041435455414C5F50554C53455FA9
:2056E00054494D45203138202875532A31362920200041435455414C5F50554C53455F5493
:20570000494D45203139202875532A31362920200041435455414C5F50554C53455F54497C
:205720004D453230202875532A3136292020200041435455414C5F50554C53455F54494D60
:20574000453231202875532A3136292020200041435455414C5F50554C53455F54494D4547
:205760003232202875532A3136292020200041435455414C5F50554C53455F54494D453239
:2057800033202875532A3136292020200041435455414C5F50554C53455F54494D45323416
:2057A000202875532A3136292020200041435455414C5F50554C53455F54494D4532352008
:2057C0002875532A3136292020200041435455414C5F50554C53455F54494D4532362028DF
:2057E00075532A3136292020200041435455414C5F50554C53455F54494D45323720287571
:20580000532A3136292020200041435455414C5F50554C53455F54494D4532382028755371
:205820002A3136292020200041435455414C5F50554C53455F54494D453239202875532A79
:205840003136292020200041435455414C5F50554C53455F54494D453330202875532A315A
:2058600036292020200041435455414C5F50554C53455F54494D453331202875532A313634
:20588000292020200041435455414C5F50554C53455F54494D453332202875532A31362920
:2058A0002020200041435455414C5F50554C53455F54494D453333202875532A3136292008
:2058C00020200041435455414C5F50554C53455F54494D453334202875532A3136292020E7
:2058E000200041435455414C5F50554C53455F54494D453335202875532A313629202020C6
:205900000041435455414C5F50554C53455F54494D453336202875532A31362920202000C4
:2059200041435455414C5F50554C53455F54494D453337202875532A313629202020004162
:20594000435455414C5F50554C53455F54494D453338202875532A3136292020200041433F
:205960005455414C5F50554C53455F54494D453339202875532A313629202020004143540D
:2059800055414C5F50554C53455F54494D453430202875532A3136292020200041435455F4
:2059A000414C5F50554C53455F54494D453431202875532A313629202020004143545541E7
:2059C0004C5F50554C53455F54494D453432202875532A3136292020200041435455414CBB
:2059E0005F50554C53455F54494D453433202875532A3136292020200041435455414C5F87
:205A000050554C53455F54494D453434202875532A3136292020200041435455414C5F5074
:205A2000554C53455F54494D453435202875532A3136292020200041435455414C5F50554E
:205A40004C53455F54494D453436202875532A3136292020200041435455414C5F50554C36
:205A600053455F54494D453437202875532A3136292020200041435455414C5F50554C530E
:205A8000455F54494D453438202875532A3136292020200041435455414C5F50554C5345FB
:205AA0005F54494D453439202875532A3136292020200041435455414C5F50554C53455FC0
:205AC00054494D453530202875532A3136292020200041435455414C5F50554C53455F54B3
:205AE000494D453531202875532A3136292020200041435455414C5F50554C53455F54499D
:205B00004D453532202875532A3136292020200041435455414C5F50554C53455F54494D77
:205B2000453533202875532A3136292020200041435455414C5F50554C53455F54494D455E
:205B40003534202875532A3136292020200041435455414C5F50554C53455F54494D45354D
:205B600035202875532A3136292020200041435455414C5F50554C53455F54494D4535362B
:205B8000202875532A3136292020200041435455414C5F50554C53455F54494D453537201F
:205BA0002875532A3136292020200041435455414C5F50554C53455F54494D4535382028F6
:205BC00075532A3136292020200041435455414C5F50554C53455F54494D45353920287588
:205BE000532A3136292020200041435455414C5F50554C53455F54494D4536302028755392
:205C00002A3136292020200041435455414C5F50554C53455F54494D453631202875532A99
:205C20003136292020200041435455414C5F50554C53455F54494D453632202875532A3171
:205C400036292020200041435455414C5F50554C53455F54494D453633202875532A31364B
:205C6000292020200041435455414C5F50554C53455F54494D453634202875532A31362937
:205C80002020200041435455414C5F50554C53455F54494D453635202875532A313629201F
:205CA00020200041435455414C5F50554C53455F54494D453636202875532A3136292020FE
:205CC000200041435455414C5F50554C53455F54494D453637202875532A313629202020DD
:205CE0000041435455414C5F50554C53455F54494D453638202875532A31362920202000DC
:205D000041435455414C5F50554C53455F54494D453639202875532A313629202020004179
:205D2000435455414C5F50554C53455F54494D453730202875532A3136292020200041435F
:205D40005455414C5F50554C53455F54494D453731202875532A313629202020004143542D
:205D600055414C5F50554C53455F54494D453732202875532A31362920202000414354550B
:205D8000414C5F50554C53455F54494D453733202875532A313629202020004143545541FE
:205DA0004C5F50554C53455F54494D453734202875532A3136292020200041435455414CD2
:205DC0005F50554C53455F54494D453735202875532A3136292020200041435455414C5F9E
:205DE00050554C53455F54494D453736202875532A3136292020200041435455414C5F508C
:205E0000554C53455F54494D453737202875532A3136292020200041435455414C5F505565
:205E20004C53455F54494D453738202875532A3136292020200041435455414C5F50554C4D
:205E400053455F54494D453739202875532A3136292020200041435455414C5F50554C5325
:205E6000455F54494D453830202875532A3136292020200041435455414C5F50554C53451B
:205E80005F54494D453831202875532A3136292020200041435455414C5F50554C53455FE0
:205EA00054494D453832202875532A3136292020200041435455414C5F50554C53455F54CA
:205EC000494D453833202875532A3136292020200041435455414C5F50554C53455F5449B4
:205EE0004D453834202875532A3136292020200041435455414C5F50554C53455F54494D8F
:205F0000453835202875532A3136292020200041435455414C5F50554C53455F54494D4575
:205F20003836202875532A3136292020200041435455414C5F50554C53455F54494D453861
:205F400037202875532A3136292020200041435455414C5F50554C53455F54494D45383840
:205F6000202875532A3136292020200041435455414C5F50554C53455F54494D4538392036
:205F80002875532A3136292020200041435455414C5F50554C53455F54494D453930202816
:205FA00075532A3136292020200041435455414C5F50554C53455F54494D453931202875A8
:205FC000532A3136292020200041435455414C5F50554C53455F54494D45393220287553A9
:205FE0002A3136292020200041435455414C5F50554C53455F54494D453933202875532AB1
:206000003136292020200041435455414C5F50554C53455F54494D453934202875532A3188
:2060200036292020200041435455414C5F50554C53455F54494D453935202875532A313662
:20604000292020200041435455414C5F50554C53455F54494D453936202875532A3136294E
:206060002020200041435455414C5F50554C53455F54494D453937202875532A3136292036
:2060800020200041435455414C5F50554C53455F54494D453938202875532A313629202015
:2060A000200041435455414C5F50554C53455F54494D453939202875532A313629202020F4
:2060C0000041435455414C5F50554C53455F54494D45313030202875532A313629202000F5
:2060E0004C4F572043415020564F4C54414745202020202020202020202020202020004F59
:2061000050454E205052492020202020202020202020202020202020202020202000534836
:206120004F525445442050524920202020202020202020202020202020202020004F504592
:206140004E205345434F4E44415259202020202020202020202020202020200053484F52ED
:20616000544544205345434F4E4441525920202020202020202020202020005052494D4161
:2061800052592043555252454E54205452495020202020202020202020005245534552569B
:2061A00045442020202020202020202020202020202020202020202000524553455256457A
:2061C00044202020202020202020202020202020202020202020200052455345525645445B
:2061E00020202020202020202020202020202020202020202020005245534552564544205F
:2062000020202020202020202020202020202020202020202000524553455256454420203E
:2062200020202020202020202020202020202020202020200052455345525645442020201E
:206240002020202020202020202020202020202020202000524553455256454420202020FE
:206260002020202020202020202020202020202020200052455345525645442020202020DE
:206280002020202020202020202020202020202020005245534552564544202020202020BE
:2062A00020202020202020202020202020202020005245534552564544202020202020209E
:2062C00020202020202020202020202020202000524553455256454420202020202020207E
:2062E00020202020202020202020202020200052455345525645442020202020202020205E
:2063000020202020202020202020202020005245534552564544202020202020202020203D
:2063200020202020202020202020202000524553455256454420202020202020202020201D
:206340002020202020202020202020005245534552564544202020202020202020202020FD
:206360002020202020202020202000524553455256454420202020202020202020202020DD
:206380002020202020202020200052455345525645442020202020202020202020202020BD
:2063A00020202020202020200052455345525645442020202020202020202020202020209D
:2063C00020202020202020005245534552564544202020202020202020202020202020207D
:2063E00020202020202000524553455256454420202020202020202020202020202020205D
:2064000020202020200052455345525645442020202020202020202020202020202020203C
:2064200020202020005245534552564544202020202020202020202020202020202020201C
:206440002020200052455345525645442020202020202020202020202020202020202020FC
:206460002020005245534552564544202020202020202020202020202020202020202020DC
:206480002000524553455256454420202020202020202020202020202020202020202020BC
:2064A0000052455345525645442020202020202020202020202020202020202020202000BC
:2064C00052455345525645442020202020202020202020202020202020202020202000524A
:2064E000455345525645442020202020202020202020202020202020202020202000524537
:20650000534552564544202020202020202020202020202020202020202020200052455308
:206520004552564544202020202020202020202020202020202020202020200052455345F6
:206540005256454420202020202020202020202020202020202020202020005245534552C9
:206560005645442020202020202020202020202020202020202020202000524553455256A5
:20658000454420202020202020202020202020202020202020202020005245534552564596
:2065A000442020202020202020202020202020202020202020202000524553455256454477
:2065C00020202020202020202020202020202020202020202020005245534552564544207B
:2065E00020202020202020202020202020202020202020202000524553455256454420205B
:2066000020202020202020202020202020202020202020200052455345525645442020203A
:2066200020202020202020202020202020202020202020005245534552564544202020201A
:206640002020202020202020202020202020202020200052455345525645442020202020FA
:206660002020202020202020202020202020202020005245534552564544202020202020DA
:206680002020202020202020202020202020202000524553455256454420202020202020BA
:2066A00020202020202020202020202020202000524553455256454420202020202020209A
:2066C00020202020202020202020202020200052455345525645442020202020202020207A
:2066E00020202020202020202020202020005245534552564544202020202020202020205A
:20670000202020202020202020202020005245534552564544202020202020202020202039
:20672000202020202020202020202000524553455256454420202020202020202020202019
:206740002020202020202020202000524553455256454420202020202020202020202020F9
:206760002020202020202020200052455345525645442020202020202020202020202020D9
:206780002020202020202020005245534552564544202020202020202020202020202020B9
:2067A000202020202020200052455345525645442020202020202020202020202020202099
:2067C000202020202020005245534552564544202020202020202020202020202020202079
:2067E000202020202000524553455256454420202020202020202020202020202020202059
:20680000202020200052455345525645442020202020202020202020202020202020202038
:20682000202020005245534552564544202020202020202020202020202020202020202018
:206840002020005245534552564544202020202020202020202020202020202020202020F8
:206860002000524553455256454420202020202020202020202020202020202020202020D8
:206880000052455345525645442020202020202020202020202020202020202020202000D8
:2068A000524553455256454420202020202020202020202020202020202020202020005266
:2068C000455345525645442020202020202020202020202020202020202020202000524553
:2068E000534552564544202020202020202020202020202020202020202020200052455325
:20690000455256454420202020202020202020202020202020202020202020005245534512
:206920005256454420202020202020202020202020202020202020202020005245534552E5
:206940005645442020202020202020202020202020202020202020202000524553455256C1
:206960004544202020202020202020202020202020202020202020200052455345525645B2
:20698000442020202020202020202020202020202020202020202000524553455256454493
:2069A000202020202020202020202020202020202020202020200052455345525645442097
:2069C000202020202020202020202020202020202020202020005245534552564544202077
:2069E000202020202020202020202020202020202020202000524553455256454420202057
:206A0000202020202020202020202020202020202020200052455345525645442020202036
:206A2000202020202020202020202020202020202020005245534552564544202020202016
:206A40002020202020202020202020202020202020005245534552564544202020202020F6
:206A60002020202020202020202020202020202000524553455256454420202020202020D6
:206A80002020202020202020202020202020200052455345525645442020202020202020B6
:206AA000202020202020202020202020202000524553455256454420202020202020202096
:206AC000202020202020202020202020200052455345525645442020202020202020202076
:206AE000202020202020202020202020005245534552564544202020202020202020202056
:206B0000202020202020202020202000524553455256454420202020202020202020202035
:206B2000202020202020202020200052455345525645442020202020202020202020202015
:206B40002020202020202020200052455345525645442020202020202020202020202020F5
:206B60002020202020202020005245534552564544202020202020202020202020202020D5
:206B80002020202020202000524553455256454420202020202020202020202020202020B5
:206BA000202020202020005245534552564544202020202020202020202020202020202095
:206BC000202020202000524553455256454420202020202020202020202020202020202075
:206BE000202020200052455345525645442020202020202020202020202020202020202055
:206C0000202020005245534552564544202020202020202020202020202020202020202034
:206C2000202000524553455256454420202020202020202020202020202020202020202014
:206C40002000524553455256454420202020202020202020202020202020202020202020F4
:206C60000052455345525645442020202020202020202020202020202020202020202000F4
:206C8000524553455256454420202020202020202020202020202020202020202020005282
:206CA00045534552564544202020202020202020202020202020202020202020200052456F
:206CC000534552564544202020202020202020202020202020202020202020200052455341
:206CE00045525645442020202020202020202020202020202020202020202000524553452F
:206D0000525645442020202020202020202020202020202020202020202000524553455201
:206D20005645442020202020202020202020202020202020202020202000524553455256DD
:206D40004544202020202020202020202020202020202020202020200052455345525645CE
:206D60004420202020202020202020202020202020202020202020005245534552564544AF
:206D80002020202020202020202020202020202020202020202000524553455256454420B3
:206DA000202020202020202020202020202020202020202020005245534552564544202093
:206DC000202020202020202020202020202020202020202000524553455256454420202073
:206DE000202020202020202020202020202020202020200052455345525645442020202053
:206E0000202020202020202020202020202020202020005245534552564544202020202032
:206E2000202020202020202020202020202020202000524553455256454420202020202012
:206E40002020202020202020202020202020202000524553455256454420202020202020F2
:206E60002020202020202020202020202020200052455345525645442020202020202020D2
:206E80002020202020202020202020202020005245534552564544202020202020202020B2
:206EA000202020202020202020202020200052455345525645442020202020202020202092
:206EC000202020202020202020202020005245534552564544202020202020202020202072
:206EE000202020202020202020202000524553455256454420202020202020202020202052
:206F0000202020202020202020200052455345525645442020202020202020202020202031
:206F2000202020202020202020005245534552564544202020202020202020202020202011
:206F40002020202020202020005245534552564544202020202020202020202020202020F1
:206F60002020202020202000524553455256454420202020202020202020202020202020D1
:206F80002020202020200052455345525645442020202020202020202020202020202020B1
:206FA000202020202000524553455256454420202020202020202020202020202020202091
:206FC000202020200052455345525645442020202020202020202020202020202020202071
:206FE000202020005245534552564544202020202020202020202020202020202020202051
:20700000202000524553455256454420202020202020202020202020202020202020202030
:20702000200052455345525645442020202020202020202020202020202020202020202010
:20704000005245534552564544202020202020202020202020202020202020202020200010
:2070600052455345525645442020202020202020202020202020202020202020202000529E
:2070800045534552564544202020202020202020202020202020202020202020200052458B
:2070A00053455256454420202020202020202020202020202020202020202020005245535D
:2070C00045525645442020202020202020202020202020202020202020202000524553454B
:2070E00052564544202020202020202020202020202020202020202020200052455345521E
:207100005645442020202020202020202020202020202020202020202000524553455256F9
:207120004544202020202020202020202020202020202020202020200052455345525645EA
:207140004420202020202020202020202020202020202020202020005245534552564544CB
:207160002020202020202020202020202020202020202020202000524553455256454420CF
:207180002020202020202020202020202020202020202020200052455345525645442020AF
:2071A00020202020202020202020202020202020202020200052455345525645442020208F
:2071C00020202020202020202020202020202020202020005245534552564544202020206F
:2071E00020202020202020202020202020202020202000524553455256454420202020204F
:2072000020202020202020202020202020202020200052455345525645442020202020202E
:2072200020202020202020202020202020202020005245534552564544202020202020200E
:207240002020202020202020202020202020200052455345525645442020202020202020EE
:207260002020202020202020202020202020005245534552564544202020202020202020CE
:207280002020202020202020202020202000524553455256454420202020202020202020AE
:2072A00020202020202020202020202000524553455256454420202020202020202020208E
:2072C00020202020202020202020200052455345525645442020202020202020202020206E
:2072E00020202020202020202020005245534552564544202020202020202020202020204E
:2073000020202020202020202000524553455256454420202020202020202020202020202D
:2073200020202020202020200052455345525645442020202020202020202020202020200D
:207340002020202020202000524553455256454420202020202020202020202020202020ED
:207360002020202020200052455345525645442020202020202020202020202020202020CD
:207380002020202020005245534552564544202020202020202020202020202020202020AD
:2073A00020202020005245534552564544202020202020202020202020202020202020208D
:2073C00020202000524553455256454420202020202020202020202020202020202020206D
:2073E00020200052455345525645442020202020202020202020202020202020202020204D
:2074000020005245534552564544202020202020202020202020202020202020202020202C
:2074200000524553455256454420202020202020202020202020202020202020202020002C
:207440005245534552564544202020202020202020202020202020202020202020200052BA
:207460004553455256454420202020202020202020202020202020202020202020005245A7
:20748000534552564544202020202020202020202020202020202020202020200052455379
:2074A000455256454420202020202020202020202020202020202020202020005245534567
:2074C00052564544202020202020202020202020202020202020202020200052455345523A
:2074E000564544202020202020202020202020202020202020202020200052455345525616
:20750000454420202020202020202020202020202020202020202020005245534552564506
:207520004420202020202020202020202020202020202020202020005245534552564544E7
:207540002020202020202020202020202020202020202020202000524553455256454420EB
:207560002020202020202020202020202020202020202020200052455345525645442020CB
:207580002020202020202020202020202020202020202020005245534552564544202020AB
:2075A00020202020202020202020202020202020202020005245534552564544202020208B
:2075C00020202020202020202020202020202020202000524553455256454420202020206B
:2075E00020202020202020202020202020202020200052455345525645442020202020204B
:2076000020202020202020202020202020202020005245534552564544202020202020202A
:2076200020202020202020202020202020202000524553455256454420202020202020200A
:207640002020202020202020202020202020005245534552564544202020202020202020EA
:207660002020202020202020202020202000524553455256454420202020202020202020CA
:207680002020202020202020202020200052455345525645442020202020202020202020AA
:2076A00020202020202020202020200052455345525645442020202020202020202020208A
:2076C00020202020202020202020005245534552564544202020202020202020202020206A
:2076E00020202020202020202000524553455256454420202020202020202020202020204A
:20770000202020202020202000524553455256454420202020202020202020202020202029
:20772000202020202020200052455345525645442020202020202020202020202020202009
:207740002020202020200052455345525645442020202020202020202020202020202020E9
:207760002020202020005245534552564544202020202020202020202020202020202020C9
:207780002020202000524553455256454420202020202020202020202020202020202020A9
:2077A000202020005245534552564544202020202020202020202020202020202020202089
:2077C000202000524553455256454420202020202020202020202020202020202020202069
:2077E000200052455345525645442020202020202020202020202020202020202020202049
:20780000005245534552564544202020202020202020202020202020202020202020200048
:207820005245534552564544202020202020202020202020202020202020202020200052D6
:207840004553455256454420202020202020202020202020202020202020202020005245C3
:20786000534552564544202020202020202020202020202020202020202020200052455395
:20788000455256454420202020202020202020202020202020202020202020005245534583
:2078A000525645442020202020202020202020202020202020202020202000524553455256
:2078C000564544202020202020202020202020202020202020202020200052455345525632
:2078E000454420202020202020202020202020202020202020202020005245534552564523
:20790000442020202020202020202020202020202020202020202000524553455256454403
:20792000202020202020202020202020202020202020202020200052455345525645442007
:207940002020202020202020202020202020202020202020200052455345525645442020E7
:207960002020202020202020202020202020202020202020005245534552564544202020C7
:207980002020202020202020202020202020202020202000524553455256454420202020A7
:2079A000202020202020202020202020202020202020005245534552564544202020202087
:2079C000202020202020202020202020202020202000524553455256454420202020202067
:2079E000202020202020202020202020202020200052455345525645442020202020202047
:207A0000202020202020202020202020202020005245534552564544202020202020202026
:207A2000202020202020202020202020202000524553455256454420202020202020202006
:207A40002020202020202020202020202000524553455256454420202020202020202020E6
:207A60002020202020202020202020200052455345525645442020202020202020202020C6
:207A80002020202020202020202020005245534552564544202020202020202020202020A6
:207AA000202020202020202020200052455345525645442020202020202020202020202086
:207AC000202020202020202020005245534552564544202020202020202020202020202066
:207AE000202020202020202000524553455256454420202020202020202020202020202046
:207B0000202020202020200052455345525645442020202020202020202020202020202025
:207B2000202020202020005245534552564544202020202020202020202020202020202005
:207B40002020202020005245534552564544202020202020202020202020202020202020E5
:207B60002020202000524553455256454420202020202020202020202020202020202020C5
:207B80002020200052455345525645442020202020202020202020202020202020202020A5
:207BA000202000524553455256454420202020202020202020202020202020202020202085
:207BC000200052455345525645442020202020202020202020202020202020202020202065
:207BE000005245534552564544202020202020202020202020202020202020202020200065
:207C00005245534552564544202020202020202020202020202020202020202020200052F2
:207C20004553455256454420202020202020202020202020202020202020202020005245DF
:207C40005345525645442020202020202020202020202020202020202020202000524553B1
:207C600045525645442020202020202020202020202020202020202020202000524553459F
:207C8000525645442020202020202020202020202020202020202020202000524553455272
:207CA00056454420202020202020202020202020202020202020202020005245534552564E
:207CC00045442020202020202020202020202020202020202020202000524553455256453F
:207CE000442020202020202020202020202020202020202020202000524553455256454420
:207D0000202020202020202020202020202020202020202020200052455345525645442023
:207D2000202020202020202020202020202020202020202020005245534552564544202003
:207D40002020202020202020202020202020202020202020005245534552564544202020E3
:207D60002020202020202020202020202020202020202000524553455256454420202020C3
:207D80002020202020202020202020202020202020200052455345525645442020202020A3
:207DA000202020202020202020202020202020202000524553455256454420202020202083
:207DC000202020202020202020202020202020200052455345525645442020202020202063
:207DE000202020202020202020202020202020005245534552564544202020202020202043
:207E0000202020202020202020202020202000524553455256454420202020202020202022
:207E2000202020202020202020202020200052455345525645442020202020202020202002
:207E40002020202020202020202020200052455345525645442020202020202020202020E2
:207E60002020202020202020202020005245534552564544202020202020202020202020C2
:207E80002020202020202020202000524553455256454420202020202020202020202020A2
:207EA000202020202020202020005245534552564544202020202020202020202020202082
:207EC000202020202020202000524553455256454420202020202020202020202020202062
:207EE000202020202020200052455345525645442020202020202020202020202020202042
:207F0000202020202020005245534552564544202020202020202020202020202020202021
:207F2000202020202000524553455256454420202020202020202020202020202020202001
:207F40002020202000524553455256454420202020202020202020202020202020202020E1
:207F60002020200052455345525645442020202020202020202020202020202020202020C1
:207F80002020005245534552564544202020202020202020202020202020202020202020A1
:207FA000200052455345525645442020202020202020202020202020202020202020202081
:207FC000005245534552564544202020202020202020202020202020202020202020200081
:207FE000524553455256454420434F494C5320202020202020202020202020202020005235
:208000004553455256454420434F494C532020202020202020202020202020202000524521
:2080200053455256454420434F494C532020202020202020202020202020202000524553F3
:20804000455256454420434F494C53202020202020202020202020202020200052455345E1
:208060005256454420434F494C5320202020202020202020202020202020005245534552B4
:2080800056454420434F494C53202020202020202020202020202020200052455345525690
:2080A000454420434F494C5320202020202020202020202020202020005245534552564581
:2080C0004420434F494C53202020202020202020202020202020200050524920435552527B
:2080E000454E5420544852202020202020202020202020202020005345432043555252452F
:208100004E5420544852202832206D412F636F756E74292020004C6F772053696465204669
:2081200069726520546F67676C652053706565642020202000544F54414C204249545354C2
:20814000524D2054494D452028755329202020202020200052455345525645442020202038
:208160002020202020202020202020202020202020200052455345525645442020202020BF
:2081800020202020202020202020202020202020200052455345525645442020202020209F
:2081A00020202020202020202020202020202020005245534552564544202020202020207F
:2081C00020202020202020202020202020202000524553455256454420202020202020205F
:2081E00020202020202020202020202020200052455345525645442020202020202020203F
:2082000020202020202020202020202020005245534552564544202020202020202020201E
:208220002020202020202020202020200052455345525645442020202020202020202020FE
